{
  "contractName": "CBNBCrowdSale",
  "abi": [
    {
      "constant": false,
      "inputs": [
        {
          "name": "_internalTokens",
          "type": "uint256"
        }
      ],
      "name": "finalize",
      "outputs": [],
      "payable": false,
      "stateMutability": "nonpayable",
      "type": "function"
    },
    {
      "constant": true,
      "inputs": [],
      "name": "depositWallet",
      "outputs": [
        {
          "name": "",
          "type": "address"
        }
      ],
      "payable": false,
      "stateMutability": "view",
      "type": "function"
    },
    {
      "constant": true,
      "inputs": [],
      "name": "minLimit",
      "outputs": [
        {
          "name": "",
          "type": "uint256"
        }
      ],
      "payable": false,
      "stateMutability": "view",
      "type": "function"
    },
    {
      "constant": false,
      "inputs": [
        {
          "name": "_tierFrom",
          "type": "uint8"
        },
        {
          "name": "_tierTo",
          "type": "uint8"
        },
        {
          "name": "_tokens",
          "type": "uint256"
        }
      ],
      "name": "moveTokensForSale",
      "outputs": [],
      "payable": false,
      "stateMutability": "nonpayable",
      "type": "function"
    },
    {
      "constant": true,
      "inputs": [],
      "name": "bnbToken",
      "outputs": [
        {
          "name": "",
          "type": "address"
        }
      ],
      "payable": false,
      "stateMutability": "view",
      "type": "function"
    },
    {
      "constant": true,
      "inputs": [],
      "name": "decimals",
      "outputs": [
        {
          "name": "",
          "type": "uint256"
        }
      ],
      "payable": false,
      "stateMutability": "view",
      "type": "function"
    },
    {
      "constant": true,
      "inputs": [],
      "name": "cap",
      "outputs": [
        {
          "name": "",
          "type": "uint256"
        }
      ],
      "payable": false,
      "stateMutability": "view",
      "type": "function"
    },
    {
      "constant": true,
      "inputs": [],
      "name": "weiRaised",
      "outputs": [
        {
          "name": "",
          "type": "uint256"
        }
      ],
      "payable": false,
      "stateMutability": "view",
      "type": "function"
    },
    {
      "constant": false,
      "inputs": [
        {
          "name": "_price",
          "type": "uint256"
        }
      ],
      "name": "getEtherPrice",
      "outputs": [],
      "payable": false,
      "stateMutability": "nonpayable",
      "type": "function"
    },
    {
      "constant": false,
      "inputs": [],
      "name": "pauseContract",
      "outputs": [],
      "payable": false,
      "stateMutability": "nonpayable",
      "type": "function"
    },
    {
      "constant": false,
      "inputs": [],
      "name": "getTokenPrice",
      "outputs": [],
      "payable": false,
      "stateMutability": "nonpayable",
      "type": "function"
    },
    {
      "constant": true,
      "inputs": [],
      "name": "teamWallet",
      "outputs": [
        {
          "name": "",
          "type": "address"
        }
      ],
      "payable": false,
      "stateMutability": "view",
      "type": "function"
    },
    {
      "constant": false,
      "inputs": [
        {
          "name": "_addresses",
          "type": "address[]"
        },
        {
          "name": "_status",
          "type": "bool"
        }
      ],
      "name": "whitelistAddresses",
      "outputs": [],
      "payable": false,
      "stateMutability": "nonpayable",
      "type": "function"
    },
    {
      "constant": true,
      "inputs": [],
      "name": "totalTokensSold",
      "outputs": [
        {
          "name": "",
          "type": "uint256"
        }
      ],
      "payable": false,
      "stateMutability": "view",
      "type": "function"
    },
    {
      "constant": true,
      "inputs": [],
      "name": "icoEndTime",
      "outputs": [
        {
          "name": "",
          "type": "uint256"
        }
      ],
      "payable": false,
      "stateMutability": "view",
      "type": "function"
    },
    {
      "constant": true,
      "inputs": [],
      "name": "tokenPrice",
      "outputs": [
        {
          "name": "",
          "type": "uint256"
        }
      ],
      "payable": false,
      "stateMutability": "view",
      "type": "function"
    },
    {
      "constant": true,
      "inputs": [],
      "name": "owner",
      "outputs": [
        {
          "name": "",
          "type": "address"
        }
      ],
      "payable": false,
      "stateMutability": "view",
      "type": "function"
    },
    {
      "constant": true,
      "inputs": [],
      "name": "icoStartTime",
      "outputs": [
        {
          "name": "",
          "type": "uint256"
        }
      ],
      "payable": false,
      "stateMutability": "view",
      "type": "function"
    },
    {
      "constant": false,
      "inputs": [],
      "name": "unpauseContract",
      "outputs": [],
      "payable": false,
      "stateMutability": "nonpayable",
      "type": "function"
    },
    {
      "constant": false,
      "inputs": [],
      "name": "buyTokens",
      "outputs": [
        {
          "name": "",
          "type": "uint8"
        }
      ],
      "payable": true,
      "stateMutability": "payable",
      "type": "function"
    },
    {
      "constant": false,
      "inputs": [],
      "name": "RefundWithdrawal",
      "outputs": [
        {
          "name": "success",
          "type": "bool"
        }
      ],
      "payable": false,
      "stateMutability": "nonpayable",
      "type": "function"
    },
    {
      "constant": false,
      "inputs": [
        {
          "name": "newOwner",
          "type": "address"
        }
      ],
      "name": "transferOwnership",
      "outputs": [],
      "payable": false,
      "stateMutability": "nonpayable",
      "type": "function"
    },
    {
      "constant": true,
      "inputs": [],
      "name": "ethPrice",
      "outputs": [
        {
          "name": "",
          "type": "uint256"
        }
      ],
      "payable": false,
      "stateMutability": "view",
      "type": "function"
    },
    {
      "inputs": [
        {
          "name": "_depositWallet",
          "type": "address"
        },
        {
          "name": "_bnbToken",
          "type": "address"
        },
        {
          "name": "_teamWallet",
          "type": "address"
        }
      ],
      "payable": false,
      "stateMutability": "nonpayable",
      "type": "constructor"
    },
    {
      "payable": true,
      "stateMutability": "payable",
      "type": "fallback"
    },
    {
      "anonymous": false,
      "inputs": [
        {
          "indexed": false,
          "name": "_owner",
          "type": "address"
        },
        {
          "indexed": false,
          "name": "_msgsender",
          "type": "address"
        },
        {
          "indexed": false,
          "name": "_qtyOfTokensRequested",
          "type": "uint256"
        }
      ],
      "name": "LogTokensTransferedFrom",
      "type": "event"
    },
    {
      "anonymous": false,
      "inputs": [
        {
          "indexed": false,
          "name": "_buyer",
          "type": "address"
        },
        {
          "indexed": false,
          "name": "_amount",
          "type": "uint256"
        }
      ],
      "name": "LogTokensReserved",
      "type": "event"
    },
    {
      "anonymous": false,
      "inputs": [
        {
          "indexed": false,
          "name": "_investor",
          "type": "address"
        },
        {
          "indexed": false,
          "name": "_amount",
          "type": "uint256"
        }
      ],
      "name": "LogWithdrawal",
      "type": "event"
    },
    {
      "anonymous": false,
      "inputs": [
        {
          "indexed": true,
          "name": "previousOwner",
          "type": "address"
        },
        {
          "indexed": true,
          "name": "newOwner",
          "type": "address"
        }
      ],
      "name": "OwnershipTransferred",
      "type": "event"
    }
  ],
  "bytecode": "0x6060604052341561000f57600080fd5b604051606080611f28833981016040528080519060200190919080519060200190919080519060200190919050506000336000806101000a81548173ffffffffffffffffffffffffffffffffffffffff021916908373ffffffffffffffffffffffffffffffffffffffff16021790555060008473ffffffffffffffffffffffffffffffffffffffff16141515156100a557600080fd5b60008373ffffffffffffffffffffffffffffffffffffffff16141515156100cb57600080fd5b60008273ffffffffffffffffffffffffffffffffffffffff16141515156100f157600080fd5b83600260006101000a81548173ffffffffffffffffffffffffffffffffffffffff021916908373ffffffffffffffffffffffffffffffffffffffff160217905550426003819055506276a700420160048190555081600560006101000a81548173ffffffffffffffffffffffffffffffffffffffff021916908373ffffffffffffffffffffffffffffffffffffffff16021790555082600f60006101000a81548173ffffffffffffffffffffffffffffffffffffffff021916908373ffffffffffffffffffffffffffffffffffffffff160217905550600a600981905550685150ae84a8cdf00000600a8190555033600b60006101000a81548173ffffffffffffffffffffffffffffffffffffffff021916908373ffffffffffffffffffffffffffffffffffffffff16021790555069032d26d12e980b600000600c81905550600090505b600560ff168160ff16101561028f576402540be4006301312d008260ff16026305f5e1000363ffffffff1602601060008360ff1660ff168152602001908152602001600020600001819055508080600101915050610236565b50505050611c86806102a26000396000f300606060405260043610610133576000357c0100000000000000000000000000000000000000000000000000000000900463ffffffff16806305261aea1461019157806309904c00146101b45780631fd8088d14610209578063241849e4146102325780632b17b6a91461026d578063313ce567146102c2578063355274ea146102eb5780634042b66f1461031457806341f199281461033d578063439766ce146103605780634b94f50e14610375578063599270441461038a57806362e7707e146103df57806363b20117146104445780637e1055b61461046d5780637ff9b596146104965780638da5cb5b146104bf578063a7c3d71b14610514578063b33712c51461053d578063d0febe4c14610552578063d1e6503414610576578063f2fde38b146105a3578063ff186b2e146105dc575b600b60009054906101000a900473ffffffffffffffffffffffffffffffffffffffff1673ffffffffffffffffffffffffffffffffffffffff163373ffffffffffffffffffffffffffffffffffffffff1614151561018f57600080fd5b005b341561019c57600080fd5b6101b26004808035906020019091905050610605565b005b34156101bf57600080fd5b6101c7610965565b604051808273ffffffffffffffffffffffffffffffffffffffff1673ffffffffffffffffffffffffffffffffffffffff16815260200191505060405180910390f35b341561021457600080fd5b61021c61098b565b6040518082815260200191505060405180910390f35b341561023d57600080fd5b61026b600480803560ff1690602001909190803560ff16906020019091908035906020019091905050610991565b005b341561027857600080fd5b610280610ab9565b604051808273ffffffffffffffffffffffffffffffffffffffff1673ffffffffffffffffffffffffffffffffffffffff16815260200191505060405180910390f35b34156102cd57600080fd5b6102d5610adf565b6040518082815260200191505060405180910390f35b34156102f657600080fd5b6102fe610ae5565b6040518082815260200191505060405180910390f35b341561031f57600080fd5b610327610aeb565b6040518082815260200191505060405180910390f35b341561034857600080fd5b61035e6004808035906020019091905050610af1565b005b341561036b57600080fd5b610373610b75565b005b341561038057600080fd5b610388610bed565b005b341561039557600080fd5b61039d610c0e565b604051808273ffffffffffffffffffffffffffffffffffffffff1673ffffffffffffffffffffffffffffffffffffffff16815260200191505060405180910390f35b34156103ea57600080fd5b6104426004808035906020019082018035906020019080806020026020016040519081016040528093929190818152602001838360200280828437820191505050505050919080351515906020019091905050610c34565b005b341561044f57600080fd5b610457610cf2565b6040518082815260200191505060405180910390f35b341561047857600080fd5b610480610cf8565b6040518082815260200191505060405180910390f35b34156104a157600080fd5b6104a9610cfe565b6040518082815260200191505060405180910390f35b34156104ca57600080fd5b6104d2610d04565b604051808273ffffffffffffffffffffffffffffffffffffffff1673ffffffffffffffffffffffffffffffffffffffff16815260200191505060405180910390f35b341561051f57600080fd5b610527610d2a565b6040518082815260200191505060405180910390f35b341561054857600080fd5b610550610d30565b005b61055a610da8565b604051808260ff1660ff16815260200191505060405180910390f35b341561058157600080fd5b610589611453565b604051808215151515815260200191505060405180910390f35b34156105ae57600080fd5b6105da600480803573ffffffffffffffffffffffffffffffffffffffff169060200190919050506115ff565b005b34156105e757600080fd5b6105ef611754565b6040518082815260200191505060405180910390f35b600c54600754101580610619575060045442115b8061062b5750600061062961175a565b145b151561063657600080fd5b6000809054906101000a900473ffffffffffffffffffffffffffffffffffffffff1673ffffffffffffffffffffffffffffffffffffffff163373ffffffffffffffffffffffffffffffffffffffff1614151561069157600080fd5b610699611817565b600f60009054906101000a900473ffffffffffffffffffffffffffffffffffffffff1673ffffffffffffffffffffffffffffffffffffffff166323b872dd600b60009054906101000a900473ffffffffffffffffffffffffffffffffffffffff16600260009054906101000a900473ffffffffffffffffffffffffffffffffffffffff1661072561175a565b6000604051602001526040518463ffffffff167c0100000000000000000000000000000000000000000000000000000000028152600401808473ffffffffffffffffffffffffffffffffffffffff1673ffffffffffffffffffffffffffffffffffffffff1681526020018373ffffffffffffffffffffffffffffffffffffffff1673ffffffffffffffffffffffffffffffffffffffff1681526020018281526020019350505050602060405180830381600087803b15156107e557600080fd5b6102c65a03f115156107f657600080fd5b5050506040518051905050600f60009054906101000a900473ffffffffffffffffffffffffffffffffffffffff1673ffffffffffffffffffffffffffffffffffffffff166323b872dd600b60009054906101000a900473ffffffffffffffffffffffffffffffffffffffff16600560009054906101000a900473ffffffffffffffffffffffffffffffffffffffff16846000604051602001526040518463ffffffff167c0100000000000000000000000000000000000000000000000000000000028152600401808473ffffffffffffffffffffffffffffffffffffffff1673ffffffffffffffffffffffffffffffffffffffff1681526020018373ffffffffffffffffffffffffffffffffffffffff1673ffffffffffffffffffffffffffffffffffffffff1681526020018281526020019350505050602060405180830381600087803b151561094657600080fd5b6102c65a03f1151561095757600080fd5b505050604051805190505050565b600260009054906101000a900473ffffffffffffffffffffffffffffffffffffffff1681565b600a5481565b60008060009054906101000a900473ffffffffffffffffffffffffffffffffffffffff1673ffffffffffffffffffffffffffffffffffffffff163373ffffffffffffffffffffffffffffffffffffffff161415156109ee57600080fd5b601060008560ff1660ff16815260200190815260200160002090506001600d60016101000a81548160ff02191690831515021790551515610a2e57600080fd5b8260ff168460ff16111515610a4257600080fd5b610a5d8160020154826000015461189290919063ffffffff16565b8211151515610a6b57600080fd5b610a8282826000015461189290919063ffffffff16565b50610ab282601060008660ff1660ff168152602001908152602001600020600001546118ab90919063ffffffff16565b5050505050565b600f60009054906101000a900473ffffffffffffffffffffffffffffffffffffffff1681565b60095481565b600c5481565b60075481565b6000809054906101000a900473ffffffffffffffffffffffffffffffffffffffff1673ffffffffffffffffffffffffffffffffffffffff163373ffffffffffffffffffffffffffffffffffffffff16141515610b4c57600080fd5b80600881905550600d60009054906101000a900460ff1660080260280160ff1660068190555050565b6000809054906101000a900473ffffffffffffffffffffffffffffffffffffffff1673ffffffffffffffffffffffffffffffffffffffff163373ffffffffffffffffffffffffffffffffffffffff16141515610bd057600080fd5b6001600d60016101000a81548160ff021916908315150217905550565b600d60009054906101000a900460ff1660080260280160ff16600681905550565b600560009054906101000a900473ffffffffffffffffffffffffffffffffffffffff1681565b6000806000809054906101000a900473ffffffffffffffffffffffffffffffffffffffff1673ffffffffffffffffffffffffffffffffffffffff163373ffffffffffffffffffffffffffffffffffffffff16141515610c9257600080fd5b600091505b8351821015610cec578382815181101515610cae57fe5b906020019060200201519050600115158315151415610cd557610cd0816118c9565b610cdf565b610cde81611b6f565b5b8180600101925050610c97565b50505050565b60015481565b60045481565b60065481565b600b60009054906101000a900473ffffffffffffffffffffffffffffffffffffffff1681565b60035481565b6000809054906101000a900473ffffffffffffffffffffffffffffffffffffffff1673ffffffffffffffffffffffffffffffffffffffff163373ffffffffffffffffffffffffffffffffffffffff16141515610d8b57600080fd5b6000600d60016101000a81548160ff021916908315150217905550565b6000806000806000806000806000600c54600754108015610dca575060045442105b8015610ddd57506000610ddb61175a565b115b1515610de857600080fd5b60001515600d60019054906101000a900460ff161515141515610e0a57600080fd5b6000803690501480610e20575060046000369050145b1515610e2b57600080fd5b600e60003373ffffffffffffffffffffffffffffffffffffffff1673ffffffffffffffffffffffffffffffffffffffff168152602001908152602001600020975060106000600d60009054906101000a900460ff1660ff1660ff1681526020019081526020016000209650600060085414151515610ea857600080fd5b600280811115610eb457fe5b8860020160009054906101000a900460ff166002811115610ed157fe5b14151515610ede57600080fd5b67016345785d8a00003410151515610ef557600080fd5b610f50600854610f426103e8610f34600d60009054906101000a900460ff1660080260280160ff16670de0b6b3a7640000611c0c90919063ffffffff16565b611c3f90919063ffffffff16565b611c3f90919063ffffffff16565b9550610f7c6402540be400610f6e8834611c3f90919063ffffffff16565b611c0c90919063ffffffff16565b9350610f998760020154886000015461189290919063ffffffff16565b925082841015156110c757610fe0610fd187610fc36402540be40087611c3f90919063ffffffff16565b611c0c90919063ffffffff16565b3461189290919063ffffffff16565b9150829350600d600081819054906101000a900460ff168092919060010191906101000a81548160ff021916908360ff16021790555050600560ff16600d60009054906101000a900460ff1660ff1610156110815761105f6402540be4006110518885611c0c90919063ffffffff16565b611c0c90919063ffffffff16565b94508484019350848760020160008282540192505081905550600091506110c2565b3373ffffffffffffffffffffffffffffffffffffffff166108fc839081150290604051600060405180830381858888f1935050505015156110c157600080fd5b5b6110da565b8387600201600082825401925050819055505b836001600082825401925050819055506110fd823461189290919063ffffffff16565b905080600760008282540192505081905550600260009054906101000a900473ffffffffffffffffffffffffffffffffffffffff1673ffffffffffffffffffffffffffffffffffffffff166108fc829081150290604051600060405180830381858888f19350505050151561117157600080fd5b8088600001600082825401925050819055506001600281111561119057fe5b8860020160009054906101000a900460ff1660028111156111ad57fe5b14156113b857600f60009054906101000a900473ffffffffffffffffffffffffffffffffffffffff1673ffffffffffffffffffffffffffffffffffffffff166323b872dd600b60009054906101000a900473ffffffffffffffffffffffffffffffffffffffff1633876000604051602001526040518463ffffffff167c0100000000000000000000000000000000000000000000000000000000028152600401808473ffffffffffffffffffffffffffffffffffffffff1673ffffffffffffffffffffffffffffffffffffffff1681526020018373ffffffffffffffffffffffffffffffffffffffff1673ffffffffffffffffffffffffffffffffffffffff1681526020018281526020019350505050602060405180830381600087803b15156112d657600080fd5b6102c65a03f115156112e757600080fd5b50505060405180519050507f5e33aa51243f63fa9ddbcb5ad83c855f19c432c18cd480ee396279eb771505c7600b60009054906101000a900473ffffffffffffffffffffffffffffffffffffffff163386604051808473ffffffffffffffffffffffffffffffffffffffff1673ffffffffffffffffffffffffffffffffffffffff1681526020018373ffffffffffffffffffffffffffffffffffffffff1673ffffffffffffffffffffffffffffffffffffffff168152602001828152602001935050505060405180910390a1611436565b8388600101600082825401925050819055507f6387c93d20b3ff07ec699718ca35c71c5a2a744b6cf874e48db2d3ce8c74db103385604051808373ffffffffffffffffffffffffffffffffffffffff1673ffffffffffffffffffffffffffffffffffffffff1681526020018281526020019250505060405180910390a15b600d60009054906101000a900460ff169850505050505050505090565b6000806000801515600d60019054906101000a900460ff16151514151561147957600080fd5b600c5460075410158061148d575060045442115b8061149f5750600061149d61175a565b145b15156114aa57600080fd5b600e60003373ffffffffffffffffffffffffffffffffffffffff1673ffffffffffffffffffffffffffffffffffffffff1681526020019081526020016000209150600a54600754101515611530576001600281111561150557fe5b8260020160009054906101000a900460ff16600281111561152257fe5b1415151561152f57600080fd5b5b8160000154905060008260000181905550600082600101819055503373ffffffffffffffffffffffffffffffffffffffff166108fc829081150290604051600060405180830381858888f19350505050151561158b57600080fd5b7fb4214c8c54fc7442f36d3682f59aebaf09358a4431835b30efb29d52cf9e1e913382604051808373ffffffffffffffffffffffffffffffffffffffff1673ffffffffffffffffffffffffffffffffffffffff1681526020018281526020019250505060405180910390a160019250505090565b6000809054906101000a900473ffffffffffffffffffffffffffffffffffffffff1673ffffffffffffffffffffffffffffffffffffffff163373ffffffffffffffffffffffffffffffffffffffff1614151561165a57600080fd5b600073ffffffffffffffffffffffffffffffffffffffff168173ffffffffffffffffffffffffffffffffffffffff161415151561169657600080fd5b8073ffffffffffffffffffffffffffffffffffffffff166000809054906101000a900473ffffffffffffffffffffffffffffffffffffffff1673ffffffffffffffffffffffffffffffffffffffff167f8be0079c531659141344cd1fd0a4f28419497f9722a3daafe3b4186f6b6457e060405160405180910390a3806000806101000a81548173ffffffffffffffffffffffffffffffffffffffff021916908373ffffffffffffffffffffffffffffffffffffffff16021790555050565b60085481565b60008060008090505b600560ff168160ff16101561180f57601060008260ff1660ff16815260200190815260200160002060000154601060008360ff1660ff168152602001908152602001600020600201541015611802576117fd601060008360ff1660ff16815260200190815260200160002060020154601060008460ff1660ff1681526020019081526020016000206000015461189290919063ffffffff16565b820191505b8080600101915050611763565b819250505090565b600260009054906101000a900473ffffffffffffffffffffffffffffffffffffffff1673ffffffffffffffffffffffffffffffffffffffff166108fc3073ffffffffffffffffffffffffffffffffffffffff16319081150290604051600060405180830381858888f19350505050151561189057600080fd5b565b60008282111515156118a057fe5b818303905092915050565b60008082840190508381101515156118bf57fe5b8091505092915050565b600080600e60008473ffffffffffffffffffffffffffffffffffffffff1673ffffffffffffffffffffffffffffffffffffffff168152602001908152602001600020915060008373ffffffffffffffffffffffffffffffffffffffff161415151561193357600080fd5b60018260020160006101000a81548160ff0219169083600281111561195457fe5b02179055508160010154905060008260010181905550600f60009054906101000a900473ffffffffffffffffffffffffffffffffffffffff1673ffffffffffffffffffffffffffffffffffffffff166323b872dd600b60009054906101000a900473ffffffffffffffffffffffffffffffffffffffff1685846000604051602001526040518463ffffffff167c0100000000000000000000000000000000000000000000000000000000028152600401808473ffffffffffffffffffffffffffffffffffffffff1673ffffffffffffffffffffffffffffffffffffffff1681526020018373ffffffffffffffffffffffffffffffffffffffff1673ffffffffffffffffffffffffffffffffffffffff1681526020018281526020019350505050602060405180830381600087803b1515611a8d57600080fd5b6102c65a03f11515611a9e57600080fd5b50505060405180519050507f5e33aa51243f63fa9ddbcb5ad83c855f19c432c18cd480ee396279eb771505c7600b60009054906101000a900473ffffffffffffffffffffffffffffffffffffffff163383604051808473ffffffffffffffffffffffffffffffffffffffff1673ffffffffffffffffffffffffffffffffffffffff1681526020018373ffffffffffffffffffffffffffffffffffffffff1673ffffffffffffffffffffffffffffffffffffffff168152602001828152602001935050505060405180910390a1505050565b6000600e60008373ffffffffffffffffffffffffffffffffffffffff1673ffffffffffffffffffffffffffffffffffffffff168152602001908152602001600020905060008273ffffffffffffffffffffffffffffffffffffffff1614151515611bd857600080fd5b60028160020160006101000a81548160ff02191690836002811115611bf957fe5b0217905550600081600101819055505050565b60008082840290506000841480611c2d5750828482811515611c2a57fe5b04145b1515611c3557fe5b8091505092915050565b6000808284811515611c4d57fe5b04905080915050929150505600a165627a7a72305820632406b1242dfe0e245d5440d78966c168f67b9425d1eedb19a1e63b59df70d70029",
  "source": "pragma solidity 0.4.18;\r\n\r\nimport './CBNBToken.sol';\r\nimport './Ownable.sol';\r\nimport './SafeMath.sol';\r\n\r\ncontract CBNBCrowdSale is Ownable{\r\n  using SafeMath for uint256;\r\n\r\n  uint256 constant internal MIN_CONTRIBUTION = 0.1 ether;\r\n  uint256 constant internal TOKEN_DECIMALS = 10**10;\r\n  uint256 constant internal ETH_DECIMALS = 10**18;\r\n  uint8 constant internal TIER_COUNT = 5;\r\n\r\n  uint256 public totalTokensSold;\r\n  address public depositWallet;\r\n  uint256 public icoStartTime;\r\n  uint256 public icoEndTime;\r\n  address public teamWallet;\r\n  uint256 public tokenPrice;\r\n  uint256 public weiRaised;\r\n  uint256 public ethPrice;\r\n  uint256 public decimals;\r\n  uint256 public minLimit;\r\n  address public owner;\r\n  uint256 public cap;\r\n  uint8 private tier;\r\n  bool private paused;\r\n\r\n  enum Status {\r\n    New, Approved, Denied\r\n  }\r\n\r\n  struct Participant {\r\n    uint256 contrAmount; //amount in wei\r\n    uint256 qtyTokens;\r\n    Status whitelistStatus;\r\n  }\r\n\r\n  mapping(address => Participant) participants;\r\n\r\n  //The CryptoBnB token contract\r\n  CBNBToken public bnbToken; \r\n\r\n  /// @dev Sale tiers for Institution-ICO, public Pre-ICO, and ICO\r\n  /// @dev Sets the time of start and finish, it will be time of pushing\r\n  /// @dev to the mainnet plus days/hours etc.\r\n  struct SaleTier {      \r\n    uint256 tokensToBeSold;  //amount of tokens to be sold in this SaleTier\r\n    uint256 price;           //amount of tokens per wei\r\n    uint256 tokensSold;      //amount of tokens sold in each SaleTier     \r\n  }\r\n   \r\n  mapping(uint8 => SaleTier) saleTier;\r\n\r\n  event LogTokensTransferedFrom(address _owner, address _msgsender, uint256 _qtyOfTokensRequested);\r\n  event LogTokensReserved(address _buyer, uint256 _amount);\r\n  event LogWithdrawal(address _investor, uint256 _amount); \r\n \r\n  modifier isValidPayload() {\r\n    require(msg.data.length == 0 || msg.data.length == 4); // double check this one\r\n    _;\r\n  }\r\n\r\n  modifier icoIsActive() {\r\n    require(weiRaised < cap && now < icoEndTime && calculateUnsoldICOTokens() > 0);\r\n    _;\r\n  }\r\n\r\n  modifier icoHasEnded() {\r\n    require(weiRaised >= cap || now > icoEndTime || calculateUnsoldICOTokens() == 0);\r\n    _;\r\n  }\r\n\r\n  modifier pausedContract(){\r\n    require(paused == false);\r\n    _;\r\n  }\r\n\r\n  /// @dev confirm price thresholds and amounts\r\n  ///  depositWallet for holding ether\r\n  ///  bnbToken token address pushed to mainnet first\r\n  function CBNBCrowdSale(address _depositWallet, address _bnbToken, address _teamWallet) \r\n    public \r\n  {\r\n    require(_depositWallet != 0x0);\r\n    require(_bnbToken != 0x0);\r\n    require(_teamWallet != 0x0);     \r\n\r\n    totalTokensSold;\r\n    depositWallet = _depositWallet;\r\n    icoStartTime = now; //pick a block number to start on\r\n    icoEndTime = now + 90 days; //pick a block number to end on\r\n    teamWallet = _teamWallet;\r\n    tokenPrice;\r\n    weiRaised;\r\n    bnbToken = CBNBToken(_bnbToken);    \r\n    decimals = 10;\r\n    minLimit = 1500 ether;\r\n    owner = msg.sender;\r\n    cap = 15000 ether;\r\n\r\n   for(uint8 i=0; i<TIER_COUNT; i++){ \r\n    saleTier[i].tokensToBeSold = (100000000-(i*20000000))*TOKEN_DECIMALS;\r\n   }\r\n }\r\n\r\n  /// @dev Fallback function.\r\n  /// @dev Reject random ethereum being sent to the contract.\r\n  /// @notice allows for owner to send ethereum to the contract in the event\r\n  /// of a refund\r\n  function()\r\n    public\r\n    payable\r\n  {\r\n    require(msg.sender == owner);\r\n  }\r\n\r\n  ///@notice feels risky\r\n  ///param ethereum price will exclude decimals\r\n  function getEtherPrice(uint256 _price)\r\n    external\r\n    onlyOwner\r\n  {\r\n    ethPrice = _price;\r\n    tokenPrice = 40+(8*tier);\r\n  }\r\n\r\n  function getTokenPrice()\r\n    external\r\n  {\r\n    tokenPrice = 40+(8*tier);\r\n  }\r\n\r\n  /// @notice buyer calls this function to order to get on the list for approval\r\n  /// buyers must send the ethereum with their whitelist application\r\n  function buyTokens()\r\n    external\r\n    payable\r\n    icoIsActive\r\n    pausedContract\r\n    isValidPayload\r\n    \r\n    returns (uint8)\r\n  {\r\n    \r\n    Participant storage participant = participants[msg.sender];\r\n    SaleTier storage tiers = saleTier[tier];\r\n    \r\n    require(ethPrice != 0);\r\n    require(participant.whitelistStatus != Status.Denied);\r\n    require(msg.value >= MIN_CONTRIBUTION);\r\n\r\n    uint256 price = (ETH_DECIMALS.mul(40+(8*tier)).div(1000)).div(ethPrice); //wei per token discluding decimals\r\n    uint256 buyTokensRemainingWei;\r\n    uint256 qtyOfTokensRequested = (msg.value.div(price)).mul(TOKEN_DECIMALS);\r\n    uint256 tierRemainingTokens = tiers.tokensToBeSold.sub(tiers.tokensSold);\r\n    uint256 remainingWei;\r\n    uint256 amount; \r\n    \r\n    if (qtyOfTokensRequested >= tierRemainingTokens){\r\n      remainingWei = msg.value.sub((tierRemainingTokens.div(TOKEN_DECIMALS)).mul(price));\r\n      qtyOfTokensRequested = tierRemainingTokens;\r\n      tier++; \r\n\r\n      if (tier < TIER_COUNT){\r\n        buyTokensRemainingWei = (remainingWei.mul(price)).mul(TOKEN_DECIMALS);\r\n        qtyOfTokensRequested += buyTokensRemainingWei;\r\n        tiers.tokensSold += buyTokensRemainingWei;\r\n        remainingWei = 0;\r\n      } else {\r\n        msg.sender.transfer(remainingWei); \r\n      }\r\n\r\n    } else {\r\n      tiers.tokensSold += qtyOfTokensRequested;\r\n    }\r\n\r\n    totalTokensSold += qtyOfTokensRequested;\r\n    amount = msg.value.sub(remainingWei);\r\n    weiRaised += amount;\r\n    depositWallet.transfer(amount);\r\n\r\n    participant.contrAmount += amount;\r\n\r\n    if(participant.whitelistStatus == Status.Approved){\r\n      bnbToken.transferFrom(owner, msg.sender, qtyOfTokensRequested);\r\n      LogTokensTransferedFrom(owner, msg.sender, qtyOfTokensRequested);     \r\n    } else {\r\n      participant.qtyTokens += qtyOfTokensRequested;\r\n      LogTokensReserved(msg.sender, qtyOfTokensRequested);\r\n    }\r\n\r\n    return tier;\r\n  }\r\n\r\n  /// notice interface for founders to whitelist investors\r\n  ///  addresses array of investors\r\n  ///  tier Number\r\n  ///  status enable or disable\r\n  function whitelistAddresses(address[] _addresses, bool _status) \r\n    public \r\n    onlyOwner \r\n    {\r\n        for (uint256 i = 0; i < _addresses.length; i++) {\r\n            address investorAddress = _addresses[i];\r\n            if(_status == true){\r\n                approvedWhitelistAddress(investorAddress); \r\n            } else {\r\n                deniedWhitelistAddress(investorAddress);  \r\n            } \r\n        }\r\n   }\r\n\r\n  /// notice sends requested tokens to the whitelist person\r\n  function approvedWhitelistAddress(address _investorAddress) \r\n    internal\r\n  {\r\n    Participant storage participant = participants[_investorAddress];\r\n    require(_investorAddress != 0x0);\r\n    participant.whitelistStatus = Status.Approved;\r\n    uint256 tkns = participant.qtyTokens;\r\n    participant.qtyTokens = 0;\r\n    bnbToken.transferFrom(owner, _investorAddress, tkns);\r\n    LogTokensTransferedFrom(owner, msg.sender, tkns);\r\n  }\r\n\r\n  /// @notice allows denied buyers the ability to get their Ethereum back\r\n  function deniedWhitelistAddress(address _investorAddress) \r\n    internal \r\n  {\r\n    Participant storage participant = participants[_investorAddress];\r\n    require(_investorAddress != 0x0);\r\n    participant.whitelistStatus = Status.Denied;\r\n    participant.qtyTokens = 0;     \r\n  }\r\n\r\n  /// @notice used to move tokens from the later tiers into the earlier tiers\r\n  /// contract must be paused to do the move\r\n  /// param tier from later tier to subtract the tokens from\r\n  /// param tier to add the tokens to\r\n  /// param how many tokens to take\r\n  function moveTokensForSale(uint8 _tierFrom, uint8 _tierTo, uint256 _tokens) \r\n    public\r\n    onlyOwner\r\n  {\r\n    SaleTier storage tiers = saleTier[_tierFrom];\r\n    require(paused = true);\r\n    require(_tierFrom > _tierTo);\r\n    require(_tokens <= ((tiers.tokensToBeSold).sub(tiers.tokensSold)));\r\n\r\n    tiers.tokensToBeSold.sub(_tokens);\r\n    saleTier[_tierTo].tokensToBeSold.add(_tokens);\r\n  }\r\n\r\n  /// @notice pause specific funtions of the contract\r\n  function pauseContract() public onlyOwner {\r\n    paused = true;\r\n  }\r\n\r\n  /// @notice to unpause functions\r\n  function unpauseContract() public onlyOwner {\r\n    paused = false;\r\n  }      \r\n\r\n  /// @notice users can withdraw the wei etheum sent\r\n  /// used for refund process incase not enough funds raised\r\n  /// or denied in the approval process\r\n  /// @notice no ethereum will be held in the crowdsale contract\r\n  /// when refunds become available the amount of Ethererum needed will\r\n  /// be manually transfered back to the crowdsale to be refunded\r\n  function RefundWithdrawal()\r\n    external\r\n    pausedContract\r\n    icoHasEnded\r\n    returns (bool success)\r\n  {\r\n    Participant storage participant = participants[msg.sender];\r\n    if(weiRaised >= minLimit){\r\n      require(participant.whitelistStatus != Status.Approved);\r\n    }\r\n\r\n    uint256 sendValue = participant.contrAmount;\r\n    participant.contrAmount = 0;\r\n    participant.qtyTokens = 0;\r\n    msg.sender.transfer(sendValue);\r\n  \r\n    LogWithdrawal(msg.sender, sendValue);\r\n    return true;\r\n  }\r\n\r\n  /// @dev freeze unsold tokens for use at a later time\r\n  /// and transfer team, owner and other internally promised tokens\r\n  /// param total number of tokens being transfered to the freeze wallet\r\n  function finalize(uint256 _internalTokens)\r\n    public\r\n    icoHasEnded\r\n    onlyOwner\r\n  {\r\n    cleanup();\r\n    bnbToken.transferFrom(owner, depositWallet, calculateUnsoldICOTokens());\r\n    bnbToken.transferFrom(owner, teamWallet, _internalTokens);   \r\n  }\r\n  \r\n  /// @notice Transfer any ethereum accidentally left in this contract \r\n  function cleanup()\r\n    internal\r\n  {\r\n    depositWallet.transfer(this.balance);\r\n  }\r\n\r\n  /// @notice calculate unsold tokens for transfer to depositWallet to be used at a later date\r\n  function calculateUnsoldICOTokens()\r\n    view\r\n    internal\r\n    returns (uint256)\r\n  {\r\n    uint256 remainingTokens;\r\n    for(uint8 i = 0; i < TIER_COUNT; i++){\r\n      if(saleTier[i].tokensSold < saleTier[i].tokensToBeSold){\r\n        remainingTokens += saleTier[i].tokensToBeSold.sub(saleTier[i].tokensSold);\r\n      }\r\n    }\r\n    return remainingTokens;\r\n  }\r\n}",
  "sourcePath": "D:\\Projects\\CryptoBNB\\contracts\\CBNBCrowdSale.sol",
  "compiler": {
    "name": "solc",
    "version": "0.4.18+commit.9cf6e910.Emscripten.clang"
  },
  "schemaVersion": "1.0.1",
  "updatedAt": "2018-01-22T00:29:37.996Z"
}