{
  "contractName": "CBNBCrowdSale",
  "abi": [
    {
      "constant": false,
      "inputs": [
        {
          "name": "_internalTokens",
          "type": "uint256"
        }
      ],
      "name": "finalize",
      "outputs": [],
      "payable": false,
      "type": "function",
      "stateMutability": "nonpayable"
    },
    {
      "constant": true,
      "inputs": [],
      "name": "depositWallet",
      "outputs": [
        {
          "name": "",
          "type": "address"
        }
      ],
      "payable": false,
      "type": "function",
      "stateMutability": "view"
    },
    {
      "constant": true,
      "inputs": [
        {
          "name": "_tierFrom",
          "type": "uint8"
        },
        {
          "name": "_tierTo",
          "type": "uint8"
        },
        {
          "name": "_tokens",
          "type": "uint256"
        }
      ],
      "name": "minLimit",
      "outputs": [
        {
          "name": "",
          "type": "uint256"
        }
      ],
      "payable": false,
      "type": "function",
      "stateMutability": "view"
    },
    {
      "constant": false,
      "inputs": [
        {
          "name": "_tierFrom",
          "type": "uint8"
        },
        {
          "name": "_tierTo",
          "type": "uint8"
        },
        {
          "name": "_tokens",
          "type": "uint256"
        }
      ],
      "name": "moveTokensForSale",
      "outputs": [
        {
          "name": "",
          "type": "address"
        }
      ],
      "payable": false,
      "type": "function",
      "stateMutability": "nonpayable"
    },
    {
      "constant": true,
      "inputs": [],
      "name": "bnbToken",
      "outputs": [
        {
          "name": "",
          "type": "address"
        }
      ],
      "payable": false,
      "type": "function",
      "stateMutability": "view"
    },
    {
      "constant": true,
      "inputs": [],
      "name": "decimals",
      "outputs": [
        {
          "name": "",
          "type": "uint256"
        }
      ],
      "payable": false,
      "type": "function",
      "stateMutability": "view"
    },
    {
      "constant": true,
      "inputs": [],
      "name": "cap",
      "outputs": [
        {
          "name": "",
          "type": "uint256"
        }
      ],
      "payable": false,
      "type": "function",
      "stateMutability": "view"
    },
    {
      "constant": true,
      "inputs": [],
      "name": "weiRaised",
      "outputs": [
        {
          "name": "",
          "type": "uint256"
        }
      ],
      "payable": false,
      "type": "function",
      "stateMutability": "view"
    },
    {
      "constant": false,
      "inputs": [
        {
          "name": "_price",
          "type": "uint256"
        }
      ],
      "name": "getEtherPrice",
      "outputs": [
        {
          "name": "",
          "type": "address"
        }
      ],
      "payable": false,
      "type": "function",
      "stateMutability": "nonpayable"
    },
    {
      "constant": false,
      "inputs": [],
      "name": "pauseContract",
      "outputs": [
        {
          "name": "",
          "type": "address"
        }
      ],
      "payable": false,
      "type": "function",
      "stateMutability": "nonpayable"
    },
    {
      "constant": true,
      "inputs": [
        {
          "name": "_addresses",
          "type": "address[]"
        },
        {
          "name": "_status",
          "type": "bool"
        }
      ],
      "name": "teamWallet",
      "outputs": [
        {
          "name": "",
          "type": "address"
        }
      ],
      "payable": false,
      "type": "function",
      "stateMutability": "view"
    },
    {
      "constant": false,
      "inputs": [
        {
          "name": "_addresses",
          "type": "address[]"
        },
        {
          "name": "_status",
          "type": "bool"
        }
      ],
      "name": "whitelistAddresses",
      "outputs": [
        {
          "name": "",
          "type": "uint256"
        }
      ],
      "payable": false,
      "type": "function",
      "stateMutability": "nonpayable"
    },
    {
      "constant": true,
      "inputs": [],
      "name": "icoEndTime",
      "outputs": [
        {
          "name": "",
          "type": "uint256"
        }
      ],
      "payable": false,
      "type": "function",
      "stateMutability": "view"
    },
    {
      "constant": true,
      "inputs": [],
      "name": "owner",
      "outputs": [
        {
          "name": "",
          "type": "address"
        }
      ],
      "payable": false,
      "type": "function",
      "stateMutability": "view"
    },
    {
      "constant": true,
      "inputs": [],
      "name": "icoStartTime",
      "outputs": [
        {
          "name": "",
          "type": "uint256"
        }
      ],
      "payable": false,
      "type": "function",
      "stateMutability": "view"
    },
    {
      "constant": false,
      "inputs": [],
      "name": "unpauseContract",
      "outputs": [
        {
          "name": "",
          "type": "uint8"
        }
      ],
      "payable": false,
      "type": "function",
      "stateMutability": "nonpayable"
    },
    {
      "constant": false,
      "inputs": [],
      "name": "buyTokens",
      "outputs": [
        {
          "name": "",
          "type": "uint8"
        }
      ],
      "payable": true,
      "type": "function",
      "stateMutability": "payable"
    },
    {
      "constant": false,
      "inputs": [
        {
          "name": "newOwner",
          "type": "address"
        }
      ],
      "name": "RefundWithdrawal",
      "outputs": [
        {
          "name": "success",
          "type": "bool"
        }
      ],
      "payable": false,
      "type": "function",
      "stateMutability": "nonpayable"
    },
    {
      "inputs": [
        {
          "name": "newOwner",
          "type": "address"
        },
        {
          "name": "_bnbToken",
          "type": "address"
        },
        {
          "name": "_teamWallet",
          "type": "address"
        }
      ],
      "payable": false,
      "type": "function",
      "stateMutability": "nonpayable",
      "constant": false,
      "name": "transferOwnership",
      "outputs": []
    },
    {
      "payable": false,
      "type": "function",
      "stateMutability": "view",
      "constant": true,
      "inputs": [],
      "name": "ethPrice",
      "outputs": [
        {
          "name": "",
          "type": "uint256"
        }
      ]
    },
    {
      "anonymous": false,
      "inputs": [
        {
          "indexed": false,
          "name": "_depositWallet",
          "type": "address"
        },
        {
          "indexed": false,
          "name": "_bnbToken",
          "type": "address"
        },
        {
          "indexed": false,
          "name": "_teamWallet",
          "type": "address"
        }
      ],
      "name": "LogTokensTransferedFrom",
      "type": "constructor",
      "payable": false,
      "stateMutability": "nonpayable"
    },
    {
      "anonymous": false,
      "inputs": [
        {
          "indexed": false,
          "name": "_buyer",
          "type": "address"
        },
        {
          "indexed": false,
          "name": "_amount",
          "type": "uint256"
        }
      ],
      "name": "LogTokensReserved",
      "type": "fallback",
      "payable": true,
      "stateMutability": "payable"
    },
    {
      "anonymous": false,
      "inputs": [
        {
          "indexed": false,
          "name": "_owner",
          "type": "address"
        },
        {
          "indexed": false,
          "name": "_msgsender",
          "type": "address"
        },
        {
          "indexed": false,
          "name": "_qtyOfTokensRequested",
          "type": "uint256"
        }
      ],
      "name": "LogTokensTransferedFrom",
      "type": "event"
    },
    {
      "anonymous": false,
      "inputs": [
        {
          "indexed": false,
          "name": "_buyer",
          "type": "address"
        },
        {
          "indexed": false,
          "name": "_amount",
          "type": "uint256"
        }
      ],
      "name": "LogTokensReserved",
      "type": "event"
    },
    {
      "anonymous": false,
      "inputs": [
        {
          "indexed": false,
          "name": "_investor",
          "type": "address"
        },
        {
          "indexed": false,
          "name": "_amount",
          "type": "uint256"
        }
      ],
      "name": "LogWithdrawal",
      "type": "event"
    },
    {
      "anonymous": false,
      "inputs": [
        {
          "indexed": true,
          "name": "previousOwner",
          "type": "address"
        },
        {
          "indexed": true,
          "name": "newOwner",
          "type": "address"
        }
      ],
      "name": "OwnershipTransferred",
      "type": "event"
    }
  ],
  "bytecode": "0x6060604052341561000f57600080fd5b6040516060806120fe833981016040528080519060200190919080519060200190919080519060200190919050506000336000806101000a81548173ffffffffffffffffffffffffffffffffffffffff021916908373ffffffffffffffffffffffffffffffffffffffff16021790555060008473ffffffffffffffffffffffffffffffffffffffff16141515156100a557600080fd5b60008373ffffffffffffffffffffffffffffffffffffffff16141515156100cb57600080fd5b60008273ffffffffffffffffffffffffffffffffffffffff16141515156100f157600080fd5b83600160006101000a81548173ffffffffffffffffffffffffffffffffffffffff021916908373ffffffffffffffffffffffffffffffffffffffff16021790555042600281905550624f1a00420160038190555081600460006101000a81548173ffffffffffffffffffffffffffffffffffffffff021916908373ffffffffffffffffffffffffffffffffffffffff160217905550600060058190555082600d60006101000a81548173ffffffffffffffffffffffffffffffffffffffff021916908373ffffffffffffffffffffffffffffffffffffffff160217905550600a60078190555069010f0cf064dd5920000060088190555033600960006101000a81548173ffffffffffffffffffffffffffffffffffffffff021916908373ffffffffffffffffffffffffffffffffffffffff16021790555069032d26d12e980b600000600a81905550600090505b600560ff168160ff161015610298576402540be4006301312d008260ff16026305f5e1000363ffffffff1602600e60008360ff1660ff16815260200190815260200160002060000181905550808060010191505061023f565b50505050611e53806102ab6000396000f300606060405260043610610112576000357c0100000000000000000000000000000000000000000000000000000000900463ffffffff16806305261aea1461017057806309904c00146101935780631fd8088d146101e8578063241849e4146102115780632b17b6a91461024c578063313ce567146102a1578063355274ea146102ca5780634042b66f146102f357806341f199281461031c578063439766ce1461033f578063599270441461035457806362e7707e146103a95780637e1055b61461040e5780638da5cb5b14610437578063a7c3d71b1461048c578063b33712c5146104b5578063d0febe4c146104ca578063d1e65034146104ee578063f2fde38b1461051b578063ff186b2e14610554575b600960009054906101000a900473ffffffffffffffffffffffffffffffffffffffff1673ffffffffffffffffffffffffffffffffffffffff163373ffffffffffffffffffffffffffffffffffffffff1614151561016e57600080fd5b005b341561017b57600080fd5b610191600480803590602001909190505061057d565b005b341561019e57600080fd5b6101a66108dd565b604051808273ffffffffffffffffffffffffffffffffffffffff1673ffffffffffffffffffffffffffffffffffffffff16815260200191505060405180910390f35b34156101f357600080fd5b6101fb610903565b6040518082815260200191505060405180910390f35b341561021c57600080fd5b61024a600480803560ff1690602001909190803560ff16906020019091908035906020019091905050610909565b005b341561025757600080fd5b61025f610a5b565b604051808273ffffffffffffffffffffffffffffffffffffffff1673ffffffffffffffffffffffffffffffffffffffff16815260200191505060405180910390f35b34156102ac57600080fd5b6102b4610a81565b6040518082815260200191505060405180910390f35b34156102d557600080fd5b6102dd610a87565b6040518082815260200191505060405180910390f35b34156102fe57600080fd5b610306610a8d565b6040518082815260200191505060405180910390f35b341561032757600080fd5b61033d6004808035906020019091905050610a93565b005b341561034a57600080fd5b610352610af8565b005b341561035f57600080fd5b610367610b70565b604051808273ffffffffffffffffffffffffffffffffffffffff1673ffffffffffffffffffffffffffffffffffffffff16815260200191505060405180910390f35b34156103b457600080fd5b61040c6004808035906020019082018035906020019080806020026020016040519081016040528093929190818152602001838360200280828437820191505050505050919080351515906020019091905050610b96565b005b341561041957600080fd5b610421610c54565b6040518082815260200191505060405180910390f35b341561044257600080fd5b61044a610c5a565b604051808273ffffffffffffffffffffffffffffffffffffffff1673ffffffffffffffffffffffffffffffffffffffff16815260200191505060405180910390f35b341561049757600080fd5b61049f610c80565b6040518082815260200191505060405180910390f35b34156104c057600080fd5b6104c8610c86565b005b6104d2610cfe565b604051808260ff1660ff16815260200191505060405180910390f35b34156104f957600080fd5b6105016114bd565b604051808215151515815260200191505060405180910390f35b341561052657600080fd5b610552600480803573ffffffffffffffffffffffffffffffffffffffff1690602001909190505061171e565b005b341561055f57600080fd5b610567611873565b6040518082815260200191505060405180910390f35b600a54600554101580610591575060035442115b806105a3575060006105a1611879565b145b15156105ae57600080fd5b6000809054906101000a900473ffffffffffffffffffffffffffffffffffffffff1673ffffffffffffffffffffffffffffffffffffffff163373ffffffffffffffffffffffffffffffffffffffff1614151561060957600080fd5b610611611936565b600d60009054906101000a900473ffffffffffffffffffffffffffffffffffffffff1673ffffffffffffffffffffffffffffffffffffffff166323b872dd600960009054906101000a900473ffffffffffffffffffffffffffffffffffffffff16600160009054906101000a900473ffffffffffffffffffffffffffffffffffffffff1661069d611879565b6000604051602001526040518463ffffffff167c0100000000000000000000000000000000000000000000000000000000028152600401808473ffffffffffffffffffffffffffffffffffffffff1673ffffffffffffffffffffffffffffffffffffffff1681526020018373ffffffffffffffffffffffffffffffffffffffff1673ffffffffffffffffffffffffffffffffffffffff1681526020018281526020019350505050602060405180830381600087803b151561075d57600080fd5b6102c65a03f1151561076e57600080fd5b5050506040518051905050600d60009054906101000a900473ffffffffffffffffffffffffffffffffffffffff1673ffffffffffffffffffffffffffffffffffffffff166323b872dd600960009054906101000a900473ffffffffffffffffffffffffffffffffffffffff16600460009054906101000a900473ffffffffffffffffffffffffffffffffffffffff16846000604051602001526040518463ffffffff167c0100000000000000000000000000000000000000000000000000000000028152600401808473ffffffffffffffffffffffffffffffffffffffff1673ffffffffffffffffffffffffffffffffffffffff1681526020018373ffffffffffffffffffffffffffffffffffffffff1673ffffffffffffffffffffffffffffffffffffffff1681526020018281526020019350505050602060405180830381600087803b15156108be57600080fd5b6102c65a03f115156108cf57600080fd5b505050604051805190505050565b600160009054906101000a900473ffffffffffffffffffffffffffffffffffffffff1681565b60085481565b6000809054906101000a900473ffffffffffffffffffffffffffffffffffffffff1673ffffffffffffffffffffffffffffffffffffffff163373ffffffffffffffffffffffffffffffffffffffff1614151561096457600080fd5b6001600b60016101000a81548160ff0219169083151502179055151561098957600080fd5b8160ff168360ff1611151561099d57600080fd5b6109e8600e60008560ff1660ff16815260200190815260200160002060020154600e60008660ff1660ff168152602001908152602001600020600001546119b190919063ffffffff16565b81111515156109f657600080fd5b610a2581600e60008660ff1660ff168152602001908152602001600020600001546119b190919063ffffffff16565b50610a5581600e60008560ff1660ff168152602001908152602001600020600001546119ca90919063ffffffff16565b50505050565b600d60009054906101000a900473ffffffffffffffffffffffffffffffffffffffff1681565b60075481565b600a5481565b60055481565b6000809054906101000a900473ffffffffffffffffffffffffffffffffffffffff1673ffffffffffffffffffffffffffffffffffffffff163373ffffffffffffffffffffffffffffffffffffffff16141515610aee57600080fd5b8060068190555050565b6000809054906101000a900473ffffffffffffffffffffffffffffffffffffffff1673ffffffffffffffffffffffffffffffffffffffff163373ffffffffffffffffffffffffffffffffffffffff16141515610b5357600080fd5b6001600b60016101000a81548160ff021916908315150217905550565b600460009054906101000a900473ffffffffffffffffffffffffffffffffffffffff1681565b6000806000809054906101000a900473ffffffffffffffffffffffffffffffffffffffff1673ffffffffffffffffffffffffffffffffffffffff163373ffffffffffffffffffffffffffffffffffffffff16141515610bf457600080fd5b600091505b8351821015610c4e578382815181101515610c1057fe5b906020019060200201519050600115158315151415610c3757610c32816119e8565b610c41565b610c4081611d04565b5b8180600101925050610bf9565b50505050565b60035481565b600960009054906101000a900473ffffffffffffffffffffffffffffffffffffffff1681565b60025481565b6000809054906101000a900473ffffffffffffffffffffffffffffffffffffffff1673ffffffffffffffffffffffffffffffffffffffff163373ffffffffffffffffffffffffffffffffffffffff16141515610ce157600080fd5b6000600b60016101000a81548160ff021916908315150217905550565b6000806000806000806000600a54600554108015610d1d575060035442105b8015610d3057506000610d2e611879565b115b1515610d3b57600080fd5b60001515600b60019054906101000a900460ff161515141515610d5d57600080fd5b6000803690501480610d73575060046000369050145b1515610d7e57600080fd5b600060065414151515610d9057600080fd5b600280811115610d9c57fe5b600c60003373ffffffffffffffffffffffffffffffffffffffff1673ffffffffffffffffffffffffffffffffffffffff16815260200190815260200160002060020160009054906101000a900460ff166002811115610df757fe5b14151515610e0457600080fd5b67016345785d8a00003410151515610e1b57600080fd5b610e76600654610e686103e8610e5a600b60009054906101000a900460ff1660080260280160ff16670de0b6b3a7640000611dd990919063ffffffff16565b611e0c90919063ffffffff16565b611e0c90919063ffffffff16565b9550610ea26402540be400610e948834611e0c90919063ffffffff16565b611dd990919063ffffffff16565b9350610f0d600e6000600b60009054906101000a900460ff1660ff1660ff16815260200190815260200160002060020154600e6000600b60009054906101000a900460ff1660ff1660ff168152602001908152602001600020600001546119b190919063ffffffff16565b9250828410151561106257610f54610f4587610f376402540be40087611e0c90919063ffffffff16565b611dd990919063ffffffff16565b346119b190919063ffffffff16565b9150829350600b600081819054906101000a900460ff168092919060010191906101000a81548160ff021916908360ff16021790555050600560ff16600b60009054906101000a900460ff1660ff16101561101c57610fd36402540be400610fc58885611dd990919063ffffffff16565b611dd990919063ffffffff16565b9450848401935084600e6000600b60009054906101000a900460ff1660ff1660ff168152602001908152602001600020600201600082825401925050819055506000915061105d565b3373ffffffffffffffffffffffffffffffffffffffff166108fc839081150290604051600060405180830381858888f19350505050151561105c57600080fd5b5b61109c565b83600e6000600b60009054906101000a900460ff1660ff1660ff168152602001908152602001600020600201600082825401925050819055505b6110af82346119b190919063ffffffff16565b905080600560008282540192505081905550600160009054906101000a900473ffffffffffffffffffffffffffffffffffffffff1673ffffffffffffffffffffffffffffffffffffffff166108fc829081150290604051600060405180830381858888f19350505050151561112357600080fd5b80600c60003373ffffffffffffffffffffffffffffffffffffffff1673ffffffffffffffffffffffffffffffffffffffff168152602001908152602001600020600001600082825401925050819055506001600281111561118057fe5b600c60003373ffffffffffffffffffffffffffffffffffffffff1673ffffffffffffffffffffffffffffffffffffffff16815260200190815260200160002060020160009054906101000a900460ff1660028111156111db57fe5b14156113e657600d60009054906101000a900473ffffffffffffffffffffffffffffffffffffffff1673ffffffffffffffffffffffffffffffffffffffff166323b872dd600960009054906101000a900473ffffffffffffffffffffffffffffffffffffffff1633876000604051602001526040518463ffffffff167c0100000000000000000000000000000000000000000000000000000000028152600401808473ffffffffffffffffffffffffffffffffffffffff1673ffffffffffffffffffffffffffffffffffffffff1681526020018373ffffffffffffffffffffffffffffffffffffffff1673ffffffffffffffffffffffffffffffffffffffff1681526020018281526020019350505050602060405180830381600087803b151561130457600080fd5b6102c65a03f1151561131557600080fd5b50505060405180519050507f5e33aa51243f63fa9ddbcb5ad83c855f19c432c18cd480ee396279eb771505c7600960009054906101000a900473ffffffffffffffffffffffffffffffffffffffff163386604051808473ffffffffffffffffffffffffffffffffffffffff1673ffffffffffffffffffffffffffffffffffffffff1681526020018373ffffffffffffffffffffffffffffffffffffffff1673ffffffffffffffffffffffffffffffffffffffff168152602001828152602001935050505060405180910390a16114a2565b83600c60003373ffffffffffffffffffffffffffffffffffffffff1673ffffffffffffffffffffffffffffffffffffffff168152602001908152602001600020600101600082825401925050819055507f6387c93d20b3ff07ec699718ca35c71c5a2a744b6cf874e48db2d3ce8c74db103385604051808373ffffffffffffffffffffffffffffffffffffffff1673ffffffffffffffffffffffffffffffffffffffff1681526020018281526020019250505060405180910390a15b600b60009054906101000a900460ff16965050505050505090565b60008060001515600b60019054906101000a900460ff1615151415156114e257600080fd5b600a546005541015806114f6575060035442115b8061150857506000611506611879565b145b151561151357600080fd5b600854600554101515611596576001600281111561152d57fe5b600c60003373ffffffffffffffffffffffffffffffffffffffff1673ffffffffffffffffffffffffffffffffffffffff16815260200190815260200160002060020160009054906101000a900460ff16600281111561158857fe5b1415151561159557600080fd5b5b600c60003373ffffffffffffffffffffffffffffffffffffffff1673ffffffffffffffffffffffffffffffffffffffff1681526020019081526020016000206000015490506000600c60003373ffffffffffffffffffffffffffffffffffffffff1673ffffffffffffffffffffffffffffffffffffffff168152602001908152602001600020600001819055506000600c60003373ffffffffffffffffffffffffffffffffffffffff1673ffffffffffffffffffffffffffffffffffffffff168152602001908152602001600020600101819055503373ffffffffffffffffffffffffffffffffffffffff166108fc829081150290604051600060405180830381858888f1935050505015156116ab57600080fd5b7fb4214c8c54fc7442f36d3682f59aebaf09358a4431835b30efb29d52cf9e1e913382604051808373ffffffffffffffffffffffffffffffffffffffff1673ffffffffffffffffffffffffffffffffffffffff1681526020018281526020019250505060405180910390a1600191505090565b6000809054906101000a900473ffffffffffffffffffffffffffffffffffffffff1673ffffffffffffffffffffffffffffffffffffffff163373ffffffffffffffffffffffffffffffffffffffff1614151561177957600080fd5b600073ffffffffffffffffffffffffffffffffffffffff168173ffffffffffffffffffffffffffffffffffffffff16141515156117b557600080fd5b8073ffffffffffffffffffffffffffffffffffffffff166000809054906101000a900473ffffffffffffffffffffffffffffffffffffffff1673ffffffffffffffffffffffffffffffffffffffff167f8be0079c531659141344cd1fd0a4f28419497f9722a3daafe3b4186f6b6457e060405160405180910390a3806000806101000a81548173ffffffffffffffffffffffffffffffffffffffff021916908373ffffffffffffffffffffffffffffffffffffffff16021790555050565b60065481565b60008060008090505b600560ff168160ff16101561192e57600e60008260ff1660ff16815260200190815260200160002060000154600e60008360ff1660ff1681526020019081526020016000206002015410156119215761191c600e60008360ff1660ff16815260200190815260200160002060020154600e60008460ff1660ff168152602001908152602001600020600001546119b190919063ffffffff16565b820191505b8080600101915050611882565b819250505090565b600160009054906101000a900473ffffffffffffffffffffffffffffffffffffffff1673ffffffffffffffffffffffffffffffffffffffff166108fc3073ffffffffffffffffffffffffffffffffffffffff16319081150290604051600060405180830381858888f1935050505015156119af57600080fd5b565b60008282111515156119bf57fe5b818303905092915050565b60008082840190508381101515156119de57fe5b8091505092915050565b6000808273ffffffffffffffffffffffffffffffffffffffff1614151515611a0f57600080fd5b6001600c60008473ffffffffffffffffffffffffffffffffffffffff1673ffffffffffffffffffffffffffffffffffffffff16815260200190815260200160002060020160006101000a81548160ff02191690836002811115611a6e57fe5b0217905550600c60008373ffffffffffffffffffffffffffffffffffffffff1673ffffffffffffffffffffffffffffffffffffffff1681526020019081526020016000206001015490506000600c60008473ffffffffffffffffffffffffffffffffffffffff1673ffffffffffffffffffffffffffffffffffffffff16815260200190815260200160002060010181905550600d60009054906101000a900473ffffffffffffffffffffffffffffffffffffffff1673ffffffffffffffffffffffffffffffffffffffff166323b872dd600960009054906101000a900473ffffffffffffffffffffffffffffffffffffffff1684846000604051602001526040518463ffffffff167c0100000000000000000000000000000000000000000000000000000000028152600401808473ffffffffffffffffffffffffffffffffffffffff1673ffffffffffffffffffffffffffffffffffffffff1681526020018373ffffffffffffffffffffffffffffffffffffffff1673ffffffffffffffffffffffffffffffffffffffff1681526020018281526020019350505050602060405180830381600087803b1515611c2357600080fd5b6102c65a03f11515611c3457600080fd5b50505060405180519050507f5e33aa51243f63fa9ddbcb5ad83c855f19c432c18cd480ee396279eb771505c7600960009054906101000a900473ffffffffffffffffffffffffffffffffffffffff163383604051808473ffffffffffffffffffffffffffffffffffffffff1673ffffffffffffffffffffffffffffffffffffffff1681526020018373ffffffffffffffffffffffffffffffffffffffff1673ffffffffffffffffffffffffffffffffffffffff168152602001828152602001935050505060405180910390a15050565b60008173ffffffffffffffffffffffffffffffffffffffff1614151515611d2a57600080fd5b6002600c60008373ffffffffffffffffffffffffffffffffffffffff1673ffffffffffffffffffffffffffffffffffffffff16815260200190815260200160002060020160006101000a81548160ff02191690836002811115611d8957fe5b02179055506000600c60008373ffffffffffffffffffffffffffffffffffffffff1673ffffffffffffffffffffffffffffffffffffffff1681526020019081526020016000206001018190555050565b60008082840290506000841480611dfa5750828482811515611df757fe5b04145b1515611e0257fe5b8091505092915050565b6000808284811515611e1a57fe5b04905080915050929150505600a165627a7a723058205866e278b2a8ebe7e87b35e7f9176623a113facd74ccad942815278c71128ea10029",
  "source": "pragma solidity 0.4.18;\r\n//version 0.2\r\nimport './CBNBToken.sol';\r\nimport './Ownable.sol';\r\nimport './SafeMath.sol';\r\n\r\ncontract CBNBCrowdSale is Ownable{\r\n  using SafeMath for uint256;\r\n\r\n  uint256 constant internal MIN_CONTRIBUTION = 0.1 ether;\r\n  uint256 constant internal TOKEN_DECIMALS = 10**10;\r\n  uint256 constant internal ETH_DECIMALS = 10**18;\r\n  uint8 constant internal TIER_COUNT = 5;\r\n\r\n  address public depositWallet;\r\n  uint256 public icoStartTime;\r\n  uint256 public icoEndTime;\r\n  address public teamWallet;\r\n  uint256 public weiRaised;\r\n  uint256 public ethPrice;\r\n  uint256 public decimals;\r\n  uint256 public minLimit;\r\n  address public owner;\r\n  uint256 public cap;\r\n  uint8 private tier;\r\n  bool private paused;\r\n\r\n  enum Status {\r\n    New, Approved, Denied\r\n  }\r\n\r\n  struct WhitelistedInvestors {\r\n    uint256 contrAmount; //amount in wei\r\n    uint256 qtyTokens;\r\n    Status whitelistStatus;\r\n  }\r\n\r\n  mapping(address => WhitelistedInvestors) investors;\r\n\r\n  //The CryptoBnB token contract\r\n  CBNBToken public bnbToken; \r\n\r\n  /// @dev Sale tiers for Institution-ICO, public Pre-ICO, and ICO\r\n  /// @dev Sets the time of start and finish, it will be time of pushing\r\n  /// @dev to the mainnet plus days/hours etc.\r\n  struct SaleTier {      \r\n    uint256 tokensToBeSold;  //amount of tokens to be sold in this SaleTier\r\n    uint256 price;           //amount of tokens per wei\r\n    uint256 tokensSold;      //amount of tokens sold in each SaleTier     \r\n  }\r\n   \r\n  mapping(uint8 => SaleTier) saleTier;\r\n\r\n  event LogTokensTransferedFrom(address _owner, address _msgsender, uint256 _qtyOfTokensRequested);\r\n  event LogTokensReserved(address _buyer, uint256 _amount);\r\n  event LogWithdrawal(address _investor, uint256 _amount); \r\n \r\n  modifier isValidPayload() {\r\n    require(msg.data.length == 0 || msg.data.length == 4); // double check this one\r\n    _;\r\n  }\r\n\r\n  modifier icoIsActive() {\r\n    require(weiRaised < cap && now < icoEndTime && calculateUnsoldICOTokens() > 0);\r\n    _;\r\n  }\r\n\r\n  modifier icoHasEnded() {\r\n    require(weiRaised >= cap || now > icoEndTime || calculateUnsoldICOTokens() == 0);\r\n    _;\r\n  }\r\n\r\n  modifier pausedContract(){\r\n    require(paused == false);\r\n    _;\r\n  }\r\n\r\n  /// @dev confirm price thresholds and amounts\r\n  ///  depositWallet for holding ether\r\n  ///  bnbToken token address pushed to mainnet first\r\n  function CBNBCrowdSale(address _depositWallet, address _bnbToken, address _teamWallet) \r\n    public \r\n  {\r\n    require(_depositWallet != 0x0);\r\n    require(_bnbToken != 0x0);\r\n    require(_teamWallet != 0x0);     \r\n\r\n    depositWallet = _depositWallet;\r\n    icoStartTime = now; //pick a block number to start on\r\n    icoEndTime = now + 60 days; //pick a block number to end on\r\n    teamWallet = _teamWallet;\r\n    weiRaised = 0;\r\n    bnbToken = CBNBToken(_bnbToken);    \r\n    decimals = 10;\r\n    minLimit = 5000 ether;\r\n    owner = msg.sender;\r\n    cap = 15000 ether;\r\n\r\n   for(uint8 i=0; i<TIER_COUNT; i++){ \r\n    saleTier[i].tokensToBeSold = (100000000-(i*20000000))*TOKEN_DECIMALS;\r\n   }\r\n }\r\n\r\n  /// @dev Fallback function.\r\n  /// @dev Reject random ethereum being sent to the contract.\r\n  /// @notice allows for owner to send ethereum to the contract in the event\r\n  /// of a refund\r\n  function()\r\n    public\r\n    payable\r\n  {\r\n    require(msg.sender == owner);\r\n  }\r\n\r\n  ///@notice feels risky\r\n  ///param ethereum price will exclude decimals\r\n  function getEtherPrice(uint256 _price)\r\n    external\r\n    onlyOwner\r\n  {\r\n    ethPrice = _price;\r\n  }\r\n\r\n  /// @notice buyer calls this function to order to get on the list for approval\r\n  /// buyers must send the ethereum with their whitelist application\r\n  function buyTokens()\r\n    external\r\n    payable\r\n    icoIsActive\r\n    pausedContract\r\n    isValidPayload\r\n    \r\n    returns (uint8)\r\n  {\r\n    require(ethPrice != 0);\r\n    require(investors[msg.sender].whitelistStatus != Status.Denied);\r\n    require(msg.value >= MIN_CONTRIBUTION);\r\n\r\n    uint256 price = (ETH_DECIMALS.mul(40+(8*tier)).div(1000)).div(ethPrice); //wei per token discluding decimals\r\n    uint256 buyTokensRemainingWei;\r\n    uint256 qtyOfTokensRequested = (msg.value.div(price)).mul(TOKEN_DECIMALS);\r\n    uint256 tierRemainingTokens = saleTier[tier].tokensToBeSold.sub(saleTier[tier].tokensSold);\r\n    uint256 remainingWei;\r\n    uint256 amount; \r\n    \r\n    if (qtyOfTokensRequested >= tierRemainingTokens){\r\n      remainingWei = msg.value.sub((tierRemainingTokens.div(TOKEN_DECIMALS)).mul(price));\r\n      qtyOfTokensRequested = tierRemainingTokens;\r\n      tier++; \r\n\r\n      if (tier < TIER_COUNT){\r\n        buyTokensRemainingWei = (remainingWei.mul(price)).mul(TOKEN_DECIMALS);\r\n        qtyOfTokensRequested += buyTokensRemainingWei;\r\n        saleTier[tier].tokensSold += buyTokensRemainingWei;\r\n        remainingWei = 0;\r\n      } else {\r\n        msg.sender.transfer(remainingWei); \r\n      }\r\n\r\n    } else {\r\n      saleTier[tier].tokensSold += qtyOfTokensRequested;\r\n    }\r\n\r\n    amount = msg.value.sub(remainingWei);\r\n    weiRaised += amount;\r\n    depositWallet.transfer(amount);\r\n\r\n    investors[msg.sender].contrAmount += amount;\r\n\r\n    if(investors[msg.sender].whitelistStatus == Status.Approved){\r\n      bnbToken.transferFrom(owner, msg.sender, qtyOfTokensRequested);\r\n      LogTokensTransferedFrom(owner, msg.sender, qtyOfTokensRequested);     \r\n    } else {\r\n      investors[msg.sender].qtyTokens += qtyOfTokensRequested;\r\n      LogTokensReserved(msg.sender, qtyOfTokensRequested);\r\n    }\r\n\r\n    return tier;\r\n  }\r\n\r\n  /// notice interface for founders to whitelist investors\r\n  ///  addresses array of investors\r\n  ///  tier Number\r\n  ///  status enable or disable\r\n  function whitelistAddresses(address[] _addresses, bool _status) \r\n    public \r\n    onlyOwner \r\n    {\r\n        for (uint256 i = 0; i < _addresses.length; i++) {\r\n            address investorAddress = _addresses[i];\r\n            if(_status == true){\r\n                approvedWhitelistAddress(investorAddress); \r\n            } else {\r\n                deniedWhitelistAddress(investorAddress);  \r\n            } \r\n        }\r\n   }\r\n\r\n  /// notice sends requested tokens to the whitelist person\r\n  function approvedWhitelistAddress(address _investorAddress) \r\n    internal\r\n  {\r\n    require(_investorAddress != 0x0);\r\n    investors[_investorAddress].whitelistStatus = Status.Approved;\r\n    uint256 tkns = investors[_investorAddress].qtyTokens;\r\n    investors[_investorAddress].qtyTokens = 0;\r\n    bnbToken.transferFrom(owner, _investorAddress, tkns);\r\n    LogTokensTransferedFrom(owner, msg.sender, tkns);\r\n  }\r\n\r\n  /// @notice allows denied buyers the ability to get their Ethereum back\r\n  function deniedWhitelistAddress(address _investorAddress) \r\n    internal \r\n  {\r\n    require(_investorAddress != 0x0);\r\n    investors[_investorAddress].whitelistStatus = Status.Denied;\r\n    investors[_investorAddress].qtyTokens = 0;     \r\n  }\r\n\r\n  /// @notice used to move tokens from the later tiers into the earlier tiers\r\n  /// contract must be paused to do the move\r\n  /// param tier from later tier to subtract the tokens from\r\n  /// param tier to add the tokens to\r\n  /// param how many tokens to take\r\n  function moveTokensForSale(uint8 _tierFrom, uint8 _tierTo, uint256 _tokens) \r\n    public\r\n    onlyOwner\r\n  {\r\n    require(paused = true);\r\n    require(_tierFrom > _tierTo);\r\n    require(_tokens <= ((saleTier[_tierFrom].tokensToBeSold).sub(saleTier[_tierFrom].tokensSold)));\r\n\r\n    saleTier[_tierFrom].tokensToBeSold.sub(_tokens);\r\n    saleTier[_tierTo].tokensToBeSold.add(_tokens);\r\n  }\r\n\r\n  /// @notice pause specific funtions of the contract\r\n  function pauseContract() public onlyOwner {\r\n    paused = true;\r\n  }\r\n\r\n  /// @notice to unpause functions\r\n  function unpauseContract() public onlyOwner {\r\n    paused = false;\r\n  }      \r\n\r\n  /// @notice users can withdraw the wei etheum sent\r\n  /// used for refund process incase not enough funds raised\r\n  /// or denied in the approval process\r\n  /// @notice no ethereum will be held in the crowdsale contract\r\n  /// when refunds become available the amount of Ethererum needed will\r\n  /// be manually transfered back to the crowdsale to be refunded\r\n  function RefundWithdrawal()\r\n    external\r\n    pausedContract\r\n    icoHasEnded\r\n    returns (bool success)\r\n  {\r\n    if(weiRaised >= minLimit){\r\n      require(investors[msg.sender].whitelistStatus != Status.Approved);\r\n    }\r\n\r\n    uint256 sendValue = investors[msg.sender].contrAmount;\r\n    investors[msg.sender].contrAmount = 0;\r\n    investors[msg.sender].qtyTokens = 0;\r\n    msg.sender.transfer(sendValue);\r\n  \r\n    LogWithdrawal(msg.sender, sendValue);\r\n    return true;\r\n  }\r\n\r\n  /// @dev freeze unsold tokens for use at a later time\r\n  /// and transfer team, owner and other internally promised tokens\r\n  /// param total number of tokens being transfered to the freeze wallet\r\n  function finalize(uint256 _internalTokens)\r\n    public\r\n    icoHasEnded\r\n    onlyOwner\r\n  {\r\n    cleanup();\r\n    bnbToken.transferFrom(owner, depositWallet, calculateUnsoldICOTokens());\r\n    bnbToken.transferFrom(owner, teamWallet, _internalTokens);   \r\n  }\r\n  \r\n  /// @notice Transfer any ethereum accidentally left in this contract \r\n  function cleanup()\r\n    internal\r\n  {\r\n    depositWallet.transfer(this.balance);\r\n  }\r\n\r\n  /// @notice calculate unsold tokens for transfer to depositWallet to be used at a later date\r\n  function calculateUnsoldICOTokens()\r\n    view\r\n    internal\r\n    returns (uint256)\r\n  {\r\n    uint256 remainingTokens;\r\n    for(uint8 i = 0; i < TIER_COUNT; i++){\r\n      if(saleTier[i].tokensSold < saleTier[i].tokensToBeSold){\r\n        remainingTokens += saleTier[i].tokensToBeSold.sub(saleTier[i].tokensSold);\r\n      }\r\n    }\r\n    return remainingTokens;\r\n  }\r\n}",
  "sourcePath": "D:\\Projects\\CryptoBNB\\contracts\\CBNBCrowdSale.sol",
  "compiler": {
    "name": "solc",
    "version": "0.4.18+commit.9cf6e910.Emscripten.clang"
  },
  "schemaVersion": "1.0.1",
  "updatedAt": "2018-01-13T00:22:44.343Z"
}