{
  "contractName": "CBNBTeamWallet",
  "abi": [
    {
      "constant": true,
      "inputs": [],
      "name": "FREEZE_TIME",
      "outputs": [
        {
          "name": "",
          "type": "uint256"
        }
      ],
      "payable": false,
      "type": "function",
      "stateMutability": "view"
    },
    {
      "constant": true,
      "inputs": [],
      "name": "bnbToken",
      "outputs": [
        {
          "name": "",
          "type": "address"
        }
      ],
      "payable": false,
      "type": "function",
      "stateMutability": "view"
    },
    {
      "constant": true,
      "inputs": [],
      "name": "totalWithdrawn",
      "outputs": [
        {
          "name": "",
          "type": "uint256"
        }
      ],
      "payable": false,
      "type": "function",
      "stateMutability": "view"
    },
    {
      "constant": true,
      "inputs": [],
      "name": "startTime",
      "outputs": [
        {
          "name": "",
          "type": "uint256"
        }
      ],
      "payable": false,
      "type": "function",
      "stateMutability": "view"
    },
    {
      "constant": false,
      "inputs": [],
      "name": "transferTeamTokens",
      "outputs": [
        {
          "name": "success",
          "type": "bool"
        }
      ],
      "payable": false,
      "type": "function",
      "stateMutability": "nonpayable"
    },
    {
      "constant": false,
      "inputs": [
        {
          "name": "_teamMember",
          "type": "address"
        },
        {
          "name": "_tokenAmount",
          "type": "uint256"
        }
      ],
      "name": "addTeamMember",
      "outputs": [
        {
          "name": "success",
          "type": "bool"
        }
      ],
      "payable": false,
      "type": "function",
      "stateMutability": "nonpayable"
    },
    {
      "constant": true,
      "inputs": [],
      "name": "owner",
      "outputs": [
        {
          "name": "",
          "type": "address"
        }
      ],
      "payable": false,
      "type": "function",
      "stateMutability": "view"
    },
    {
      "constant": true,
      "inputs": [],
      "name": "withdrawalAddress",
      "outputs": [
        {
          "name": "",
          "type": "address"
        }
      ],
      "payable": false,
      "type": "function",
      "stateMutability": "view"
    },
    {
      "constant": false,
      "inputs": [
        {
          "name": "newOwner",
          "type": "address"
        }
      ],
      "name": "transferOwnership",
      "outputs": [],
      "payable": false,
      "type": "function",
      "stateMutability": "nonpayable"
    },
    {
      "inputs": [
        {
          "name": "_bnbToken",
          "type": "address"
        }
      ],
      "payable": false,
      "type": "constructor",
      "stateMutability": "nonpayable"
    },
    {
      "anonymous": false,
      "inputs": [
        {
          "indexed": false,
          "name": "_teamMember",
          "type": "address"
        },
        {
          "indexed": false,
          "name": "_tokenAmount",
          "type": "uint256"
        }
      ],
      "name": "LogWithdrawal",
      "type": "event"
    },
    {
      "anonymous": false,
      "inputs": [
        {
          "indexed": true,
          "name": "previousOwner",
          "type": "address"
        },
        {
          "indexed": true,
          "name": "newOwner",
          "type": "address"
        }
      ],
      "name": "OwnershipTransferred",
      "type": "event"
    }
  ],
  "bytecode": "0x6060604052341561000f57600080fd5b6040516020806108dd83398101604052808051906020019091905050336000806101000a81548173ffffffffffffffffffffffffffffffffffffffff021916908373ffffffffffffffffffffffffffffffffffffffff16021790555060008173ffffffffffffffffffffffffffffffffffffffff161415151561009157600080fd5b4260038190555080600260006101000a81548173ffffffffffffffffffffffffffffffffffffffff021916908373ffffffffffffffffffffffffffffffffffffffff160217905550336000806101000a81548173ffffffffffffffffffffffffffffffffffffffff021916908373ffffffffffffffffffffffffffffffffffffffff160217905550506107b4806101296000396000f300606060405260043610610099576000357c0100000000000000000000000000000000000000000000000000000000900463ffffffff1680631a0388731461009e5780632b17b6a9146100c75780634b3197131461011c57806378e97925146101455780638528b5281461016e5780638d13192b1461019b5780638da5cb5b146101f5578063f2bcd0221461024a578063f2fde38b1461029f575b600080fd5b34156100a957600080fd5b6100b16102d8565b6040518082815260200191505060405180910390f35b34156100d257600080fd5b6100da6102e0565b604051808273ffffffffffffffffffffffffffffffffffffffff1673ffffffffffffffffffffffffffffffffffffffff16815260200191505060405180910390f35b341561012757600080fd5b61012f610306565b6040518082815260200191505060405180910390f35b341561015057600080fd5b61015861030c565b6040518082815260200191505060405180910390f35b341561017957600080fd5b610181610312565b604051808215151515815260200191505060405180910390f35b34156101a657600080fd5b6101db600480803573ffffffffffffffffffffffffffffffffffffffff1690602001909190803590602001909190505061051f565b604051808215151515815260200191505060405180910390f35b341561020057600080fd5b6102086105ca565b604051808273ffffffffffffffffffffffffffffffffffffffff1673ffffffffffffffffffffffffffffffffffffffff16815260200191505060405180910390f35b341561025557600080fd5b61025d6105ef565b604051808273ffffffffffffffffffffffffffffffffffffffff1673ffffffffffffffffffffffffffffffffffffffff16815260200191505060405180910390f35b34156102aa57600080fd5b6102d6600480803573ffffffffffffffffffffffffffffffffffffffff16906020019091905050610615565b005b6301e1338081565b600260009054906101000a900473ffffffffffffffffffffffffffffffffffffffff1681565b60045481565b60035481565b60008061032e6301e1338060035461076a90919063ffffffff16565b421015151561033c57600080fd5b600560003373ffffffffffffffffffffffffffffffffffffffff1673ffffffffffffffffffffffffffffffffffffffff1681526020019081526020016000205490506000600560003373ffffffffffffffffffffffffffffffffffffffff1673ffffffffffffffffffffffffffffffffffffffff16815260200190815260200160002081905550600260009054906101000a900473ffffffffffffffffffffffffffffffffffffffff1673ffffffffffffffffffffffffffffffffffffffff1663a9059cbb33836000604051602001526040518363ffffffff167c0100000000000000000000000000000000000000000000000000000000028152600401808373ffffffffffffffffffffffffffffffffffffffff1673ffffffffffffffffffffffffffffffffffffffff16815260200182815260200192505050602060405180830381600087803b151561049057600080fd5b6102c65a03f115156104a157600080fd5b50505060405180519050507fb4214c8c54fc7442f36d3682f59aebaf09358a4431835b30efb29d52cf9e1e913382604051808373ffffffffffffffffffffffffffffffffffffffff1673ffffffffffffffffffffffffffffffffffffffff1681526020018281526020019250505060405180910390a1600191505090565b60008060009054906101000a900473ffffffffffffffffffffffffffffffffffffffff1673ffffffffffffffffffffffffffffffffffffffff163373ffffffffffffffffffffffffffffffffffffffff1614151561057c57600080fd5b81600560008573ffffffffffffffffffffffffffffffffffffffff1673ffffffffffffffffffffffffffffffffffffffff168152602001908152602001600020819055506001905092915050565b6000809054906101000a900473ffffffffffffffffffffffffffffffffffffffff1681565b600160009054906101000a900473ffffffffffffffffffffffffffffffffffffffff1681565b6000809054906101000a900473ffffffffffffffffffffffffffffffffffffffff1673ffffffffffffffffffffffffffffffffffffffff163373ffffffffffffffffffffffffffffffffffffffff1614151561067057600080fd5b600073ffffffffffffffffffffffffffffffffffffffff168173ffffffffffffffffffffffffffffffffffffffff16141515156106ac57600080fd5b8073ffffffffffffffffffffffffffffffffffffffff166000809054906101000a900473ffffffffffffffffffffffffffffffffffffffff1673ffffffffffffffffffffffffffffffffffffffff167f8be0079c531659141344cd1fd0a4f28419497f9722a3daafe3b4186f6b6457e060405160405180910390a3806000806101000a81548173ffffffffffffffffffffffffffffffffffffffff021916908373ffffffffffffffffffffffffffffffffffffffff16021790555050565b600080828401905083811015151561077e57fe5b80915050929150505600a165627a7a7230582029ff9458b1226a61334c6ea0af1ed8a5bd5b640d037f673b84f8d0ef37bca9b50029",
  "source": "pragma solidity 0.4.18;\r\n\r\nimport './CBNBToken.sol';\r\nimport './Ownable.sol';\r\nimport './SafeMath.sol';\r\n\r\ncontract CBNBTeamWallet is Ownable{\r\n  using SafeMath for uint256;\r\n\r\n  uint256 constant public FREEZE_TIME = 365 days;\r\n  \r\n  address public withdrawalAddress;\r\n  CBNBToken public bnbToken;\r\n  uint256 public startTime;\r\n  uint256 public totalWithdrawn;\r\n\r\n  mapping (address => uint256) teamMember;\r\n  \r\n  event LogWithdrawal(address _teamMember, uint256 _tokenAmount);\r\n  \r\n\r\n  modifier withdrawalAvailable() { \r\n    require(now >= startTime.add(FREEZE_TIME)); \r\n    _; \r\n  }\r\n  \r\n\r\n  function CBNBTeamWallet(address _bnbToken)\r\n    public\r\n  {  \r\n    require(_bnbToken != 0x0);\r\n\r\n    startTime = now;\r\n    bnbToken = CBNBToken(_bnbToken);\r\n    owner = msg.sender;\r\n\r\n  }\r\n\r\n  function addTeamMember(address _teamMember, uint256 _tokenAmount)\r\n    public\r\n    onlyOwner\r\n    returns(bool success)\r\n  {\r\n    teamMember[_teamMember] = _tokenAmount;\r\n    return true;\r\n  }\r\n\r\n  function transferTeamTokens()\r\n    public\r\n    withdrawalAvailable\r\n    returns (bool success)\r\n  {\r\n    uint256 sendValue = teamMember[msg.sender];\r\n    teamMember[msg.sender] = 0;\r\n    bnbToken.transfer(msg.sender, sendValue);\r\n    LogWithdrawal(msg.sender, sendValue);\r\n    return true;\r\n  }\r\n\r\n}\r\n",
  "sourcePath": "D:\\Projects\\CryptoBNB\\contracts\\CBNBTeamWallet.sol",
  "compiler": {
    "name": "solc",
    "version": "0.4.18+commit.9cf6e910.Emscripten.clang"
  },
  "schemaVersion": "1.0.1",
  "updatedAt": "2018-01-19T19:00:43.833Z"
}