{
  "contractName": "CBNBCrowdSale",
  "abi": [
    {
      "constant": false,
      "inputs": [
        {
          "name": "_internalTokens",
          "type": "uint256"
        }
      ],
      "name": "finalize",
      "outputs": [],
      "payable": false,
      "stateMutability": "nonpayable",
      "type": "function"
    },
    {
      "constant": true,
      "inputs": [],
      "name": "depositWallet",
      "outputs": [
        {
          "name": "",
          "type": "address"
        }
      ],
      "payable": false,
      "stateMutability": "view",
      "type": "function"
    },
    {
      "constant": true,
      "inputs": [],
      "name": "minLimit",
      "outputs": [
        {
          "name": "",
          "type": "uint256"
        }
      ],
      "payable": false,
      "stateMutability": "view",
      "type": "function"
    },
    {
      "constant": true,
      "inputs": [
        {
          "name": "_tierFrom",
          "type": "uint8"
        },
        {
          "name": "_tierTo",
          "type": "uint8"
        },
        {
          "name": "_tokens",
          "type": "uint256"
        }
      ],
      "name": "moveTokensForSale",
      "outputs": [],
      "payable": false,
      "stateMutability": "view",
      "type": "function"
    },
    {
      "constant": false,
      "inputs": [],
      "name": "refundWithdrawal",
      "outputs": [
        {
          "name": "success",
          "type": "bool"
        }
      ],
      "payable": false,
      "stateMutability": "nonpayable",
      "type": "function"
    },
    {
      "constant": true,
      "inputs": [],
      "name": "bnbToken",
      "outputs": [
        {
          "name": "",
          "type": "address"
        }
      ],
      "payable": false,
      "stateMutability": "view",
      "type": "function"
    },
    {
      "constant": true,
      "inputs": [],
      "name": "cap",
      "outputs": [
        {
          "name": "",
          "type": "uint256"
        }
      ],
      "payable": false,
      "stateMutability": "view",
      "type": "function"
    },
    {
      "constant": false,
      "inputs": [
        {
          "name": "_address",
          "type": "address"
        }
      ],
      "name": "denyAddressForWhitelist",
      "outputs": [
        {
          "name": "",
          "type": "uint256"
        }
      ],
      "payable": false,
      "stateMutability": "nonpayable",
      "type": "function"
    },
    {
      "constant": true,
      "inputs": [
        {
          "name": "_price",
          "type": "uint256"
        }
      ],
      "name": "weiRaised",
      "outputs": [
        {
          "name": "",
          "type": "uint256"
        }
      ],
      "payable": false,
      "stateMutability": "view",
      "type": "function"
    },
    {
      "constant": false,
      "inputs": [
        {
          "name": "_price",
          "type": "uint256"
        }
      ],
      "name": "getEtherPrice",
      "outputs": [],
      "payable": false,
      "stateMutability": "nonpayable",
      "type": "function"
    },
    {
      "constant": false,
      "inputs": [],
      "name": "pauseContract",
      "outputs": [],
      "payable": false,
      "stateMutability": "nonpayable",
      "type": "function"
    },
    {
      "constant": false,
      "inputs": [],
      "name": "claimTokens",
      "outputs": [
        {
          "name": "",
          "type": "address"
        }
      ],
      "payable": false,
      "stateMutability": "nonpayable",
      "type": "function"
    },
    {
      "constant": false,
      "inputs": [
        {
          "name": "_addresses",
          "type": "address[]"
        },
        {
          "name": "_status",
          "type": "bool"
        }
      ],
      "name": "getTokenPrice",
      "outputs": [],
      "payable": false,
      "stateMutability": "nonpayable",
      "type": "function"
    },
    {
      "constant": true,
      "inputs": [],
      "name": "teamWallet",
      "outputs": [
        {
          "name": "",
          "type": "address"
        }
      ],
      "payable": false,
      "stateMutability": "view",
      "type": "function"
    },
    {
      "constant": true,
      "inputs": [],
      "name": "totalTokensSold",
      "outputs": [
        {
          "name": "",
          "type": "uint256"
        }
      ],
      "payable": false,
      "stateMutability": "view",
      "type": "function"
    },
    {
      "constant": true,
      "inputs": [],
      "name": "icoEndTime",
      "outputs": [
        {
          "name": "",
          "type": "uint256"
        }
      ],
      "payable": false,
      "stateMutability": "view",
      "type": "function"
    },
    {
      "constant": true,
      "inputs": [],
      "name": "tokenPrice",
      "outputs": [
        {
          "name": "",
          "type": "uint256"
        }
      ],
      "payable": false,
      "stateMutability": "view",
      "type": "function"
    },
    {
      "constant": true,
      "inputs": [],
      "name": "owner",
      "outputs": [
        {
          "name": "",
          "type": "address"
        }
      ],
      "payable": false,
      "stateMutability": "view",
      "type": "function"
    },
    {
      "constant": false,
      "inputs": [],
      "name": "unpauseContract",
      "outputs": [],
      "payable": false,
      "stateMutability": "nonpayable",
      "type": "function"
    },
    {
      "constant": false,
      "inputs": [
        {
          "name": "_address",
          "type": "address"
        }
      ],
      "name": "approveAddressForWhitelist",
      "outputs": [
        {
          "name": "",
          "type": "uint8"
        }
      ],
      "payable": false,
      "stateMutability": "nonpayable",
      "type": "function"
    },
    {
      "constant": false,
      "inputs": [],
      "name": "buyTokens",
      "outputs": [
        {
          "name": "",
          "type": "uint8"
        }
      ],
      "payable": true,
      "stateMutability": "payable",
      "type": "function"
    },
    {
      "constant": false,
      "inputs": [
        {
          "name": "newOwner",
          "type": "address"
        }
      ],
      "name": "transferOwnership",
      "outputs": [],
      "payable": false,
      "stateMutability": "nonpayable",
      "type": "function"
    },
    {
      "constant": false,
      "inputs": [],
      "name": "claimRemainingWei",
      "outputs": [
        {
          "name": "success",
          "type": "bool"
        }
      ],
      "payable": false,
      "stateMutability": "nonpayable",
      "type": "function"
    },
    {
      "inputs": [
        {
          "name": "_depositWallet",
          "type": "address"
        },
        {
          "name": "_bnbToken",
          "type": "address"
        },
        {
          "name": "_teamWallet",
          "type": "address"
        }
      ],
      "payable": false,
      "stateMutability": "view",
      "type": "function",
      "constant": true,
      "name": "ethPrice",
      "outputs": [
        {
          "name": "",
          "type": "uint256"
        }
      ]
    },
    {
      "payable": false,
      "stateMutability": "nonpayable",
      "type": "constructor",
      "inputs": [
        {
          "name": "_depositWallet",
          "type": "address"
        },
        {
          "name": "_bnbToken",
          "type": "address"
        },
        {
          "name": "_teamWallet",
          "type": "address"
        }
      ]
    },
    {
      "anonymous": false,
      "inputs": [
        {
          "indexed": false,
          "name": "_owner",
          "type": "address"
        },
        {
          "indexed": false,
          "name": "_msgsender",
          "type": "address"
        },
        {
          "indexed": false,
          "name": "_qtyOfTokensRequested",
          "type": "uint256"
        }
      ],
      "name": "LogTokensTransferedFrom",
      "type": "fallback",
      "payable": true,
      "stateMutability": "payable"
    },
    {
      "anonymous": false,
      "inputs": [
        {
          "indexed": false,
          "name": "_owner",
          "type": "address"
        },
        {
          "indexed": false,
          "name": "_msgsender",
          "type": "address"
        },
        {
          "indexed": false,
          "name": "_qtyOfTokensRequested",
          "type": "uint256"
        }
      ],
      "name": "LogTokensTransferedFrom",
      "type": "event"
    },
    {
      "anonymous": false,
      "inputs": [
        {
          "indexed": false,
          "name": "_buyer",
          "type": "address"
        },
        {
          "indexed": false,
          "name": "_amount",
          "type": "uint256"
        }
      ],
      "name": "LogTokensReserved",
      "type": "event"
    },
    {
      "anonymous": false,
      "inputs": [
        {
          "indexed": false,
          "name": "_investor",
          "type": "address"
        },
        {
          "indexed": false,
          "name": "_amount",
          "type": "uint256"
        }
      ],
      "name": "LogWithdrawal",
      "type": "event"
    },
    {
      "anonymous": false,
      "inputs": [
        {
          "indexed": true,
          "name": "previousOwner",
          "type": "address"
        },
        {
          "indexed": true,
          "name": "newOwner",
          "type": "address"
        }
      ],
      "name": "OwnershipTransferred",
      "type": "event"
    }
  ],
  "bytecode": "0x6060604052341561000f57600080fd5b604051606080611ff8833981016040528080519060200190919080519060200190919080519060200190919050506000336000806101000a81548173ffffffffffffffffffffffffffffffffffffffff021916908373ffffffffffffffffffffffffffffffffffffffff16021790555060008473ffffffffffffffffffffffffffffffffffffffff16141515156100a557600080fd5b60008373ffffffffffffffffffffffffffffffffffffffff16141515156100cb57600080fd5b60008273ffffffffffffffffffffffffffffffffffffffff16141515156100f157600080fd5b83600260006101000a81548173ffffffffffffffffffffffffffffffffffffffff021916908373ffffffffffffffffffffffffffffffffffffffff1602179055506276a700420160038190555081600460006101000a81548173ffffffffffffffffffffffffffffffffffffffff021916908373ffffffffffffffffffffffffffffffffffffffff16021790555082600d60006101000a81548173ffffffffffffffffffffffffffffffffffffffff021916908373ffffffffffffffffffffffffffffffffffffffff160217905550685150ae84a8cdf0000060088190555033600960006101000a81548173ffffffffffffffffffffffffffffffffffffffff021916908373ffffffffffffffffffffffffffffffffffffffff16021790555069032d26d12e980b600000600a81905550600090505b600560ff168160ff161015610280576402540be4006301312d008260ff16026305f5e1000363ffffffff1602600e60008360ff1660ff168152602001908152602001600020600001819055508080600101915050610227565b50505050611d65806102936000396000f30060606040526004361061013e576000357c0100000000000000000000000000000000000000000000000000000000900463ffffffff16806305261aea1461019c57806309904c00146101bf5780631fd8088d14610214578063241849e41461023d5780632aff12e8146102785780632b17b6a9146102a5578063355274ea146102fa5780633fecf385146103235780634042b66f1461035c57806341f1992814610385578063439766ce146103a857806348c54b9d146103bd5780634b94f50e146103d257806359927044146103e757806363b201171461043c5780637e1055b6146104655780637ff9b5961461048e5780638da5cb5b146104b7578063b33712c51461050c578063cf67d0b614610521578063d0febe4c1461055a578063f2fde38b1461057e578063fe2f5bde146105b7578063ff186b2e146105e4575b600960009054906101000a900473ffffffffffffffffffffffffffffffffffffffff1673ffffffffffffffffffffffffffffffffffffffff163373ffffffffffffffffffffffffffffffffffffffff1614151561019a57600080fd5b005b34156101a757600080fd5b6101bd600480803590602001909190505061060d565b005b34156101ca57600080fd5b6101d261096d565b604051808273ffffffffffffffffffffffffffffffffffffffff1673ffffffffffffffffffffffffffffffffffffffff16815260200191505060405180910390f35b341561021f57600080fd5b610227610993565b6040518082815260200191505060405180910390f35b341561024857600080fd5b610276600480803560ff1690602001909190803560ff16906020019091908035906020019091905050610999565b005b341561028357600080fd5b61028b610abe565b604051808215151515815260200191505060405180910390f35b34156102b057600080fd5b6102b8610c6a565b604051808273ffffffffffffffffffffffffffffffffffffffff1673ffffffffffffffffffffffffffffffffffffffff16815260200191505060405180910390f35b341561030557600080fd5b61030d610c90565b6040518082815260200191505060405180910390f35b341561032e57600080fd5b61035a600480803573ffffffffffffffffffffffffffffffffffffffff16906020019091905050610c96565b005b341561036757600080fd5b61036f610d89565b6040518082815260200191505060405180910390f35b341561039057600080fd5b6103a66004808035906020019091905050610d8f565b005b34156103b357600080fd5b6103bb610df4565b005b34156103c857600080fd5b6103d0610e6c565b005b34156103dd57600080fd5b6103e5611162565b005b34156103f257600080fd5b6103fa611183565b604051808273ffffffffffffffffffffffffffffffffffffffff1673ffffffffffffffffffffffffffffffffffffffff16815260200191505060405180910390f35b341561044757600080fd5b61044f6111a9565b6040518082815260200191505060405180910390f35b341561047057600080fd5b6104786111af565b6040518082815260200191505060405180910390f35b341561049957600080fd5b6104a16111b5565b6040518082815260200191505060405180910390f35b34156104c257600080fd5b6104ca6111bb565b604051808273ffffffffffffffffffffffffffffffffffffffff1673ffffffffffffffffffffffffffffffffffffffff16815260200191505060405180910390f35b341561051757600080fd5b61051f6111e1565b005b341561052c57600080fd5b610558600480803573ffffffffffffffffffffffffffffffffffffffff16906020019091905050611259565b005b61056261134c565b604051808260ff1660ff16815260200191505060405180910390f35b341561058957600080fd5b6105b5600480803573ffffffffffffffffffffffffffffffffffffffff16906020019091905050611872565b005b34156105c257600080fd5b6105ca6119c7565b604051808215151515815260200191505060405180910390f35b34156105ef57600080fd5b6105f7611b6e565b6040518082815260200191505060405180910390f35b600a54600654101580610621575060035442115b8061063357506000610631611b74565b145b151561063e57600080fd5b6000809054906101000a900473ffffffffffffffffffffffffffffffffffffffff1673ffffffffffffffffffffffffffffffffffffffff163373ffffffffffffffffffffffffffffffffffffffff1614151561069957600080fd5b6106a1611c31565b600d60009054906101000a900473ffffffffffffffffffffffffffffffffffffffff1673ffffffffffffffffffffffffffffffffffffffff166323b872dd600960009054906101000a900473ffffffffffffffffffffffffffffffffffffffff16600260009054906101000a900473ffffffffffffffffffffffffffffffffffffffff1661072d611b74565b6000604051602001526040518463ffffffff167c0100000000000000000000000000000000000000000000000000000000028152600401808473ffffffffffffffffffffffffffffffffffffffff1673ffffffffffffffffffffffffffffffffffffffff1681526020018373ffffffffffffffffffffffffffffffffffffffff1673ffffffffffffffffffffffffffffffffffffffff1681526020018281526020019350505050602060405180830381600087803b15156107ed57600080fd5b6102c65a03f115156107fe57600080fd5b5050506040518051905050600d60009054906101000a900473ffffffffffffffffffffffffffffffffffffffff1673ffffffffffffffffffffffffffffffffffffffff166323b872dd600960009054906101000a900473ffffffffffffffffffffffffffffffffffffffff16600460009054906101000a900473ffffffffffffffffffffffffffffffffffffffff16846000604051602001526040518463ffffffff167c0100000000000000000000000000000000000000000000000000000000028152600401808473ffffffffffffffffffffffffffffffffffffffff1673ffffffffffffffffffffffffffffffffffffffff1681526020018373ffffffffffffffffffffffffffffffffffffffff1673ffffffffffffffffffffffffffffffffffffffff1681526020018281526020019350505050602060405180830381600087803b151561094e57600080fd5b6102c65a03f1151561095f57600080fd5b505050604051805190505050565b600260009054906101000a900473ffffffffffffffffffffffffffffffffffffffff1681565b60085481565b60008060009054906101000a900473ffffffffffffffffffffffffffffffffffffffff1673ffffffffffffffffffffffffffffffffffffffff163373ffffffffffffffffffffffffffffffffffffffff161415156109f657600080fd5b600e60008560ff1660ff168152602001908152602001600020905060011515600b60019054906101000a900460ff161515141515610a3357600080fd5b8260ff168460ff16111515610a4757600080fd5b610a6281600201548260000154611cac90919063ffffffff16565b8211151515610a7057600080fd5b610a87828260000154611cac90919063ffffffff16565b50610ab782600e60008660ff1660ff16815260200190815260200160002060000154611cc590919063ffffffff16565b5050505050565b6000806000801515600b60019054906101000a900460ff161515141515610ae457600080fd5b600a54600654101580610af8575060035442115b80610b0a57506000610b08611b74565b145b1515610b1557600080fd5b600c60003373ffffffffffffffffffffffffffffffffffffffff1673ffffffffffffffffffffffffffffffffffffffff1681526020019081526020016000209150600854600654101515610b9b5760016002811115610b7057fe5b8260020160009054906101000a900460ff166002811115610b8d57fe5b14151515610b9a57600080fd5b5b8160000154905060008260000181905550600082600101819055503373ffffffffffffffffffffffffffffffffffffffff166108fc829081150290604051600060405180830381858888f193505050501515610bf657600080fd5b7fb4214c8c54fc7442f36d3682f59aebaf09358a4431835b30efb29d52cf9e1e913382604051808373ffffffffffffffffffffffffffffffffffffffff1673ffffffffffffffffffffffffffffffffffffffff1681526020018281526020019250505060405180910390a160019250505090565b600d60009054906101000a900473ffffffffffffffffffffffffffffffffffffffff1681565b600a5481565b6000809054906101000a900473ffffffffffffffffffffffffffffffffffffffff1673ffffffffffffffffffffffffffffffffffffffff163373ffffffffffffffffffffffffffffffffffffffff16141515610cf157600080fd5b600a54600654101580610d05575060035442115b80610d1757506000610d15611b74565b145b1515610d2257600080fd5b6002600c60008373ffffffffffffffffffffffffffffffffffffffff1673ffffffffffffffffffffffffffffffffffffffff16815260200190815260200160002060020160006101000a81548160ff02191690836002811115610d8157fe5b021790555050565b60065481565b6000809054906101000a900473ffffffffffffffffffffffffffffffffffffffff1673ffffffffffffffffffffffffffffffffffffffff163373ffffffffffffffffffffffffffffffffffffffff16141515610dea57600080fd5b8060078190555050565b6000809054906101000a900473ffffffffffffffffffffffffffffffffffffffff1673ffffffffffffffffffffffffffffffffffffffff163373ffffffffffffffffffffffffffffffffffffffff16141515610e4f57600080fd5b6001600b60016101000a81548160ff021916908315150217905550565b60008060001515600b60019054906101000a900460ff161515141515610e9157600080fd5b600a54600654101580610ea5575060035442115b80610eb757506000610eb5611b74565b145b1515610ec257600080fd5b600c60003373ffffffffffffffffffffffffffffffffffffffff1673ffffffffffffffffffffffffffffffffffffffff168152602001908152602001600020915060016002811115610f1057fe5b8260020160009054906101000a900460ff166002811115610f2d57fe5b141515610f3957600080fd5b6000826001015414151515610f4d57600080fd5b81600101549050600082600101819055507f5e33aa51243f63fa9ddbcb5ad83c855f19c432c18cd480ee396279eb771505c7600960009054906101000a900473ffffffffffffffffffffffffffffffffffffffff163383604051808473ffffffffffffffffffffffffffffffffffffffff1673ffffffffffffffffffffffffffffffffffffffff1681526020018373ffffffffffffffffffffffffffffffffffffffff1673ffffffffffffffffffffffffffffffffffffffff168152602001828152602001935050505060405180910390a1600d60009054906101000a900473ffffffffffffffffffffffffffffffffffffffff1673ffffffffffffffffffffffffffffffffffffffff166323b872dd600960009054906101000a900473ffffffffffffffffffffffffffffffffffffffff1633846000604051602001526040518463ffffffff167c0100000000000000000000000000000000000000000000000000000000028152600401808473ffffffffffffffffffffffffffffffffffffffff1673ffffffffffffffffffffffffffffffffffffffff1681526020018373ffffffffffffffffffffffffffffffffffffffff1673ffffffffffffffffffffffffffffffffffffffff1681526020018281526020019350505050602060405180830381600087803b151561114257600080fd5b6102c65a03f1151561115357600080fd5b50505060405180519050505050565b600b60009054906101000a900460ff1660080260280160ff16600581905550565b600460009054906101000a900473ffffffffffffffffffffffffffffffffffffffff1681565b60015481565b60035481565b60055481565b600960009054906101000a900473ffffffffffffffffffffffffffffffffffffffff1681565b6000809054906101000a900473ffffffffffffffffffffffffffffffffffffffff1673ffffffffffffffffffffffffffffffffffffffff163373ffffffffffffffffffffffffffffffffffffffff1614151561123c57600080fd5b6000600b60016101000a81548160ff021916908315150217905550565b6000809054906101000a900473ffffffffffffffffffffffffffffffffffffffff1673ffffffffffffffffffffffffffffffffffffffff163373ffffffffffffffffffffffffffffffffffffffff161415156112b457600080fd5b600a546006541015806112c8575060035442115b806112da575060006112d8611b74565b145b15156112e557600080fd5b6001600c60008373ffffffffffffffffffffffffffffffffffffffff1673ffffffffffffffffffffffffffffffffffffffff16815260200190815260200160002060020160006101000a81548160ff0219169083600281111561134457fe5b021790555050565b6000806000806000806000806000600a5460065410801561136e575060035442105b80156113815750600061137f611b74565b115b151561138c57600080fd5b60001515600b60019054906101000a900460ff1615151415156113ae57600080fd5b60008036905014806113c4575060046000369050145b15156113cf57600080fd5b600c60003373ffffffffffffffffffffffffffffffffffffffff1673ffffffffffffffffffffffffffffffffffffffff1681526020019081526020016000209750600960009054906101000a900473ffffffffffffffffffffffffffffffffffffffff1673ffffffffffffffffffffffffffffffffffffffff163373ffffffffffffffffffffffffffffffffffffffff161415151561146d57600080fd5b60006007541415151561147f57600080fd5b60028081111561148b57fe5b8860020160009054906101000a900460ff1660028111156114a857fe5b141515156114b557600080fd5b67016345785d8a000034101515156114cc57600080fd5b6114e3886003015434611cc590919063ffffffff16565b96506000886003018190555061154a60075461153c6103e861152e600b60009054906101000a900460ff1660080260280160ff16670de0b6b3a7640000611ce390919063ffffffff16565b611d1e90919063ffffffff16565b611d1e90919063ffffffff16565b94505b8487101580156115735750600560ff16600b60009054906101000a900460ff1660ff1614155b1561171d57600e6000600b60009054906101000a900460ff1660ff1660ff16815260200190815260200160002091506115fd6007546115ef6103e86115e1600b60009054906101000a900460ff1660080260280160ff16670de0b6b3a7640000611ce390919063ffffffff16565b611d1e90919063ffffffff16565b611d1e90919063ffffffff16565b94506116296402540be40061161b878a611d1e90919063ffffffff16565b611ce390919063ffffffff16565b925061164682600201548360000154611cac90919063ffffffff16565b935083831015156116d257838303925083826002016000828254019250508190555083860195506116976402540be4006116898787611ce390919063ffffffff16565b611d1e90919063ffffffff16565b87039650600b600081819054906101000a900460ff168092919060010191906101000a81548160ff021916908360ff16021790555050611718565b82826002016000828254019250508190555082860195506117136402540be4006117058786611ce390919063ffffffff16565b611d1e90919063ffffffff16565b870396505b61154d565b6117308734611cac90919063ffffffff16565b905080600660008282540192505081905550600260009054906101000a900473ffffffffffffffffffffffffffffffffffffffff1673ffffffffffffffffffffffffffffffffffffffff166108fc829081150290604051600060405180830381858888f1935050505015156117a457600080fd5b868860030160008282540192505081905550808860000160008282540192505081905550858860010160008282540192505081905550856001600082825401925050819055507f6387c93d20b3ff07ec699718ca35c71c5a2a744b6cf874e48db2d3ce8c74db103387604051808373ffffffffffffffffffffffffffffffffffffffff1673ffffffffffffffffffffffffffffffffffffffff1681526020018281526020019250505060405180910390a1600b60009054906101000a900460ff169850505050505050505090565b6000809054906101000a900473ffffffffffffffffffffffffffffffffffffffff1673ffffffffffffffffffffffffffffffffffffffff163373ffffffffffffffffffffffffffffffffffffffff161415156118cd57600080fd5b600073ffffffffffffffffffffffffffffffffffffffff168173ffffffffffffffffffffffffffffffffffffffff161415151561190957600080fd5b8073ffffffffffffffffffffffffffffffffffffffff166000809054906101000a900473ffffffffffffffffffffffffffffffffffffffff1673ffffffffffffffffffffffffffffffffffffffff167f8be0079c531659141344cd1fd0a4f28419497f9722a3daafe3b4186f6b6457e060405160405180910390a3806000806101000a81548173ffffffffffffffffffffffffffffffffffffffff021916908373ffffffffffffffffffffffffffffffffffffffff16021790555050565b6000806000801515600b60019054906101000a900460ff1615151415156119ed57600080fd5b600a54600654101580611a01575060035442115b80611a1357506000611a11611b74565b145b1515611a1e57600080fd5b600c60003373ffffffffffffffffffffffffffffffffffffffff1673ffffffffffffffffffffffffffffffffffffffff168152602001908152602001600020915060016002811115611a6c57fe5b8260020160009054906101000a900460ff166002811115611a8957fe5b141515611a9557600080fd5b6000826003015414151515611aa957600080fd5b81600301549050600082600301819055507fb4214c8c54fc7442f36d3682f59aebaf09358a4431835b30efb29d52cf9e1e913382604051808373ffffffffffffffffffffffffffffffffffffffff1673ffffffffffffffffffffffffffffffffffffffff1681526020018281526020019250505060405180910390a13373ffffffffffffffffffffffffffffffffffffffff166108fc829081150290604051600060405180830381858888f193505050501515611b6557600080fd5b60019250505090565b60075481565b60008060008090505b600560ff168160ff161015611c2957600e60008260ff1660ff16815260200190815260200160002060000154600e60008360ff1660ff168152602001908152602001600020600201541015611c1c57611c17600e60008360ff1660ff16815260200190815260200160002060020154600e60008460ff1660ff16815260200190815260200160002060000154611cac90919063ffffffff16565b820191505b8080600101915050611b7d565b819250505090565b600260009054906101000a900473ffffffffffffffffffffffffffffffffffffffff1673ffffffffffffffffffffffffffffffffffffffff166108fc3073ffffffffffffffffffffffffffffffffffffffff16319081150290604051600060405180830381858888f193505050501515611caa57600080fd5b565b6000828211151515611cba57fe5b818303905092915050565b6000808284019050838110151515611cd957fe5b8091505092915050565b6000806000841415611cf85760009150611d17565b8284029050828482811515611d0957fe5b04141515611d1357fe5b8091505b5092915050565b6000808284811515611d2c57fe5b04905080915050929150505600a165627a7a72305820a871b2dfae11458dc32dd1638b8db698efc7a1758f28d24de2006ffe93d9b1300029",
  "source": "pragma solidity 0.4.18;\r\n\r\nimport './CBNBToken.sol';\r\nimport 'zeppelin-solidity/contracts/ownership/Ownable.sol';\r\nimport 'zeppelin-solidity/contracts/math/SafeMath.sol';\r\n\r\ncontract CBNBCrowdSale is Ownable{\r\n  using SafeMath for uint256;\r\n\r\n  uint256 constant internal MIN_CONTRIBUTION = 0.1 ether;\r\n  uint256 constant internal TOKEN_DECIMALS = 10**10;\r\n  uint256 constant internal ETH_DECIMALS = 10**18;\r\n  uint8 constant internal TIER_COUNT = 5;\r\n\r\n  uint256 public totalTokensSold;\r\n  address public depositWallet;\r\n  uint256 public icoEndTime;\r\n  address public teamWallet;\r\n  uint256 public tokenPrice;\r\n  uint256 public weiRaised;\r\n  uint256 public ethPrice;\r\n  uint256 public minLimit;\r\n  address public owner;\r\n  uint256 public cap;\r\n  uint8 private tier;\r\n  bool private paused;\r\n\r\n  enum Status {\r\n    New, Approved, Denied\r\n  }\r\n\r\n  struct Participant {\r\n    uint256 contrAmount; //amount in wei\r\n    uint256 qtyTokens;\r\n    Status whitelistStatus;\r\n    uint256 remainingWei;\r\n  }\r\n\r\n  mapping(address => Participant) participants;\r\n\r\n  //The CryptoBnB token contract\r\n  CBNBToken public bnbToken; \r\n\r\n  /// @dev Sale tiers for Institution-ICO, public Pre-ICO, and ICO\r\n  /// @dev Sets the time of start and finish, it will be time of pushing\r\n  /// @dev to the mainnet plus days/hours etc.\r\n  struct SaleTier {      \r\n    uint256 tokensToBeSold;  //amount of tokens to be sold in this SaleTier\r\n    uint256 price;           //amount of tokens per wei\r\n    uint256 tokensSold;      //amount of tokens sold in each SaleTier     \r\n  }\r\n   \r\n  mapping(uint8 => SaleTier) saleTier;\r\n\r\n  event LogTokensTransferedFrom(address _owner, address _msgsender, uint256 _qtyOfTokensRequested);\r\n  event LogTokensReserved(address _buyer, uint256 _amount);\r\n  event LogWithdrawal(address _investor, uint256 _amount); \r\n \r\n  modifier isValidPayload() {\r\n    require(msg.data.length == 0 || msg.data.length == 4); // double check this one\r\n    _;\r\n  }\r\n\r\n  modifier icoIsActive() {\r\n    require(weiRaised < cap && now < icoEndTime && calculateUnsoldICOTokens() > 0);\r\n    _;\r\n  }\r\n\r\n  modifier icoHasEnded() {\r\n    require(weiRaised >= cap || now > icoEndTime || calculateUnsoldICOTokens() == 0);\r\n    _;\r\n  }\r\n\r\n  modifier unpausedContract(){\r\n    require(paused == false);\r\n    _;\r\n  }\r\n\r\n  /// @dev confirm price thresholds and amounts\r\n  ///  depositWallet for holding ether\r\n  ///  bnbToken token address pushed to mainnet first\r\n  function CBNBCrowdSale(address _depositWallet, address _bnbToken, address _teamWallet) \r\n    public \r\n  {\r\n    require(_depositWallet != 0x0);\r\n    require(_bnbToken != 0x0);\r\n    require(_teamWallet != 0x0);     \r\n\r\n    totalTokensSold;\r\n    depositWallet = _depositWallet;\r\n    icoEndTime = now + 90 days; //pick a block number to end on\r\n    teamWallet = _teamWallet;\r\n    tokenPrice;\r\n    weiRaised;\r\n    bnbToken = CBNBToken(_bnbToken);    \r\n    minLimit = 1500 ether;\r\n    owner = msg.sender;\r\n    cap = 15000 ether;\r\n\r\n   for(uint8 i=0; i<TIER_COUNT; i++){ \r\n    saleTier[i].tokensToBeSold = (100000000-(i*20000000))*TOKEN_DECIMALS;\r\n   }\r\n }\r\n\r\n  /// @dev Fallback function.\r\n  /// @dev Reject random ethereum being sent to the contract.\r\n  /// @notice allows for owner to send ethereum to the contract in the event\r\n  /// of a refund\r\n  function()\r\n    public\r\n    payable\r\n  {\r\n    require(msg.sender == owner);\r\n  }\r\n\r\n  ///@notice feels risky\r\n  ///param ethereum price will exclude decimals\r\n  function getEtherPrice(uint256 _price)\r\n    external\r\n    onlyOwner\r\n  {\r\n    ethPrice = _price;\r\n  }\r\n\r\n  function getTokenPrice()\r\n    external\r\n  {\r\n    tokenPrice = 40+(8*tier);\r\n  }\r\n\r\n  /// @notice buyer calls this function to order to get on the list for approval\r\n  /// buyers must send the ethereum with their whitelist application\r\n   /// @notice buyer calls this function to order to get on the list for approval\r\n  /// buyers must send the ether with their whitelist application\r\n  function buyTokens()\r\n    external\r\n    payable\r\n    icoIsActive\r\n    unpausedContract\r\n    isValidPayload\r\n    \r\n    returns (uint8)\r\n  {\r\n    \r\n    Participant storage participant = participants[msg.sender];\r\n\r\n    require(msg.sender != owner);\r\n    require(ethPrice != 0);\r\n    require(participant.whitelistStatus != Status.Denied);\r\n    require(msg.value >= MIN_CONTRIBUTION);\r\n\r\n    uint256 remainingWei = msg.value.add(participant.remainingWei);\r\n    participant.remainingWei = 0;\r\n    uint256 totalTokensRequested;\r\n    uint256 price = (ETH_DECIMALS.mul(uint256(40+(8*tier))).div(1000)).div(ethPrice);\r\n    uint256 tierRemainingTokens;\r\n    uint256 tknsRequested;\r\n  \r\n    while(remainingWei >= price && tier != TIER_COUNT) {\r\n\r\n      SaleTier storage tiers = saleTier[tier];\r\n      price = (ETH_DECIMALS.mul(uint256(40+(8*tier))).div(1000)).div(ethPrice);\r\n      tknsRequested = (remainingWei.div(price)).mul(TOKEN_DECIMALS);\r\n      tierRemainingTokens = tiers.tokensToBeSold.sub(tiers.tokensSold);\r\n      if(tknsRequested >= tierRemainingTokens){\r\n        tknsRequested -= tierRemainingTokens;\r\n        tiers.tokensSold += tierRemainingTokens;\r\n        totalTokensRequested += tierRemainingTokens;\r\n        remainingWei -= ((tierRemainingTokens.mul(price)).div(TOKEN_DECIMALS));\r\n        tier++;\r\n      } else{\r\n        tiers.tokensSold += tknsRequested;\r\n        totalTokensRequested += tknsRequested;\r\n        remainingWei -= ((tknsRequested.mul(price)).div(TOKEN_DECIMALS));\r\n      }  \r\n    }\r\n\r\n    uint256 amount = msg.value.sub(remainingWei);\r\n    weiRaised += amount;\r\n    depositWallet.transfer(amount);\r\n\r\n    participant.remainingWei += remainingWei;\r\n    participant.contrAmount += amount;\r\n    participant.qtyTokens += totalTokensRequested;\r\n    totalTokensSold += totalTokensRequested;\r\n    LogTokensReserved(msg.sender, totalTokensRequested);\r\n    \r\n    return tier;\r\n  }\r\n \r\n ///@notice interface for founders to whitelist participants\r\n  function approveAddressForWhitelist(address _address) \r\n    public \r\n    onlyOwner\r\n    icoHasEnded \r\n  {\r\n    participants[_address].whitelistStatus = Status.Approved;\r\n  }\r\n\r\n  ///@notice interface for founders to whitelist participants\r\n  function denyAddressForWhitelist(address _address) \r\n    public \r\n    onlyOwner\r\n    icoHasEnded \r\n  {\r\n    participants[_address].whitelistStatus = Status.Denied;\r\n  }\r\n\r\n  /// @notice used to move tokens from the later tiers into the earlier tiers\r\n  /// contract must be paused to do the move\r\n  /// param tier from later tier to subtract the tokens from\r\n  /// param tier to add the tokens to\r\n  /// param how many tokens to take\r\n  function moveTokensForSale(uint8 _tierFrom, uint8 _tierTo, uint256 _tokens) \r\n    view\r\n    public\r\n    onlyOwner\r\n  {\r\n    SaleTier storage tiers = saleTier[_tierFrom];\r\n    require(paused == true);\r\n    require(_tierFrom > _tierTo);\r\n    require(_tokens <= ((tiers.tokensToBeSold).sub(tiers.tokensSold)));\r\n\r\n    tiers.tokensToBeSold.sub(_tokens);\r\n    saleTier[_tierTo].tokensToBeSold.add(_tokens);\r\n  }\r\n\r\n  /// @notice pause specific funtions of the contract\r\n  function pauseContract() public onlyOwner {\r\n    paused = true;\r\n  }\r\n\r\n  /// @notice to unpause functions\r\n  function unpauseContract() public onlyOwner {\r\n    paused = false;\r\n  }      \r\n\r\n  /// @notice users can withdraw the wei etheum sent\r\n  /// used for refund process incase not enough funds raised\r\n  /// or denied in the approval process\r\n  /// @notice no ethereum will be held in the crowdsale contract\r\n  /// when refunds become available the amount of Ethererum needed will\r\n  /// be manually transfered back to the crowdsale to be refunded\r\n  function refundWithdrawal()\r\n    external\r\n    unpausedContract\r\n    icoHasEnded\r\n    returns (bool success)\r\n  {\r\n    Participant storage participant = participants[msg.sender];\r\n    if(weiRaised >= minLimit){\r\n      require(participant.whitelistStatus != Status.Approved);\r\n    }\r\n\r\n    uint256 sendValue = participant.contrAmount;\r\n    participant.contrAmount = 0;\r\n    participant.qtyTokens = 0;\r\n    msg.sender.transfer(sendValue);\r\n  \r\n    LogWithdrawal(msg.sender, sendValue);\r\n    return true;\r\n  }\r\n\r\n  /// @dev freeze unsold tokens for use at a later time\r\n  /// and transfer team, owner and other internally promised tokens\r\n  /// param total number of tokens being transfered to the freeze wallet\r\n  function finalize(uint256 _internalTokens)\r\n    public\r\n    icoHasEnded\r\n    onlyOwner\r\n  {\r\n    cleanup();\r\n    bnbToken.transferFrom(owner, depositWallet, calculateUnsoldICOTokens());\r\n    bnbToken.transferFrom(owner, teamWallet, _internalTokens);   \r\n  }\r\n  \r\n  /// @notice Transfer any ethereum accidentally left in this contract \r\n  function cleanup()\r\n    internal\r\n  {\r\n    depositWallet.transfer(this.balance);\r\n  }\r\n\r\n  /// @notice calculate unsold tokens for transfer to depositWallet to be used at a later date\r\n  function calculateUnsoldICOTokens()\r\n    view\r\n    internal\r\n    returns (uint256)\r\n  {\r\n    uint256 remainingTokens;\r\n    for(uint8 i = 0; i < TIER_COUNT; i++){\r\n      if(saleTier[i].tokensSold < saleTier[i].tokensToBeSold){\r\n        remainingTokens += saleTier[i].tokensToBeSold.sub(saleTier[i].tokensSold);\r\n      }\r\n    }\r\n    return remainingTokens;\r\n  }\r\n\r\n  /// notice sends requested tokens to the whitelist person\r\n  function claimTokens() \r\n    external\r\n    unpausedContract\r\n    icoHasEnded\r\n  {\r\n    Participant storage participant = participants[msg.sender];\r\n    require(participant.whitelistStatus == Status.Approved);\r\n    require(participant.qtyTokens != 0);\r\n    uint256 tkns = participant.qtyTokens;\r\n    participant.qtyTokens = 0;\r\n    LogTokensTransferedFrom(owner, msg.sender, tkns);\r\n    bnbToken.transferFrom(owner, msg.sender, tkns);\r\n  }\r\n\r\n  /// @notice no ethereum will be held in the crowdsale contract\r\n  /// when refunds become available the amount of Ethererum needed will\r\n  /// be manually transfered back to the crowdsale to be refunded\r\n  /// @notice only the last person that buys tokens if they deposited enought to buy more \r\n  /// tokens than what is available will be able to use this function\r\n  function claimRemainingWei()\r\n    external\r\n    unpausedContract\r\n    icoHasEnded\r\n    returns (bool success)\r\n  {\r\n    Participant storage participant = participants[msg.sender];\r\n    require(participant.whitelistStatus == Status.Approved);\r\n    require(participant.remainingWei != 0);\r\n    uint256 sendValue = participant.remainingWei;\r\n    participant.remainingWei = 0;\r\n    LogWithdrawal(msg.sender, sendValue);\r\n    msg.sender.transfer(sendValue);\r\n    return true;\r\n  }\r\n}",
  "sourcePath": "D:\\Projects\\CryptoBNB\\contracts\\CBNBCrowdSale.sol",
  "compiler": {
    "name": "solc",
    "version": "0.4.18+commit.9cf6e910.Emscripten.clang"
  },
  "schemaVersion": "1.0.1",
  "updatedAt": "2018-01-25T16:51:20.451Z"
}