{
  "contractName": "CBNBCrowdSale",
  "abi": [
    {
      "constant": false,
      "inputs": [
        {
          "name": "_internalTokens",
          "type": "uint256"
        }
      ],
      "name": "finalize",
      "outputs": [],
      "payable": false,
      "type": "function",
      "stateMutability": "nonpayable"
    },
    {
      "constant": true,
      "inputs": [],
      "name": "minLimit",
      "outputs": [
        {
          "name": "",
          "type": "uint256"
        }
      ],
      "payable": false,
      "type": "function",
      "stateMutability": "view"
    },
    {
      "constant": false,
      "inputs": [
        {
          "name": "_tierFrom",
          "type": "uint8"
        },
        {
          "name": "_tierTo",
          "type": "uint8"
        },
        {
          "name": "_tokens",
          "type": "uint256"
        }
      ],
      "name": "moveTokensForSale",
      "outputs": [],
      "payable": false,
      "type": "function",
      "stateMutability": "nonpayable"
    },
    {
      "constant": true,
      "inputs": [],
      "name": "bnbToken",
      "outputs": [
        {
          "name": "",
          "type": "address"
        }
      ],
      "payable": false,
      "type": "function",
      "stateMutability": "view"
    },
    {
      "constant": true,
      "inputs": [],
      "name": "decimals",
      "outputs": [
        {
          "name": "",
          "type": "uint256"
        }
      ],
      "payable": false,
      "type": "function",
      "stateMutability": "view"
    },
    {
      "constant": true,
      "inputs": [],
      "name": "cap",
      "outputs": [
        {
          "name": "",
          "type": "uint256"
        }
      ],
      "payable": false,
      "type": "function",
      "stateMutability": "view"
    },
    {
      "constant": true,
      "inputs": [],
      "name": "weiRaised",
      "outputs": [
        {
          "name": "",
          "type": "uint256"
        }
      ],
      "payable": false,
      "type": "function",
      "stateMutability": "view"
    },
    {
      "constant": false,
      "inputs": [],
      "name": "pauseContract",
      "outputs": [],
      "payable": false,
      "type": "function",
      "stateMutability": "nonpayable"
    },
    {
      "constant": true,
      "inputs": [],
      "name": "multiSigWallet",
      "outputs": [
        {
          "name": "",
          "type": "address"
        }
      ],
      "payable": false,
      "type": "function",
      "stateMutability": "view"
    },
    {
      "constant": true,
      "inputs": [],
      "name": "teamWallet",
      "outputs": [
        {
          "name": "",
          "type": "address"
        }
      ],
      "payable": false,
      "type": "function",
      "stateMutability": "view"
    },
    {
      "constant": false,
      "inputs": [
        {
          "name": "_addresses",
          "type": "address[]"
        },
        {
          "name": "_status",
          "type": "bool"
        }
      ],
      "name": "whitelistAddresses",
      "outputs": [],
      "payable": false,
      "type": "function",
      "stateMutability": "nonpayable"
    },
    {
      "constant": true,
      "inputs": [],
      "name": "icoEndTime",
      "outputs": [
        {
          "name": "",
          "type": "uint256"
        }
      ],
      "payable": false,
      "type": "function",
      "stateMutability": "view"
    },
    {
      "constant": true,
      "inputs": [],
      "name": "owner",
      "outputs": [
        {
          "name": "",
          "type": "address"
        }
      ],
      "payable": false,
      "type": "function",
      "stateMutability": "view"
    },
    {
      "constant": true,
      "inputs": [],
      "name": "icoStartTime",
      "outputs": [
        {
          "name": "",
          "type": "uint256"
        }
      ],
      "payable": false,
      "type": "function",
      "stateMutability": "view"
    },
    {
      "constant": false,
      "inputs": [],
      "name": "unpauseContract",
      "outputs": [],
      "payable": false,
      "type": "function",
      "stateMutability": "nonpayable"
    },
    {
      "constant": false,
      "inputs": [],
      "name": "buyTokens",
      "outputs": [
        {
          "name": "",
          "type": "uint8"
        }
      ],
      "payable": true,
      "type": "function",
      "stateMutability": "payable"
    },
    {
      "constant": false,
      "inputs": [],
      "name": "RefundWithdrawal",
      "outputs": [
        {
          "name": "success",
          "type": "bool"
        }
      ],
      "payable": false,
      "type": "function",
      "stateMutability": "nonpayable"
    },
    {
      "constant": false,
      "inputs": [
        {
          "name": "newOwner",
          "type": "address"
        }
      ],
      "name": "transferOwnership",
      "outputs": [],
      "payable": false,
      "type": "function",
      "stateMutability": "nonpayable"
    },
    {
      "inputs": [
        {
          "name": "_multiSigWallet",
          "type": "address"
        },
        {
          "name": "_bnbToken",
          "type": "address"
        },
        {
          "name": "_teamWallet",
          "type": "address"
        }
      ],
      "payable": false,
      "type": "constructor",
      "stateMutability": "nonpayable"
    },
    {
      "payable": true,
      "type": "fallback",
      "stateMutability": "payable"
    },
    {
      "anonymous": false,
      "inputs": [
        {
          "indexed": false,
          "name": "_buyer",
          "type": "address"
        },
        {
          "indexed": false,
          "name": "_amount",
          "type": "uint256"
        }
      ],
      "name": "LogTokensReserved",
      "type": "event"
    },
    {
      "anonymous": false,
      "inputs": [
        {
          "indexed": false,
          "name": "_investor",
          "type": "address"
        },
        {
          "indexed": false,
          "name": "_amount",
          "type": "uint256"
        }
      ],
      "name": "LogWithdrawal",
      "type": "event"
    },
    {
      "anonymous": false,
      "inputs": [
        {
          "indexed": true,
          "name": "previousOwner",
          "type": "address"
        },
        {
          "indexed": true,
          "name": "newOwner",
          "type": "address"
        }
      ],
      "name": "OwnershipTransferred",
      "type": "event"
    }
  ],
  "bytecode": "0x6060604052341561000f57600080fd5b604051606080611e80833981016040528080519060200190919080519060200190919080519060200190919050506000336000806101000a81548173ffffffffffffffffffffffffffffffffffffffff021916908373ffffffffffffffffffffffffffffffffffffffff16021790555060008473ffffffffffffffffffffffffffffffffffffffff16141515156100a557600080fd5b60008373ffffffffffffffffffffffffffffffffffffffff16141515156100cb57600080fd5b60008273ffffffffffffffffffffffffffffffffffffffff16141515156100f157600080fd5b83600160006101000a81548173ffffffffffffffffffffffffffffffffffffffff021916908373ffffffffffffffffffffffffffffffffffffffff16021790555042600281905550624f1a00420160038190555081600460006101000a81548173ffffffffffffffffffffffffffffffffffffffff021916908373ffffffffffffffffffffffffffffffffffffffff160217905550600060058190555082600c60006101000a81548173ffffffffffffffffffffffffffffffffffffffff021916908373ffffffffffffffffffffffffffffffffffffffff160217905550600a60068190555069032d26d12e980b6000006007819055506000600a60026101000a81548160ff02191690831515021790555033600860006101000a81548173ffffffffffffffffffffffffffffffffffffffff021916908373ffffffffffffffffffffffffffffffffffffffff1602179055506922f0aafd00887d200000600981905550600090505b600660ff168160ff1610156102f3576402540be4006305f5e10002600d60008360ff1660ff168152602001908152602001600020600001819055508060960260ff16610f3c0361ffff16600d60008360ff1660ff168152602001908152602001600020600101819055506000600d60008360ff1660ff16815260200190815260200160002060020181905550808060010191505061025a565b50505050611b7a806103066000396000f3006060604052600436106100fc576000357c0100000000000000000000000000000000000000000000000000000000900463ffffffff16806305261aea146101015780631fd8088d14610124578063241849e41461014d5780632b17b6a914610188578063313ce567146101dd578063355274ea146102065780634042b66f1461022f578063439766ce146102585780634b8feb4f1461026d57806359927044146102c257806362e7707e146103175780637e1055b61461037c5780638da5cb5b146103a5578063a7c3d71b146103fa578063b33712c514610423578063d0febe4c14610438578063d1e650341461045c578063f2fde38b14610489575b600080fd5b341561010c57600080fd5b61012260048080359060200190919050506104c2565b005b341561012f57600080fd5b610137610822565b6040518082815260200191505060405180910390f35b341561015857600080fd5b610186600480803560ff1690602001909190803560ff16906020019091908035906020019091905050610828565b005b341561019357600080fd5b61019b61097a565b604051808273ffffffffffffffffffffffffffffffffffffffff1673ffffffffffffffffffffffffffffffffffffffff16815260200191505060405180910390f35b34156101e857600080fd5b6101f06109a0565b6040518082815260200191505060405180910390f35b341561021157600080fd5b6102196109a6565b6040518082815260200191505060405180910390f35b341561023a57600080fd5b6102426109ac565b6040518082815260200191505060405180910390f35b341561026357600080fd5b61026b6109b2565b005b341561027857600080fd5b610280610a2a565b604051808273ffffffffffffffffffffffffffffffffffffffff1673ffffffffffffffffffffffffffffffffffffffff16815260200191505060405180910390f35b34156102cd57600080fd5b6102d5610a50565b604051808273ffffffffffffffffffffffffffffffffffffffff1673ffffffffffffffffffffffffffffffffffffffff16815260200191505060405180910390f35b341561032257600080fd5b61037a6004808035906020019082018035906020019080806020026020016040519081016040528093929190818152602001838360200280828437820191505050505050919080351515906020019091905050610a76565b005b341561038757600080fd5b61038f610b34565b6040518082815260200191505060405180910390f35b34156103b057600080fd5b6103b8610b3a565b604051808273ffffffffffffffffffffffffffffffffffffffff1673ffffffffffffffffffffffffffffffffffffffff16815260200191505060405180910390f35b341561040557600080fd5b61040d610b60565b6040518082815260200191505060405180910390f35b341561042e57600080fd5b610436610b66565b005b610440610bde565b604051808260ff1660ff16815260200191505060405180910390f35b341561046757600080fd5b61046f6112ab565b604051808215151515815260200191505060405180910390f35b341561049457600080fd5b6104c0600480803573ffffffffffffffffffffffffffffffffffffffff1690602001909190505061150c565b005b6009546005541015806104d6575060035442115b806104e8575060006104e6611661565b145b15156104f357600080fd5b6000809054906101000a900473ffffffffffffffffffffffffffffffffffffffff1673ffffffffffffffffffffffffffffffffffffffff163373ffffffffffffffffffffffffffffffffffffffff1614151561054e57600080fd5b61055661171e565b600c60009054906101000a900473ffffffffffffffffffffffffffffffffffffffff1673ffffffffffffffffffffffffffffffffffffffff166323b872dd600860009054906101000a900473ffffffffffffffffffffffffffffffffffffffff16600160009054906101000a900473ffffffffffffffffffffffffffffffffffffffff166105e2611661565b6000604051602001526040518463ffffffff167c0100000000000000000000000000000000000000000000000000000000028152600401808473ffffffffffffffffffffffffffffffffffffffff1673ffffffffffffffffffffffffffffffffffffffff1681526020018373ffffffffffffffffffffffffffffffffffffffff1673ffffffffffffffffffffffffffffffffffffffff1681526020018281526020019350505050602060405180830381600087803b15156106a257600080fd5b6102c65a03f115156106b357600080fd5b5050506040518051905050600c60009054906101000a900473ffffffffffffffffffffffffffffffffffffffff1673ffffffffffffffffffffffffffffffffffffffff166323b872dd600860009054906101000a900473ffffffffffffffffffffffffffffffffffffffff16600460009054906101000a900473ffffffffffffffffffffffffffffffffffffffff16846000604051602001526040518463ffffffff167c0100000000000000000000000000000000000000000000000000000000028152600401808473ffffffffffffffffffffffffffffffffffffffff1673ffffffffffffffffffffffffffffffffffffffff1681526020018373ffffffffffffffffffffffffffffffffffffffff1673ffffffffffffffffffffffffffffffffffffffff1681526020018281526020019350505050602060405180830381600087803b151561080357600080fd5b6102c65a03f1151561081457600080fd5b505050604051805190505050565b60075481565b6000809054906101000a900473ffffffffffffffffffffffffffffffffffffffff1673ffffffffffffffffffffffffffffffffffffffff163373ffffffffffffffffffffffffffffffffffffffff1614151561088357600080fd5b6001600a60016101000a81548160ff021916908315150217905515156108a857600080fd5b8160ff168360ff161115156108bc57600080fd5b610907600d60008560ff1660ff16815260200190815260200160002060020154600d60008660ff1660ff1681526020019081526020016000206000015461179990919063ffffffff16565b811115151561091557600080fd5b61094481600d60008660ff1660ff1681526020019081526020016000206000015461179990919063ffffffff16565b5061097481600d60008560ff1660ff168152602001908152602001600020600001546117b290919063ffffffff16565b50505050565b600c60009054906101000a900473ffffffffffffffffffffffffffffffffffffffff1681565b60065481565b60095481565b60055481565b6000809054906101000a900473ffffffffffffffffffffffffffffffffffffffff1673ffffffffffffffffffffffffffffffffffffffff163373ffffffffffffffffffffffffffffffffffffffff16141515610a0d57600080fd5b6001600a60016101000a81548160ff021916908315150217905550565b600160009054906101000a900473ffffffffffffffffffffffffffffffffffffffff1681565b600460009054906101000a900473ffffffffffffffffffffffffffffffffffffffff1681565b6000806000809054906101000a900473ffffffffffffffffffffffffffffffffffffffff1673ffffffffffffffffffffffffffffffffffffffff163373ffffffffffffffffffffffffffffffffffffffff16141515610ad457600080fd5b600091505b8351821015610b2e578382815181101515610af057fe5b906020019060200201519050600115158315151415610b1757610b12816117d0565b610b21565b610b2081611a2b565b5b8180600101925050610ad9565b50505050565b60035481565b600860009054906101000a900473ffffffffffffffffffffffffffffffffffffffff1681565b60025481565b6000809054906101000a900473ffffffffffffffffffffffffffffffffffffffff1673ffffffffffffffffffffffffffffffffffffffff163373ffffffffffffffffffffffffffffffffffffffff16141515610bc157600080fd5b6000600a60016101000a81548160ff021916908315150217905550565b600080600080600080600954600554101580610bfb575060035442115b80610c0d57506000610c0b611661565b145b1515610c1857600080fd5b60001515600a60019054906101000a900460ff161515141515610c3a57600080fd5b6000803690501480610c50575060046000369050145b1515610c5b57600080fd5b600280811115610c6757fe5b600b60003373ffffffffffffffffffffffffffffffffffffffff1673ffffffffffffffffffffffffffffffffffffffff16815260200190815260200160002060020160009054906101000a900460ff166002811115610cc257fe5b14151515610ccf57600080fd5b6706f05b59d3b200003410151515610ce657600080fd5b610d556402540be400610d47670de0b6b3a7640000610d39600d6000600a60009054906101000a900460ff1660ff1660ff1681526020019081526020016000206001015434611b0090919063ffffffff16565b611b3390919063ffffffff16565b611b0090919063ffffffff16565b9450600d6000600a60009054906101000a900460ff1660ff1660ff16815260200190815260200160002060000154610dc1600d6000600a60009054906101000a900460ff1660ff1660ff16815260200190815260200160002060020154876117b290919063ffffffff16565b101515610f8957610e31600d6000600a60009054906101000a900460ff1660ff1660ff16815260200190815260200160002060020154600d6000600a60009054906101000a900460ff1660ff1660ff1681526020019081526020016000206000015461179990919063ffffffff16565b93508385141515610ec057610ebd610eae6402540be400610ea0670de0b6b3a7640000610e92600d6000600a60009054906101000a900460ff1660ff1660ff168152602001908152602001600020600101548a611b3390919063ffffffff16565b611b0090919063ffffffff16565b611b3390919063ffffffff16565b3461179990919063ffffffff16565b92505b839450600a600081819054906101000a900460ff168092919060010191906101000a81548160ff021916908360ff160217905550506005600a60009054906101000a900460ff1660ff16111515610f8857610f806402540be400610f72670de0b6b3a7640000610f64600d6000600a60009054906101000a900460ff1660ff1660ff1681526020019081526020016000206001015488611b0090919063ffffffff16565b611b3390919063ffffffff16565b611b0090919063ffffffff16565b915081850194505b5b34905080600560008282540192505081905550600954600554111561101757610fbf60055460095461179990919063ffffffff16565b503373ffffffffffffffffffffffffffffffffffffffff166108fc610ff160095460055461179990919063ffffffff16565b9081150290604051600060405180830381858888f19350505050151561101657600080fd5b5b600160009054906101000a900473ffffffffffffffffffffffffffffffffffffffff1673ffffffffffffffffffffffffffffffffffffffff166108fc349081150290604051600060405180830381858888f19350505050151561107957600080fd5b84600d6000600a60009054906101000a900460ff1660ff1660ff16815260200190815260200160002060020160008282540192505081905550600160028111156110bf57fe5b600b60003373ffffffffffffffffffffffffffffffffffffffff1673ffffffffffffffffffffffffffffffffffffffff16815260200190815260200160002060020160009054906101000a900460ff16600281111561111a57fe5b141515611186576000600b60003373ffffffffffffffffffffffffffffffffffffffff1673ffffffffffffffffffffffffffffffffffffffff16815260200190815260200160002060020160006101000a81548160ff0219169083600281111561118057fe5b02179055505b84600b60003373ffffffffffffffffffffffffffffffffffffffff1673ffffffffffffffffffffffffffffffffffffffff1681526020019081526020016000206001016000828254019250508190555080600b60003373ffffffffffffffffffffffffffffffffffffffff1673ffffffffffffffffffffffffffffffffffffffff168152602001908152602001600020600001600082825401925050819055507f6387c93d20b3ff07ec699718ca35c71c5a2a744b6cf874e48db2d3ce8c74db103386604051808373ffffffffffffffffffffffffffffffffffffffff1673ffffffffffffffffffffffffffffffffffffffff1681526020018281526020019250505060405180910390a1600a60009054906101000a900460ff169550505050505090565b60008060001515600a60019054906101000a900460ff1615151415156112d057600080fd5b6009546005541015806112e4575060035442115b806112f6575060006112f4611661565b145b151561130157600080fd5b600754600554101515611384576001600281111561131b57fe5b600b60003373ffffffffffffffffffffffffffffffffffffffff1673ffffffffffffffffffffffffffffffffffffffff16815260200190815260200160002060020160009054906101000a900460ff16600281111561137657fe5b1415151561138357600080fd5b5b600b60003373ffffffffffffffffffffffffffffffffffffffff1673ffffffffffffffffffffffffffffffffffffffff1681526020019081526020016000206000015490506000600b60003373ffffffffffffffffffffffffffffffffffffffff1673ffffffffffffffffffffffffffffffffffffffff168152602001908152602001600020600001819055506000600b60003373ffffffffffffffffffffffffffffffffffffffff1673ffffffffffffffffffffffffffffffffffffffff168152602001908152602001600020600101819055503373ffffffffffffffffffffffffffffffffffffffff166108fc829081150290604051600060405180830381858888f19350505050151561149957600080fd5b7fb4214c8c54fc7442f36d3682f59aebaf09358a4431835b30efb29d52cf9e1e913382604051808373ffffffffffffffffffffffffffffffffffffffff1673ffffffffffffffffffffffffffffffffffffffff1681526020018281526020019250505060405180910390a1600191505090565b6000809054906101000a900473ffffffffffffffffffffffffffffffffffffffff1673ffffffffffffffffffffffffffffffffffffffff163373ffffffffffffffffffffffffffffffffffffffff1614151561156757600080fd5b600073ffffffffffffffffffffffffffffffffffffffff168173ffffffffffffffffffffffffffffffffffffffff16141515156115a357600080fd5b8073ffffffffffffffffffffffffffffffffffffffff166000809054906101000a900473ffffffffffffffffffffffffffffffffffffffff1673ffffffffffffffffffffffffffffffffffffffff167f8be0079c531659141344cd1fd0a4f28419497f9722a3daafe3b4186f6b6457e060405160405180910390a3806000806101000a81548173ffffffffffffffffffffffffffffffffffffffff021916908373ffffffffffffffffffffffffffffffffffffffff16021790555050565b60008060008090505b600660ff168160ff16101561171657600d60008260ff1660ff16815260200190815260200160002060000154600d60008360ff1660ff16815260200190815260200160002060020154101561170957611704600d60008360ff1660ff16815260200190815260200160002060020154600d60008460ff1660ff1681526020019081526020016000206000015461179990919063ffffffff16565b820191505b808060010191505061166a565b819250505090565b600160009054906101000a900473ffffffffffffffffffffffffffffffffffffffff1673ffffffffffffffffffffffffffffffffffffffff166108fc3073ffffffffffffffffffffffffffffffffffffffff16319081150290604051600060405180830381858888f19350505050151561179757600080fd5b565b60008282111515156117a757fe5b818303905092915050565b60008082840190508381101515156117c657fe5b8091505092915050565b6000808273ffffffffffffffffffffffffffffffffffffffff16141515156117f757600080fd5b6001600b60008473ffffffffffffffffffffffffffffffffffffffff1673ffffffffffffffffffffffffffffffffffffffff16815260200190815260200160002060020160006101000a81548160ff0219169083600281111561185657fe5b0217905550600b60008373ffffffffffffffffffffffffffffffffffffffff1673ffffffffffffffffffffffffffffffffffffffff1681526020019081526020016000206001015490506000600b60008473ffffffffffffffffffffffffffffffffffffffff1673ffffffffffffffffffffffffffffffffffffffff16815260200190815260200160002060010181905550600c60009054906101000a900473ffffffffffffffffffffffffffffffffffffffff1673ffffffffffffffffffffffffffffffffffffffff166323b872dd600860009054906101000a900473ffffffffffffffffffffffffffffffffffffffff1684846000604051602001526040518463ffffffff167c0100000000000000000000000000000000000000000000000000000000028152600401808473ffffffffffffffffffffffffffffffffffffffff1673ffffffffffffffffffffffffffffffffffffffff1681526020018373ffffffffffffffffffffffffffffffffffffffff1673ffffffffffffffffffffffffffffffffffffffff1681526020018281526020019350505050602060405180830381600087803b1515611a0b57600080fd5b6102c65a03f11515611a1c57600080fd5b50505060405180519050505050565b60008173ffffffffffffffffffffffffffffffffffffffff1614151515611a5157600080fd5b6002600b60008373ffffffffffffffffffffffffffffffffffffffff1673ffffffffffffffffffffffffffffffffffffffff16815260200190815260200160002060020160006101000a81548160ff02191690836002811115611ab057fe5b02179055506000600b60008373ffffffffffffffffffffffffffffffffffffffff1673ffffffffffffffffffffffffffffffffffffffff1681526020019081526020016000206001018190555050565b60008082840290506000841480611b215750828482811515611b1e57fe5b04145b1515611b2957fe5b8091505092915050565b6000808284811515611b4157fe5b04905080915050929150505600a165627a7a7230582055b6317f3c3801102f76027042558fdaa303d17cf9c790c6e8b7bfa36279cd8c0029",
  "source": "pragma solidity ^0.4.18;\r\n//version 0.1.2\r\nimport './CBNBToken.sol';\r\nimport './Ownable.sol';\r\nimport './SafeMath.sol';\r\n\r\ncontract CBNBCrowdSale is Ownable{\r\n  using SafeMath for uint256;\r\n\r\n  uint256 constant internal MIN_CONTRIBUTION = 0.5 ether;\r\n  uint256 constant internal TOKEN_DECIMALS = 10**10;\r\n  uint8 constant internal TIER_COUNT = 6;\r\n\r\n  address public multiSigWallet;\r\n  uint256 public icoStartTime;\r\n  uint256 public icoEndTime;\r\n  address public teamWallet;\r\n  uint256 public weiRaised;\r\n  uint256 public decimals;\r\n  uint256 public minLimit;\r\n  address public owner;\r\n  uint256 public cap;\r\n  uint8 private tier;\r\n  bool private paused;\r\n  bool private lockTier;\r\n\r\n  enum Status {\r\n    New, Approved, Denied\r\n  }\r\n\r\n  struct WhitelistedInvestors {\r\n    uint256 contrAmount; //amount in wei\r\n    uint256 qtyTokens;\r\n    Status whitelistStatus;\r\n  }\r\n\r\n  mapping(address => WhitelistedInvestors) investors;\r\n\r\n  //The CryptoBnB token contract\r\n  CBNBToken public bnbToken; \r\n\r\n  /// @dev Sale tiers for Institution-ICO, public Pre-ICO, and ICO\r\n  /// @dev Sets the time of start and finish, it will be time of pushing\r\n  /// @dev to the mainnet plus days/hours etc.\r\n  struct SaleTier {      \r\n    uint256 tokensToBeSold;  //amount of tokens to be sold in this SaleTier\r\n    uint256 price;           //amount of tokens per wei\r\n    uint256 tokensSold;      //amount of tokens sold in each SaleTier     \r\n  }\r\n   \r\n  mapping(uint8 => SaleTier) saleTier;\r\n\r\n  event LogTokensReserved(address _buyer, uint256 _amount);\r\n  event LogWithdrawal(address _investor, uint256 _amount); \r\n \r\n  modifier isValidPayload() {\r\n    require(msg.data.length == 0 || msg.data.length == 4); // double check this one\r\n    _;\r\n  }\r\n\r\n  modifier icoHasEnded() {\r\n    require(weiRaised >= cap || now > icoEndTime || calculateUnsoldICOTokens() == 0);\r\n    _;\r\n  }\r\n\r\n  modifier contractPaused(){\r\n    require(paused == false);\r\n    _;\r\n  }\r\n\r\n  /// @dev confirm price thresholds and amounts\r\n  ///  multiSigWallet for holding ether\r\n  ///  bnbToken token address pushed to mainnet first\r\n  function CBNBCrowdSale(address _multiSigWallet, address _bnbToken, address _teamWallet) \r\n    public \r\n  {\r\n    require(_multiSigWallet != 0x0);\r\n    require(_bnbToken != 0x0);\r\n    require(_teamWallet != 0x0);     \r\n\r\n    multiSigWallet = _multiSigWallet;\r\n    icoStartTime = now; //pick a block number to start on\r\n    icoEndTime = now + 60 days; //pick a block number to end on\r\n    teamWallet = _teamWallet;\r\n    weiRaised = 0;\r\n    bnbToken = CBNBToken(_bnbToken);    \r\n    decimals = 10;\r\n    minLimit = 15000 ether;\r\n    lockTier = false;\r\n    owner = msg.sender;\r\n    cap = 165000 ether;\r\n\r\n   for(uint8 i=0; i<TIER_COUNT; i++){ \r\n    saleTier[i].tokensToBeSold = 100000000*TOKEN_DECIMALS;\r\n    saleTier[i].price = (3900 - 150*i); //tokens per eth\r\n    saleTier[i].tokensSold = 0;\r\n   }\r\n }\r\n\r\n  /// @dev Fallback function.\r\n  /// @dev Reject random eth being sent to the contract.\r\n  function()\r\n    public\r\n    payable\r\n  {\r\n    revert();\r\n  }\r\n\r\n  /// @notice buyer calls this function to order to get on the list for approval\r\n  /// buyers must send the ether with their whitelist application\r\n  function buyTokens()\r\n    external\r\n    payable\r\n    icoHasEnded\r\n    contractPaused\r\n    isValidPayload\r\n    \r\n    returns (uint8)\r\n  {\r\n    require(investors[msg.sender].whitelistStatus != Status.Denied);\r\n    require(msg.value >= MIN_CONTRIBUTION);\r\n\r\n    uint256 qtyOfTokensRequested;\r\n    uint256 tierRemainingTokens;\r\n    uint256 remainingWei;\r\n    \r\n    qtyOfTokensRequested = ((msg.value.mul(saleTier[tier].price)).div(10**18)).mul(TOKEN_DECIMALS);\r\n    \r\n    if ((qtyOfTokensRequested.add(saleTier[tier].tokensSold)) >= (saleTier[tier].tokensToBeSold)){\r\n      tierRemainingTokens = saleTier[tier].tokensToBeSold.sub(saleTier[tier].tokensSold);\r\n\r\n      /// if someone buys the very last tokens for sale with an amount that results in a remainder then\r\n      /// there will be a manual return once the sale is complete\r\n      if(qtyOfTokensRequested != tierRemainingTokens){\r\n        remainingWei = msg.value.sub(((tierRemainingTokens.div(saleTier[tier].price)).mul(10**18)).div(TOKEN_DECIMALS)); \r\n      }\r\n\r\n      qtyOfTokensRequested = tierRemainingTokens;\r\n      tier++; //Will allow to roll from one tier to the next.\r\n\r\n      if (tier <= 5){\r\n        uint256 buyTokensRemainingWei = ((remainingWei.mul(saleTier[tier].price)).div(10**18)).mul(TOKEN_DECIMALS);\r\n        qtyOfTokensRequested += buyTokensRemainingWei;\r\n      } \r\n    }\r\n\r\n    uint256 amount = msg.value;\r\n    weiRaised += amount;\r\n\r\n    if(weiRaised > cap){\r\n      cap.sub(weiRaised);\r\n      msg.sender.transfer(weiRaised.sub(cap));\r\n    }\r\n\r\n    multiSigWallet.transfer(msg.value);\r\n  \r\n    saleTier[tier].tokensSold += qtyOfTokensRequested;\r\n\r\n    if(investors[msg.sender].whitelistStatus != Status.Approved){\r\n      investors[msg.sender].whitelistStatus = Status.New;\r\n    }\r\n\r\n    investors[msg.sender].qtyTokens += qtyOfTokensRequested;\r\n    investors[msg.sender].contrAmount += amount; //will I get my value to stay and the eth to go?\r\n\r\n    LogTokensReserved(msg.sender, qtyOfTokensRequested);\r\n    return tier;\r\n  }\r\n\r\n  /// notice interface for founders to whitelist investors\r\n  ///  addresses array of investors\r\n  ///  tier tier Number\r\n  ///  status enable or disable\r\n  function whitelistAddresses(address[] _addresses, bool _status) \r\n    public \r\n    onlyOwner \r\n    {\r\n        for (uint256 i = 0; i < _addresses.length; i++) {\r\n            address investorAddress = _addresses[i];\r\n            if(_status == true){\r\n                approvedWhitelistAddress(investorAddress); \r\n            } else {\r\n                deniedWhitelistAddress(investorAddress);  \r\n            } \r\n        }\r\n   }\r\n\r\n  /// notice sends requested tokens to the whitelist person\r\n  function approvedWhitelistAddress(address _investorAddress) \r\n    internal\r\n  {\r\n    require(_investorAddress != 0x0);\r\n    investors[_investorAddress].whitelistStatus = Status.Approved;\r\n    uint256 tkns = investors[_investorAddress].qtyTokens;\r\n    investors[_investorAddress].qtyTokens = 0;\r\n    bnbToken.transferFrom(owner, _investorAddress, tkns);\r\n  }\r\n\r\n  /// @notice allows denied buyers the ability to get their Ether back\r\n  function deniedWhitelistAddress(address _investorAddress) \r\n    internal \r\n  {\r\n    require(_investorAddress != 0x0);\r\n    investors[_investorAddress].whitelistStatus = Status.Denied;\r\n    investors[_investorAddress].qtyTokens = 0;     \r\n  }\r\n\r\n  /// @notice used to move tokens from the later tiers into the earlier tiers\r\n  /// contract must be paused to do the move\r\n  /// param tier from later tier to subtract the tokens from\r\n  /// param tier to add the tokens to\r\n  /// param how many tokens to take\r\n  function moveTokensForSale(uint8 _tierFrom, uint8 _tierTo, uint256 _tokens) \r\n    public\r\n    onlyOwner\r\n  {\r\n    require(paused = true);\r\n    require(_tierFrom > _tierTo);\r\n    require(_tokens <= ((saleTier[_tierFrom].tokensToBeSold).sub(saleTier[_tierFrom].tokensSold)));\r\n\r\n    saleTier[_tierFrom].tokensToBeSold.sub(_tokens);\r\n    saleTier[_tierTo].tokensToBeSold.add(_tokens);\r\n  }\r\n\r\n  /// @notice pause specific funtions of the contract\r\n  function pauseContract() public onlyOwner {\r\n    paused = true;\r\n  }\r\n\r\n  /// @notice to unpause functions\r\n  function unpauseContract() public onlyOwner {\r\n    paused = false;\r\n  }      \r\n\r\n  /// @notice users can withdraw the wei eth sent\r\n  /// used for refund process incase not enough funds raised\r\n  /// or denied in the approval process\r\n  /// @notice no ether will be held in the crowdsale contract\r\n  /// when refunds become available the amount of ETH needed will\r\n  /// be manually transfered back to the crowdsale to be refunded\r\n  function RefundWithdrawal()\r\n    external\r\n    contractPaused\r\n    icoHasEnded\r\n    returns (bool success)\r\n  {\r\n    if(weiRaised >= minLimit){\r\n      require(investors[msg.sender].whitelistStatus != Status.Approved);\r\n    }\r\n\r\n    uint256 sendValue = investors[msg.sender].contrAmount;\r\n    investors[msg.sender].contrAmount = 0;\r\n    investors[msg.sender].qtyTokens = 0;\r\n    msg.sender.transfer(sendValue);\r\n  \r\n    LogWithdrawal(msg.sender, sendValue);\r\n    return true;\r\n  }\r\n\r\n  /// @dev freeze unsold tokens for use at a later time\r\n  /// and transfer team, owner and other internally promised tokens\r\n  /// param total number of tokens being transfered to the freeze wallet\r\n  function finalize(uint256 _internalTokens)\r\n    public\r\n    icoHasEnded\r\n    onlyOwner\r\n  {\r\n    cleanup();\r\n    bnbToken.transferFrom(owner, multiSigWallet, calculateUnsoldICOTokens());\r\n    bnbToken.transferFrom(owner, teamWallet, _internalTokens);   \r\n  }\r\n  \r\n  /// @notice Transfer any ether accidentally left in this contract \r\n  function cleanup()\r\n    internal\r\n  {\r\n    multiSigWallet.transfer(this.balance);\r\n  }\r\n\r\n  /// @notice calculate unsold tokens for transfer to multiSigWallet to be used at a later date\r\n  function calculateUnsoldICOTokens()\r\n    internal\r\n    returns (uint256)\r\n  {\r\n    uint256 remainingTokens;\r\n    for(uint8 i = 0; i < TIER_COUNT; i++){\r\n      if(saleTier[i].tokensSold < saleTier[i].tokensToBeSold){\r\n        remainingTokens += saleTier[i].tokensToBeSold.sub(saleTier[i].tokensSold);\r\n      }\r\n    }\r\n    return remainingTokens;\r\n  }\r\n}",
  "sourcePath": "D:\\Projects\\CryptoBNB\\contracts\\CBNBCrowdSale.sol",
  "compiler": {
    "name": "solc",
    "version": "0.4.18+commit.9cf6e910.Emscripten.clang"
  },
  "schemaVersion": "1.0.1",
  "updatedAt": "2017-11-25T16:06:30.930Z"
}