{
  "contractName": "CBNBCrowdSale",
  "abi": [
    {
      "constant": false,
      "inputs": [
        {
          "name": "_internalTokens",
          "type": "uint256"
        }
      ],
      "name": "finalize",
      "outputs": [],
      "payable": false,
      "type": "function",
      "stateMutability": "nonpayable"
    },
    {
      "constant": true,
      "inputs": [],
      "name": "minLimit",
      "outputs": [
        {
          "name": "",
          "type": "uint256"
        }
      ],
      "payable": false,
      "type": "function",
      "stateMutability": "view"
    },
    {
      "constant": false,
      "inputs": [
        {
          "name": "_tierFrom",
          "type": "uint8"
        },
        {
          "name": "_tierTo",
          "type": "uint8"
        },
        {
          "name": "_tokens",
          "type": "uint256"
        }
      ],
      "name": "moveTokensForSale",
      "outputs": [],
      "payable": false,
      "type": "function",
      "stateMutability": "nonpayable"
    },
    {
      "constant": true,
      "inputs": [],
      "name": "bnbToken",
      "outputs": [
        {
          "name": "",
          "type": "address"
        }
      ],
      "payable": false,
      "type": "function",
      "stateMutability": "view"
    },
    {
      "constant": true,
      "inputs": [],
      "name": "decimals",
      "outputs": [
        {
          "name": "",
          "type": "uint256"
        }
      ],
      "payable": false,
      "type": "function",
      "stateMutability": "view"
    },
    {
      "constant": true,
      "inputs": [],
      "name": "cap",
      "outputs": [
        {
          "name": "",
          "type": "uint256"
        }
      ],
      "payable": false,
      "type": "function",
      "stateMutability": "view"
    },
    {
      "constant": true,
      "inputs": [],
      "name": "weiRaised",
      "outputs": [
        {
          "name": "",
          "type": "uint256"
        }
      ],
      "payable": false,
      "type": "function",
      "stateMutability": "view"
    },
    {
      "constant": false,
      "inputs": [],
      "name": "pauseContract",
      "outputs": [],
      "payable": false,
      "type": "function",
      "stateMutability": "nonpayable"
    },
    {
      "constant": true,
      "inputs": [],
      "name": "multiSigWallet",
      "outputs": [
        {
          "name": "",
          "type": "address"
        }
      ],
      "payable": false,
      "type": "function",
      "stateMutability": "view"
    },
    {
      "constant": true,
      "inputs": [],
      "name": "teamWallet",
      "outputs": [
        {
          "name": "",
          "type": "address"
        }
      ],
      "payable": false,
      "type": "function",
      "stateMutability": "view"
    },
    {
      "constant": false,
      "inputs": [
        {
          "name": "_addresses",
          "type": "address[]"
        },
        {
          "name": "_status",
          "type": "bool"
        }
      ],
      "name": "whitelistAddresses",
      "outputs": [],
      "payable": false,
      "type": "function",
      "stateMutability": "nonpayable"
    },
    {
      "constant": true,
      "inputs": [],
      "name": "icoEndTime",
      "outputs": [
        {
          "name": "",
          "type": "uint256"
        }
      ],
      "payable": false,
      "type": "function",
      "stateMutability": "view"
    },
    {
      "constant": true,
      "inputs": [],
      "name": "owner",
      "outputs": [
        {
          "name": "",
          "type": "address"
        }
      ],
      "payable": false,
      "type": "function",
      "stateMutability": "view"
    },
    {
      "constant": true,
      "inputs": [],
      "name": "icoStartTime",
      "outputs": [
        {
          "name": "",
          "type": "uint256"
        }
      ],
      "payable": false,
      "type": "function",
      "stateMutability": "view"
    },
    {
      "constant": false,
      "inputs": [],
      "name": "unpauseContract",
      "outputs": [],
      "payable": false,
      "type": "function",
      "stateMutability": "nonpayable"
    },
    {
      "constant": false,
      "inputs": [],
      "name": "buyTokens",
      "outputs": [
        {
          "name": "",
          "type": "uint8"
        }
      ],
      "payable": true,
      "type": "function",
      "stateMutability": "payable"
    },
    {
      "constant": false,
      "inputs": [],
      "name": "RefundWithdrawal",
      "outputs": [
        {
          "name": "success",
          "type": "bool"
        }
      ],
      "payable": false,
      "type": "function",
      "stateMutability": "nonpayable"
    },
    {
      "constant": false,
      "inputs": [
        {
          "name": "newOwner",
          "type": "address"
        }
      ],
      "name": "transferOwnership",
      "outputs": [],
      "payable": false,
      "type": "function",
      "stateMutability": "nonpayable"
    },
    {
      "inputs": [
        {
          "name": "_multiSigWallet",
          "type": "address"
        },
        {
          "name": "_bnbToken",
          "type": "address"
        },
        {
          "name": "_teamWallet",
          "type": "address"
        }
      ],
      "payable": false,
      "type": "constructor",
      "stateMutability": "nonpayable"
    },
    {
      "payable": true,
      "type": "fallback",
      "stateMutability": "payable"
    },
    {
      "anonymous": false,
      "inputs": [
        {
          "indexed": false,
          "name": "_owner",
          "type": "address"
        },
        {
          "indexed": false,
          "name": "_msgsender",
          "type": "address"
        },
        {
          "indexed": false,
          "name": "_qtyOfTokensRequested",
          "type": "uint256"
        }
      ],
      "name": "LogTokensTransferedFrom",
      "type": "event"
    },
    {
      "anonymous": false,
      "inputs": [
        {
          "indexed": false,
          "name": "_buyer",
          "type": "address"
        },
        {
          "indexed": false,
          "name": "_amount",
          "type": "uint256"
        }
      ],
      "name": "LogTokensReserved",
      "type": "event"
    },
    {
      "anonymous": false,
      "inputs": [
        {
          "indexed": false,
          "name": "_investor",
          "type": "address"
        },
        {
          "indexed": false,
          "name": "_amount",
          "type": "uint256"
        }
      ],
      "name": "LogWithdrawal",
      "type": "event"
    },
    {
      "anonymous": false,
      "inputs": [
        {
          "indexed": true,
          "name": "previousOwner",
          "type": "address"
        },
        {
          "indexed": true,
          "name": "newOwner",
          "type": "address"
        }
      ],
      "name": "OwnershipTransferred",
      "type": "event"
    }
  ],
  "bytecode": "0x6060604052341561000f57600080fd5b604051606080612107833981016040528080519060200190919080519060200190919080519060200190919050506000336000806101000a81548173ffffffffffffffffffffffffffffffffffffffff021916908373ffffffffffffffffffffffffffffffffffffffff16021790555060008473ffffffffffffffffffffffffffffffffffffffff16141515156100a557600080fd5b60008373ffffffffffffffffffffffffffffffffffffffff16141515156100cb57600080fd5b60008273ffffffffffffffffffffffffffffffffffffffff16141515156100f157600080fd5b83600160006101000a81548173ffffffffffffffffffffffffffffffffffffffff021916908373ffffffffffffffffffffffffffffffffffffffff16021790555042600281905550624f1a00420160038190555081600460006101000a81548173ffffffffffffffffffffffffffffffffffffffff021916908373ffffffffffffffffffffffffffffffffffffffff160217905550600060058190555082600c60006101000a81548173ffffffffffffffffffffffffffffffffffffffff021916908373ffffffffffffffffffffffffffffffffffffffff160217905550600a60068190555069032d26d12e980b60000060078190555033600860006101000a81548173ffffffffffffffffffffffffffffffffffffffff021916908373ffffffffffffffffffffffffffffffffffffffff160217905550692435edb7132bb4e00000600981905550600090505b600660ff168160ff1610156102d8576402540be4006305f5e10002600d60008360ff1660ff168152602001908152602001600020600001819055508060960260ff16610f3c0361ffff16600d60008360ff1660ff168152602001908152602001600020600101819055506000600d60008360ff1660ff16815260200190815260200160002060020181905550808060010191505061023f565b50505050611e1c806102eb6000396000f3006060604052600436106100fc576000357c0100000000000000000000000000000000000000000000000000000000900463ffffffff16806305261aea1461015a5780631fd8088d1461017d578063241849e4146101a65780632b17b6a9146101e1578063313ce56714610236578063355274ea1461025f5780634042b66f14610288578063439766ce146102b15780634b8feb4f146102c6578063599270441461031b57806362e7707e146103705780637e1055b6146103d55780638da5cb5b146103fe578063a7c3d71b14610453578063b33712c51461047c578063d0febe4c14610491578063d1e65034146104b5578063f2fde38b146104e2575b600860009054906101000a900473ffffffffffffffffffffffffffffffffffffffff1673ffffffffffffffffffffffffffffffffffffffff163373ffffffffffffffffffffffffffffffffffffffff1614151561015857600080fd5b005b341561016557600080fd5b61017b600480803590602001909190505061051b565b005b341561018857600080fd5b61019061087b565b6040518082815260200191505060405180910390f35b34156101b157600080fd5b6101df600480803560ff1690602001909190803560ff16906020019091908035906020019091905050610881565b005b34156101ec57600080fd5b6101f46109d3565b604051808273ffffffffffffffffffffffffffffffffffffffff1673ffffffffffffffffffffffffffffffffffffffff16815260200191505060405180910390f35b341561024157600080fd5b6102496109f9565b6040518082815260200191505060405180910390f35b341561026a57600080fd5b6102726109ff565b6040518082815260200191505060405180910390f35b341561029357600080fd5b61029b610a05565b6040518082815260200191505060405180910390f35b34156102bc57600080fd5b6102c4610a0b565b005b34156102d157600080fd5b6102d9610a83565b604051808273ffffffffffffffffffffffffffffffffffffffff1673ffffffffffffffffffffffffffffffffffffffff16815260200191505060405180910390f35b341561032657600080fd5b61032e610aa9565b604051808273ffffffffffffffffffffffffffffffffffffffff1673ffffffffffffffffffffffffffffffffffffffff16815260200191505060405180910390f35b341561037b57600080fd5b6103d36004808035906020019082018035906020019080806020026020016040519081016040528093929190818152602001838360200280828437820191505050505050919080351515906020019091905050610acf565b005b34156103e057600080fd5b6103e8610b8d565b6040518082815260200191505060405180910390f35b341561040957600080fd5b610411610b93565b604051808273ffffffffffffffffffffffffffffffffffffffff1673ffffffffffffffffffffffffffffffffffffffff16815260200191505060405180910390f35b341561045e57600080fd5b610466610bb9565b6040518082815260200191505060405180910390f35b341561048757600080fd5b61048f610bbf565b005b610499610c37565b604051808260ff1660ff16815260200191505060405180910390f35b34156104c057600080fd5b6104c861148c565b604051808215151515815260200191505060405180910390f35b34156104ed57600080fd5b610519600480803573ffffffffffffffffffffffffffffffffffffffff169060200190919050506116ed565b005b60095460055410158061052f575060035442115b806105415750600061053f611842565b145b151561054c57600080fd5b6000809054906101000a900473ffffffffffffffffffffffffffffffffffffffff1673ffffffffffffffffffffffffffffffffffffffff163373ffffffffffffffffffffffffffffffffffffffff161415156105a757600080fd5b6105af6118ff565b600c60009054906101000a900473ffffffffffffffffffffffffffffffffffffffff1673ffffffffffffffffffffffffffffffffffffffff166323b872dd600860009054906101000a900473ffffffffffffffffffffffffffffffffffffffff16600160009054906101000a900473ffffffffffffffffffffffffffffffffffffffff1661063b611842565b6000604051602001526040518463ffffffff167c0100000000000000000000000000000000000000000000000000000000028152600401808473ffffffffffffffffffffffffffffffffffffffff1673ffffffffffffffffffffffffffffffffffffffff1681526020018373ffffffffffffffffffffffffffffffffffffffff1673ffffffffffffffffffffffffffffffffffffffff1681526020018281526020019350505050602060405180830381600087803b15156106fb57600080fd5b6102c65a03f1151561070c57600080fd5b5050506040518051905050600c60009054906101000a900473ffffffffffffffffffffffffffffffffffffffff1673ffffffffffffffffffffffffffffffffffffffff166323b872dd600860009054906101000a900473ffffffffffffffffffffffffffffffffffffffff16600460009054906101000a900473ffffffffffffffffffffffffffffffffffffffff16846000604051602001526040518463ffffffff167c0100000000000000000000000000000000000000000000000000000000028152600401808473ffffffffffffffffffffffffffffffffffffffff1673ffffffffffffffffffffffffffffffffffffffff1681526020018373ffffffffffffffffffffffffffffffffffffffff1673ffffffffffffffffffffffffffffffffffffffff1681526020018281526020019350505050602060405180830381600087803b151561085c57600080fd5b6102c65a03f1151561086d57600080fd5b505050604051805190505050565b60075481565b6000809054906101000a900473ffffffffffffffffffffffffffffffffffffffff1673ffffffffffffffffffffffffffffffffffffffff163373ffffffffffffffffffffffffffffffffffffffff161415156108dc57600080fd5b6001600a60016101000a81548160ff0219169083151502179055151561090157600080fd5b8160ff168360ff1611151561091557600080fd5b610960600d60008560ff1660ff16815260200190815260200160002060020154600d60008660ff1660ff1681526020019081526020016000206000015461197a90919063ffffffff16565b811115151561096e57600080fd5b61099d81600d60008660ff1660ff1681526020019081526020016000206000015461197a90919063ffffffff16565b506109cd81600d60008560ff1660ff1681526020019081526020016000206000015461199390919063ffffffff16565b50505050565b600c60009054906101000a900473ffffffffffffffffffffffffffffffffffffffff1681565b60065481565b60095481565b60055481565b6000809054906101000a900473ffffffffffffffffffffffffffffffffffffffff1673ffffffffffffffffffffffffffffffffffffffff163373ffffffffffffffffffffffffffffffffffffffff16141515610a6657600080fd5b6001600a60016101000a81548160ff021916908315150217905550565b600160009054906101000a900473ffffffffffffffffffffffffffffffffffffffff1681565b600460009054906101000a900473ffffffffffffffffffffffffffffffffffffffff1681565b6000806000809054906101000a900473ffffffffffffffffffffffffffffffffffffffff1673ffffffffffffffffffffffffffffffffffffffff163373ffffffffffffffffffffffffffffffffffffffff16141515610b2d57600080fd5b600091505b8351821015610b87578382815181101515610b4957fe5b906020019060200201519050600115158315151415610b7057610b6b816119b1565b610b7a565b610b7981611ccd565b5b8180600101925050610b32565b50505050565b60035481565b600860009054906101000a900473ffffffffffffffffffffffffffffffffffffffff1681565b60025481565b6000809054906101000a900473ffffffffffffffffffffffffffffffffffffffff1673ffffffffffffffffffffffffffffffffffffffff163373ffffffffffffffffffffffffffffffffffffffff16141515610c1a57600080fd5b6000600a60016101000a81548160ff021916908315150217905550565b600080600080600080600954600554108015610c54575060035442105b8015610c6757506000610c65611842565b115b1515610c7257600080fd5b60001515600a60019054906101000a900460ff161515141515610c9457600080fd5b6000803690501480610caa575060046000369050145b1515610cb557600080fd5b600280811115610cc157fe5b600b60003373ffffffffffffffffffffffffffffffffffffffff1673ffffffffffffffffffffffffffffffffffffffff16815260200190815260200160002060020160009054906101000a900460ff166002811115610d1c57fe5b14151515610d2957600080fd5b6706f05b59d3b200003410151515610d4057600080fd5b610daf6402540be400610da1670de0b6b3a7640000610d93600d6000600a60009054906101000a900460ff1660ff1660ff1681526020019081526020016000206001015434611da290919063ffffffff16565b611dd590919063ffffffff16565b611da290919063ffffffff16565b9350610e1a600d6000600a60009054906101000a900460ff1660ff1660ff16815260200190815260200160002060020154600d6000600a60009054906101000a900460ff1660ff1660ff1681526020019081526020016000206000015461197a90919063ffffffff16565b9250828410151561103257610ea6610e976402540be400610e89670de0b6b3a7640000610e7b600d6000600a60009054906101000a900460ff1660ff1660ff1681526020019081526020016000206001015489611dd590919063ffffffff16565b611da290919063ffffffff16565b611dd590919063ffffffff16565b3461197a90919063ffffffff16565b915082600d6000600a60009054906101000a900460ff1660ff1660ff16815260200190815260200160002060020160008282540192505081905550829350600a600081819054906101000a900460ff168092919060010191906101000a81548160ff021916908360ff16021790555050600660ff16600a60009054906101000a900460ff1660ff161015610fec57610fa36402540be400610f95670de0b6b3a7640000610f87600d6000600a60009054906101000a900460ff1660ff1660ff1681526020019081526020016000206001015487611da290919063ffffffff16565b611dd590919063ffffffff16565b611da290919063ffffffff16565b9450848401935084600d6000600a60009054906101000a900460ff1660ff1660ff168152602001908152602001600020600201600082825401925050819055506000915061102d565b3373ffffffffffffffffffffffffffffffffffffffff166108fc839081150290604051600060405180830381858888f19350505050151561102c57600080fd5b5b61106c565b83600d6000600a60009054906101000a900460ff1660ff1660ff168152602001908152602001600020600201600082825401925050819055505b61107f823461197a90919063ffffffff16565b905080600560008282540192505081905550600160009054906101000a900473ffffffffffffffffffffffffffffffffffffffff1673ffffffffffffffffffffffffffffffffffffffff166108fc829081150290604051600060405180830381858888f1935050505015156110f357600080fd5b80600b60003373ffffffffffffffffffffffffffffffffffffffff1673ffffffffffffffffffffffffffffffffffffffff168152602001908152602001600020600001600082825401925050819055506001600281111561115057fe5b600b60003373ffffffffffffffffffffffffffffffffffffffff1673ffffffffffffffffffffffffffffffffffffffff16815260200190815260200160002060020160009054906101000a900460ff1660028111156111ab57fe5b14156113b657600c60009054906101000a900473ffffffffffffffffffffffffffffffffffffffff1673ffffffffffffffffffffffffffffffffffffffff166323b872dd600860009054906101000a900473ffffffffffffffffffffffffffffffffffffffff1633876000604051602001526040518463ffffffff167c0100000000000000000000000000000000000000000000000000000000028152600401808473ffffffffffffffffffffffffffffffffffffffff1673ffffffffffffffffffffffffffffffffffffffff1681526020018373ffffffffffffffffffffffffffffffffffffffff1673ffffffffffffffffffffffffffffffffffffffff1681526020018281526020019350505050602060405180830381600087803b15156112d457600080fd5b6102c65a03f115156112e557600080fd5b50505060405180519050507f5e33aa51243f63fa9ddbcb5ad83c855f19c432c18cd480ee396279eb771505c7600860009054906101000a900473ffffffffffffffffffffffffffffffffffffffff163386604051808473ffffffffffffffffffffffffffffffffffffffff1673ffffffffffffffffffffffffffffffffffffffff1681526020018373ffffffffffffffffffffffffffffffffffffffff1673ffffffffffffffffffffffffffffffffffffffff168152602001828152602001935050505060405180910390a1611472565b83600b60003373ffffffffffffffffffffffffffffffffffffffff1673ffffffffffffffffffffffffffffffffffffffff168152602001908152602001600020600101600082825401925050819055507f6387c93d20b3ff07ec699718ca35c71c5a2a744b6cf874e48db2d3ce8c74db103385604051808373ffffffffffffffffffffffffffffffffffffffff1673ffffffffffffffffffffffffffffffffffffffff1681526020018281526020019250505060405180910390a15b600a60009054906101000a900460ff169550505050505090565b60008060001515600a60019054906101000a900460ff1615151415156114b157600080fd5b6009546005541015806114c5575060035442115b806114d7575060006114d5611842565b145b15156114e257600080fd5b60075460055410151561156557600160028111156114fc57fe5b600b60003373ffffffffffffffffffffffffffffffffffffffff1673ffffffffffffffffffffffffffffffffffffffff16815260200190815260200160002060020160009054906101000a900460ff16600281111561155757fe5b1415151561156457600080fd5b5b600b60003373ffffffffffffffffffffffffffffffffffffffff1673ffffffffffffffffffffffffffffffffffffffff1681526020019081526020016000206000015490506000600b60003373ffffffffffffffffffffffffffffffffffffffff1673ffffffffffffffffffffffffffffffffffffffff168152602001908152602001600020600001819055506000600b60003373ffffffffffffffffffffffffffffffffffffffff1673ffffffffffffffffffffffffffffffffffffffff168152602001908152602001600020600101819055503373ffffffffffffffffffffffffffffffffffffffff166108fc829081150290604051600060405180830381858888f19350505050151561167a57600080fd5b7fb4214c8c54fc7442f36d3682f59aebaf09358a4431835b30efb29d52cf9e1e913382604051808373ffffffffffffffffffffffffffffffffffffffff1673ffffffffffffffffffffffffffffffffffffffff1681526020018281526020019250505060405180910390a1600191505090565b6000809054906101000a900473ffffffffffffffffffffffffffffffffffffffff1673ffffffffffffffffffffffffffffffffffffffff163373ffffffffffffffffffffffffffffffffffffffff1614151561174857600080fd5b600073ffffffffffffffffffffffffffffffffffffffff168173ffffffffffffffffffffffffffffffffffffffff161415151561178457600080fd5b8073ffffffffffffffffffffffffffffffffffffffff166000809054906101000a900473ffffffffffffffffffffffffffffffffffffffff1673ffffffffffffffffffffffffffffffffffffffff167f8be0079c531659141344cd1fd0a4f28419497f9722a3daafe3b4186f6b6457e060405160405180910390a3806000806101000a81548173ffffffffffffffffffffffffffffffffffffffff021916908373ffffffffffffffffffffffffffffffffffffffff16021790555050565b60008060008090505b600660ff168160ff1610156118f757600d60008260ff1660ff16815260200190815260200160002060000154600d60008360ff1660ff1681526020019081526020016000206002015410156118ea576118e5600d60008360ff1660ff16815260200190815260200160002060020154600d60008460ff1660ff1681526020019081526020016000206000015461197a90919063ffffffff16565b820191505b808060010191505061184b565b819250505090565b600160009054906101000a900473ffffffffffffffffffffffffffffffffffffffff1673ffffffffffffffffffffffffffffffffffffffff166108fc3073ffffffffffffffffffffffffffffffffffffffff16319081150290604051600060405180830381858888f19350505050151561197857600080fd5b565b600082821115151561198857fe5b818303905092915050565b60008082840190508381101515156119a757fe5b8091505092915050565b6000808273ffffffffffffffffffffffffffffffffffffffff16141515156119d857600080fd5b6001600b60008473ffffffffffffffffffffffffffffffffffffffff1673ffffffffffffffffffffffffffffffffffffffff16815260200190815260200160002060020160006101000a81548160ff02191690836002811115611a3757fe5b0217905550600b60008373ffffffffffffffffffffffffffffffffffffffff1673ffffffffffffffffffffffffffffffffffffffff1681526020019081526020016000206001015490506000600b60008473ffffffffffffffffffffffffffffffffffffffff1673ffffffffffffffffffffffffffffffffffffffff16815260200190815260200160002060010181905550600c60009054906101000a900473ffffffffffffffffffffffffffffffffffffffff1673ffffffffffffffffffffffffffffffffffffffff166323b872dd600860009054906101000a900473ffffffffffffffffffffffffffffffffffffffff1684846000604051602001526040518463ffffffff167c0100000000000000000000000000000000000000000000000000000000028152600401808473ffffffffffffffffffffffffffffffffffffffff1673ffffffffffffffffffffffffffffffffffffffff1681526020018373ffffffffffffffffffffffffffffffffffffffff1673ffffffffffffffffffffffffffffffffffffffff1681526020018281526020019350505050602060405180830381600087803b1515611bec57600080fd5b6102c65a03f11515611bfd57600080fd5b50505060405180519050507f5e33aa51243f63fa9ddbcb5ad83c855f19c432c18cd480ee396279eb771505c7600860009054906101000a900473ffffffffffffffffffffffffffffffffffffffff163383604051808473ffffffffffffffffffffffffffffffffffffffff1673ffffffffffffffffffffffffffffffffffffffff1681526020018373ffffffffffffffffffffffffffffffffffffffff1673ffffffffffffffffffffffffffffffffffffffff168152602001828152602001935050505060405180910390a15050565b60008173ffffffffffffffffffffffffffffffffffffffff1614151515611cf357600080fd5b6002600b60008373ffffffffffffffffffffffffffffffffffffffff1673ffffffffffffffffffffffffffffffffffffffff16815260200190815260200160002060020160006101000a81548160ff02191690836002811115611d5257fe5b02179055506000600b60008373ffffffffffffffffffffffffffffffffffffffff1673ffffffffffffffffffffffffffffffffffffffff1681526020019081526020016000206001018190555050565b60008082840290506000841480611dc35750828482811515611dc057fe5b04145b1515611dcb57fe5b8091505092915050565b6000808284811515611de357fe5b04905080915050929150505600a165627a7a7230582042de17b5be7e09e97666b479e667a4d8df1a5ad9c77866c3f7d5ea0fbed646bb0029",
  "source": "pragma solidity ^0.4.18;\r\n//version 0.1.4\r\nimport './CBNBToken.sol';\r\nimport './Ownable.sol';\r\nimport './SafeMath.sol';\r\n\r\ncontract CBNBCrowdSale is Ownable{\r\n  using SafeMath for uint256;\r\n\r\n  uint256 constant internal MIN_CONTRIBUTION = 0.5 ether;\r\n  uint256 constant internal TOKEN_DECIMALS = 10**10;\r\n  uint256 constant internal ETH_DECIMALS = 10**18;\r\n  uint8 constant internal TIER_COUNT = 6;\r\n\r\n  address public multiSigWallet;\r\n  uint256 public icoStartTime;\r\n  uint256 public icoEndTime;\r\n  address public teamWallet;\r\n  uint256 public weiRaised;\r\n  uint256 public decimals;\r\n  uint256 public minLimit;\r\n  address public owner;\r\n  uint256 public cap;\r\n  uint8 private tier;\r\n  bool private paused;\r\n\r\n  enum Status {\r\n    New, Approved, Denied\r\n  }\r\n\r\n  struct WhitelistedInvestors {\r\n    uint256 contrAmount; //amount in wei\r\n    uint256 qtyTokens;\r\n    Status whitelistStatus;\r\n  }\r\n\r\n  mapping(address => WhitelistedInvestors) investors;\r\n\r\n  //The CryptoBnB token contract\r\n  CBNBToken public bnbToken; \r\n\r\n  /// @dev Sale tiers for Institution-ICO, public Pre-ICO, and ICO\r\n  /// @dev Sets the time of start and finish, it will be time of pushing\r\n  /// @dev to the mainnet plus days/hours etc.\r\n  struct SaleTier {      \r\n    uint256 tokensToBeSold;  //amount of tokens to be sold in this SaleTier\r\n    uint256 price;           //amount of tokens per wei\r\n    uint256 tokensSold;      //amount of tokens sold in each SaleTier     \r\n  }\r\n   \r\n  mapping(uint8 => SaleTier) saleTier;\r\n\r\n  event LogTokensTransferedFrom(address _owner, address _msgsender, uint256 _qtyOfTokensRequested);\r\n  event LogTokensReserved(address _buyer, uint256 _amount);\r\n  event LogWithdrawal(address _investor, uint256 _amount); \r\n \r\n  modifier isValidPayload() {\r\n    require(msg.data.length == 0 || msg.data.length == 4); // double check this one\r\n    _;\r\n  }\r\n\r\n  modifier icoIsActive() {\r\n    require(weiRaised < cap && now < icoEndTime && calculateUnsoldICOTokens() > 0);\r\n    _;\r\n  }\r\n\r\n  modifier icoHasEnded() {\r\n    require(weiRaised >= cap || now > icoEndTime || calculateUnsoldICOTokens() == 0);\r\n    _;\r\n  }\r\n\r\n  modifier pausedContract(){\r\n    require(paused == false);\r\n    _;\r\n  }\r\n\r\n  /// @dev confirm price thresholds and amounts\r\n  ///  multiSigWallet for holding ether\r\n  ///  bnbToken token address pushed to mainnet first\r\n  function CBNBCrowdSale(address _multiSigWallet, address _bnbToken, address _teamWallet) \r\n    public \r\n  {\r\n    require(_multiSigWallet != 0x0);\r\n    require(_bnbToken != 0x0);\r\n    require(_teamWallet != 0x0);     \r\n\r\n    multiSigWallet = _multiSigWallet;\r\n    icoStartTime = now; //pick a block number to start on\r\n    icoEndTime = now + 60 days; //pick a block number to end on\r\n    teamWallet = _teamWallet;\r\n    weiRaised = 0;\r\n    bnbToken = CBNBToken(_bnbToken);    \r\n    decimals = 10;\r\n    minLimit = 15000 ether;\r\n    owner = msg.sender;\r\n    cap = 171000 ether;\r\n\r\n   for(uint8 i=0; i<TIER_COUNT; i++){ \r\n    saleTier[i].tokensToBeSold = 100000000*TOKEN_DECIMALS;\r\n    saleTier[i].price = (3900 - 150*i); //tokens per eth\r\n    saleTier[i].tokensSold = 0;\r\n   }\r\n }\r\n\r\n  /// @dev Fallback function.\r\n  /// @dev Reject random eth being sent to the contract.\r\n  function()\r\n    public\r\n    payable\r\n  {\r\n    require(msg.sender == owner);\r\n  }\r\n\r\n  /// @notice buyer calls this function to order to get on the list for approval\r\n  /// buyers must send the ether with their whitelist application\r\n  function buyTokens()\r\n    external\r\n    payable\r\n    icoIsActive\r\n    pausedContract\r\n    isValidPayload\r\n    \r\n    returns (uint8)\r\n  {\r\n    require(investors[msg.sender].whitelistStatus != Status.Denied);\r\n    require(msg.value >= MIN_CONTRIBUTION);\r\n\r\n    uint256 buyTokensRemainingWei;\r\n    uint256 qtyOfTokensRequested = ((msg.value.mul(saleTier[tier].price)).div(ETH_DECIMALS)).mul(TOKEN_DECIMALS);\r\n    uint256 tierRemainingTokens = saleTier[tier].tokensToBeSold.sub(saleTier[tier].tokensSold);\r\n    uint256 remainingWei;\r\n    uint256 amount; \r\n    \r\n    if (qtyOfTokensRequested >= tierRemainingTokens){\r\n      remainingWei = msg.value.sub(((tierRemainingTokens.div(saleTier[tier].price)).mul(ETH_DECIMALS)).div(TOKEN_DECIMALS));\r\n      saleTier[tier].tokensSold += tierRemainingTokens;\r\n      qtyOfTokensRequested = tierRemainingTokens;\r\n      tier++; \r\n\r\n      if (tier < TIER_COUNT){\r\n        buyTokensRemainingWei = ((remainingWei.mul(saleTier[tier].price)).div(ETH_DECIMALS)).mul(TOKEN_DECIMALS);\r\n        qtyOfTokensRequested += buyTokensRemainingWei;\r\n        saleTier[tier].tokensSold += buyTokensRemainingWei;\r\n        remainingWei = 0;\r\n      } else {\r\n        msg.sender.transfer(remainingWei); \r\n      }\r\n\r\n    } else {\r\n      saleTier[tier].tokensSold += qtyOfTokensRequested;\r\n    }\r\n\r\n    amount = msg.value.sub(remainingWei);\r\n    weiRaised += amount;\r\n    multiSigWallet.transfer(amount);\r\n\r\n    investors[msg.sender].contrAmount += amount;\r\n\r\n    if(investors[msg.sender].whitelistStatus == Status.Approved){\r\n      bnbToken.transferFrom(owner, msg.sender, qtyOfTokensRequested);\r\n      LogTokensTransferedFrom(owner, msg.sender, qtyOfTokensRequested);     \r\n    } else {\r\n      investors[msg.sender].qtyTokens += qtyOfTokensRequested;\r\n      LogTokensReserved(msg.sender, qtyOfTokensRequested);\r\n    }\r\n\r\n    return tier;\r\n  }\r\n\r\n  /// notice interface for founders to whitelist investors\r\n  ///  addresses array of investors\r\n  ///  tier Number\r\n  ///  status enable or disable\r\n  function whitelistAddresses(address[] _addresses, bool _status) \r\n    public \r\n    onlyOwner \r\n    {\r\n        for (uint256 i = 0; i < _addresses.length; i++) {\r\n            address investorAddress = _addresses[i];\r\n            if(_status == true){\r\n                approvedWhitelistAddress(investorAddress); \r\n            } else {\r\n                deniedWhitelistAddress(investorAddress);  \r\n            } \r\n        }\r\n   }\r\n\r\n  /// notice sends requested tokens to the whitelist person\r\n  function approvedWhitelistAddress(address _investorAddress) \r\n    internal\r\n  {\r\n    require(_investorAddress != 0x0);\r\n    investors[_investorAddress].whitelistStatus = Status.Approved;\r\n    uint256 tkns = investors[_investorAddress].qtyTokens;\r\n    investors[_investorAddress].qtyTokens = 0;\r\n    bnbToken.transferFrom(owner, _investorAddress, tkns);\r\n    LogTokensTransferedFrom(owner, msg.sender, tkns);\r\n  }\r\n\r\n  /// @notice allows denied buyers the ability to get their Ether back\r\n  function deniedWhitelistAddress(address _investorAddress) \r\n    internal \r\n  {\r\n    require(_investorAddress != 0x0);\r\n    investors[_investorAddress].whitelistStatus = Status.Denied;\r\n    investors[_investorAddress].qtyTokens = 0;     \r\n  }\r\n\r\n  /// @notice used to move tokens from the later tiers into the earlier tiers\r\n  /// contract must be paused to do the move\r\n  /// param tier from later tier to subtract the tokens from\r\n  /// param tier to add the tokens to\r\n  /// param how many tokens to take\r\n  function moveTokensForSale(uint8 _tierFrom, uint8 _tierTo, uint256 _tokens) \r\n    public\r\n    onlyOwner\r\n  {\r\n    require(paused = true);\r\n    require(_tierFrom > _tierTo);\r\n    require(_tokens <= ((saleTier[_tierFrom].tokensToBeSold).sub(saleTier[_tierFrom].tokensSold)));\r\n\r\n    saleTier[_tierFrom].tokensToBeSold.sub(_tokens);\r\n    saleTier[_tierTo].tokensToBeSold.add(_tokens);\r\n  }\r\n\r\n  /// @notice pause specific funtions of the contract\r\n  function pauseContract() public onlyOwner {\r\n    paused = true;\r\n  }\r\n\r\n  /// @notice to unpause functions\r\n  function unpauseContract() public onlyOwner {\r\n    paused = false;\r\n  }      \r\n\r\n  /// @notice users can withdraw the wei eth sent\r\n  /// used for refund process incase not enough funds raised\r\n  /// or denied in the approval process\r\n  /// @notice no ether will be held in the crowdsale contract\r\n  /// when refunds become available the amount of ETH needed will\r\n  /// be manually transfered back to the crowdsale to be refunded\r\n  function RefundWithdrawal()\r\n    external\r\n    pausedContract\r\n    icoHasEnded\r\n    returns (bool success)\r\n  {\r\n    if(weiRaised >= minLimit){\r\n      require(investors[msg.sender].whitelistStatus != Status.Approved);\r\n    }\r\n\r\n    uint256 sendValue = investors[msg.sender].contrAmount;\r\n    investors[msg.sender].contrAmount = 0;\r\n    investors[msg.sender].qtyTokens = 0;\r\n    msg.sender.transfer(sendValue);\r\n  \r\n    LogWithdrawal(msg.sender, sendValue);\r\n    return true;\r\n  }\r\n\r\n  /// @dev freeze unsold tokens for use at a later time\r\n  /// and transfer team, owner and other internally promised tokens\r\n  /// param total number of tokens being transfered to the freeze wallet\r\n  function finalize(uint256 _internalTokens)\r\n    public\r\n    icoHasEnded\r\n    onlyOwner\r\n  {\r\n    cleanup();\r\n    bnbToken.transferFrom(owner, multiSigWallet, calculateUnsoldICOTokens());\r\n    bnbToken.transferFrom(owner, teamWallet, _internalTokens);   \r\n  }\r\n  \r\n  /// @notice Transfer any ether accidentally left in this contract \r\n  function cleanup()\r\n    internal\r\n  {\r\n    multiSigWallet.transfer(this.balance);\r\n  }\r\n\r\n  /// @notice calculate unsold tokens for transfer to multiSigWallet to be used at a later date\r\n  function calculateUnsoldICOTokens()\r\n    view\r\n    internal\r\n    returns (uint256)\r\n  {\r\n    uint256 remainingTokens;\r\n    for(uint8 i = 0; i < TIER_COUNT; i++){\r\n      if(saleTier[i].tokensSold < saleTier[i].tokensToBeSold){\r\n        remainingTokens += saleTier[i].tokensToBeSold.sub(saleTier[i].tokensSold);\r\n      }\r\n    }\r\n    return remainingTokens;\r\n  }\r\n}",
  "sourcePath": "D:\\Projects\\CryptoBNB\\contracts\\CBNBCrowdSale.sol",
  "compiler": {
    "name": "solc",
    "version": "0.4.18+commit.9cf6e910.Emscripten.clang"
  },
  "schemaVersion": "1.0.1",
  "updatedAt": "2017-12-05T01:42:40.803Z"
}