{
  "contractName": "CBNBCrowdSale",
  "abi": [
    {
      "constant": false,
      "inputs": [
        {
          "name": "_internalTokens",
          "type": "uint256"
        }
      ],
      "name": "finalize",
      "outputs": [],
      "payable": false,
      "stateMutability": "nonpayable",
      "type": "function"
    },
    {
      "constant": true,
      "inputs": [],
      "name": "depositWallet",
      "outputs": [
        {
          "name": "",
          "type": "address"
        }
      ],
      "payable": false,
      "stateMutability": "view",
      "type": "function"
    },
    {
      "constant": true,
      "inputs": [],
      "name": "checkWhitelistStatus",
      "outputs": [
        {
          "name": "whitelisted",
          "type": "bool"
        }
      ],
      "payable": false,
      "stateMutability": "view",
      "type": "function"
    },
    {
      "constant": true,
      "inputs": [
        {
          "name": "_tierFrom",
          "type": "uint8"
        },
        {
          "name": "_tierTo",
          "type": "uint8"
        },
        {
          "name": "_tokens",
          "type": "uint256"
        }
      ],
      "name": "minLimit",
      "outputs": [
        {
          "name": "",
          "type": "uint256"
        }
      ],
      "payable": false,
      "stateMutability": "view",
      "type": "function"
    },
    {
      "constant": true,
      "inputs": [
        {
          "name": "_tierFrom",
          "type": "uint8"
        },
        {
          "name": "_tierTo",
          "type": "uint8"
        },
        {
          "name": "_tokens",
          "type": "uint256"
        }
      ],
      "name": "moveTokensForSale",
      "outputs": [
        {
          "name": "success",
          "type": "bool"
        }
      ],
      "payable": false,
      "stateMutability": "view",
      "type": "function"
    },
    {
      "constant": false,
      "inputs": [],
      "name": "refundWithdrawal",
      "outputs": [
        {
          "name": "success",
          "type": "bool"
        }
      ],
      "payable": false,
      "stateMutability": "nonpayable",
      "type": "function"
    },
    {
      "constant": true,
      "inputs": [],
      "name": "bnbToken",
      "outputs": [
        {
          "name": "",
          "type": "address"
        }
      ],
      "payable": false,
      "stateMutability": "view",
      "type": "function"
    },
    {
      "constant": true,
      "inputs": [
        {
          "name": "_address",
          "type": "address"
        }
      ],
      "name": "cap",
      "outputs": [
        {
          "name": "",
          "type": "uint256"
        }
      ],
      "payable": false,
      "stateMutability": "view",
      "type": "function"
    },
    {
      "constant": false,
      "inputs": [
        {
          "name": "_address",
          "type": "address"
        }
      ],
      "name": "denyAddressForWhitelist",
      "outputs": [
        {
          "name": "",
          "type": "uint256"
        }
      ],
      "payable": false,
      "stateMutability": "nonpayable",
      "type": "function"
    },
    {
      "constant": true,
      "inputs": [
        {
          "name": "_price",
          "type": "uint256"
        }
      ],
      "name": "weiRaised",
      "outputs": [
        {
          "name": "",
          "type": "uint256"
        }
      ],
      "payable": false,
      "stateMutability": "view",
      "type": "function"
    },
    {
      "constant": false,
      "inputs": [
        {
          "name": "_price",
          "type": "uint256"
        }
      ],
      "name": "getEtherPrice",
      "outputs": [],
      "payable": false,
      "stateMutability": "nonpayable",
      "type": "function"
    },
    {
      "constant": false,
      "inputs": [],
      "name": "pauseContract",
      "outputs": [
        {
          "name": "",
          "type": "address"
        }
      ],
      "payable": false,
      "stateMutability": "nonpayable",
      "type": "function"
    },
    {
      "constant": false,
      "inputs": [
        {
          "name": "_addresses",
          "type": "address[]"
        },
        {
          "name": "_status",
          "type": "bool"
        }
      ],
      "name": "claimTokens",
      "outputs": [],
      "payable": false,
      "stateMutability": "nonpayable",
      "type": "function"
    },
    {
      "constant": false,
      "inputs": [],
      "name": "getTokenPrice",
      "outputs": [
        {
          "name": "",
          "type": "address"
        }
      ],
      "payable": false,
      "stateMutability": "nonpayable",
      "type": "function"
    },
    {
      "constant": true,
      "inputs": [],
      "name": "teamWallet",
      "outputs": [
        {
          "name": "",
          "type": "address"
        }
      ],
      "payable": false,
      "stateMutability": "view",
      "type": "function"
    },
    {
      "constant": true,
      "inputs": [],
      "name": "totalTokensSold",
      "outputs": [
        {
          "name": "",
          "type": "uint256"
        }
      ],
      "payable": false,
      "stateMutability": "view",
      "type": "function"
    },
    {
      "constant": true,
      "inputs": [],
      "name": "bnbTeamWallet",
      "outputs": [
        {
          "name": "",
          "type": "address"
        }
      ],
      "payable": false,
      "stateMutability": "view",
      "type": "function"
    },
    {
      "constant": true,
      "inputs": [],
      "name": "icoEndTime",
      "outputs": [
        {
          "name": "",
          "type": "uint256"
        }
      ],
      "payable": false,
      "stateMutability": "view",
      "type": "function"
    },
    {
      "constant": true,
      "inputs": [],
      "name": "tokenPrice",
      "outputs": [
        {
          "name": "",
          "type": "uint256"
        }
      ],
      "payable": false,
      "stateMutability": "view",
      "type": "function"
    },
    {
      "constant": true,
      "inputs": [
        {
          "name": "_address",
          "type": "address"
        }
      ],
      "name": "owner",
      "outputs": [
        {
          "name": "",
          "type": "address"
        }
      ],
      "payable": false,
      "stateMutability": "view",
      "type": "function"
    },
    {
      "constant": false,
      "inputs": [],
      "name": "unpauseContract",
      "outputs": [
        {
          "name": "",
          "type": "uint8"
        }
      ],
      "payable": false,
      "stateMutability": "nonpayable",
      "type": "function"
    },
    {
      "constant": false,
      "inputs": [
        {
          "name": "_address",
          "type": "address"
        }
      ],
      "name": "approveAddressForWhitelist",
      "outputs": [],
      "payable": false,
      "stateMutability": "nonpayable",
      "type": "function"
    },
    {
      "constant": false,
      "inputs": [],
      "name": "buyTokens",
      "outputs": [
        {
          "name": "",
          "type": "uint8"
        }
      ],
      "payable": true,
      "stateMutability": "payable",
      "type": "function"
    },
    {
      "inputs": [
        {
          "name": "newOwner",
          "type": "address"
        },
        {
          "name": "_bnbToken",
          "type": "address"
        },
        {
          "name": "_teamWallet",
          "type": "address"
        }
      ],
      "payable": false,
      "stateMutability": "nonpayable",
      "type": "function",
      "constant": false,
      "name": "transferOwnership",
      "outputs": [
        {
          "name": "",
          "type": "uint256"
        }
      ]
    },
    {
      "payable": false,
      "stateMutability": "nonpayable",
      "type": "function",
      "inputs": [
        {
          "name": "_depositWallet",
          "type": "address"
        },
        {
          "name": "_bnbToken",
          "type": "address"
        },
        {
          "name": "_teamWallet",
          "type": "address"
        }
      ],
      "constant": false,
      "name": "claimRemainingWei",
      "outputs": [
        {
          "name": "success",
          "type": "bool"
        }
      ]
    },
    {
      "anonymous": false,
      "inputs": [
        {
          "indexed": false,
          "name": "_owner",
          "type": "address"
        },
        {
          "indexed": false,
          "name": "_msgsender",
          "type": "address"
        },
        {
          "indexed": false,
          "name": "_qtyOfTokensRequested",
          "type": "uint256"
        }
      ],
      "name": "ethPrice",
      "type": "function",
      "payable": false,
      "stateMutability": "view",
      "constant": true,
      "outputs": [
        {
          "name": "",
          "type": "uint256"
        }
      ]
    },
    {
      "anonymous": false,
      "inputs": [
        {
          "indexed": false,
          "name": "_depositWallet",
          "type": "address"
        },
        {
          "indexed": false,
          "name": "_bnbToken",
          "type": "address"
        },
        {
          "indexed": false,
          "name": "_teamWallet",
          "type": "address"
        }
      ],
      "name": "LogTokensTransferedFrom",
      "type": "constructor",
      "payable": false,
      "stateMutability": "nonpayable"
    },
    {
      "anonymous": false,
      "inputs": [
        {
          "indexed": false,
          "name": "_buyer",
          "type": "address"
        },
        {
          "indexed": false,
          "name": "_amount",
          "type": "uint256"
        }
      ],
      "name": "LogTokensReserved",
      "type": "fallback",
      "payable": true,
      "stateMutability": "payable"
    },
    {
      "anonymous": false,
      "inputs": [
        {
          "indexed": false,
          "name": "_owner",
          "type": "address"
        },
        {
          "indexed": false,
          "name": "_msgsender",
          "type": "address"
        },
        {
          "indexed": false,
          "name": "_qtyOfTokensRequested",
          "type": "uint256"
        }
      ],
      "name": "LogTokensTransferedFrom",
      "type": "event"
    },
    {
      "anonymous": false,
      "inputs": [
        {
          "indexed": false,
          "name": "_buyer",
          "type": "address"
        },
        {
          "indexed": false,
          "name": "_amount",
          "type": "uint256"
        }
      ],
      "name": "LogTokensReserved",
      "type": "event"
    },
    {
      "anonymous": false,
      "inputs": [
        {
          "indexed": false,
          "name": "_investor",
          "type": "address"
        },
        {
          "indexed": false,
          "name": "_amount",
          "type": "uint256"
        }
      ],
      "name": "LogWithdrawal",
      "type": "event"
    },
    {
      "anonymous": false,
      "inputs": [
        {
          "indexed": true,
          "name": "previousOwner",
          "type": "address"
        },
        {
          "indexed": true,
          "name": "newOwner",
          "type": "address"
        }
      ],
      "name": "OwnershipTransferred",
      "type": "event"
    }
  ],
  "bytecode": "0x6060604052341561000f57600080fd5b6040516060806121d6833981016040528080519060200190919080519060200190919080519060200190919050506000336000806101000a81548173ffffffffffffffffffffffffffffffffffffffff021916908373ffffffffffffffffffffffffffffffffffffffff16021790555060008473ffffffffffffffffffffffffffffffffffffffff16141515156100a557600080fd5b60008373ffffffffffffffffffffffffffffffffffffffff16141515156100cb57600080fd5b60008273ffffffffffffffffffffffffffffffffffffffff16141515156100f157600080fd5b83600260006101000a81548173ffffffffffffffffffffffffffffffffffffffff021916908373ffffffffffffffffffffffffffffffffffffffff1602179055506276a700420160038190555081600e60006101000a81548173ffffffffffffffffffffffffffffffffffffffff021916908373ffffffffffffffffffffffffffffffffffffffff16021790555082600d60006101000a81548173ffffffffffffffffffffffffffffffffffffffff021916908373ffffffffffffffffffffffffffffffffffffffff160217905550685150ae84a8cdf0000060088190555033600960006101000a81548173ffffffffffffffffffffffffffffffffffffffff021916908373ffffffffffffffffffffffffffffffffffffffff16021790555069032d26d12e980b600000600a81905550600090505b600560ff168160ff161015610280576402540be4006301312d008260ff16026305f5e1000363ffffffff1602600f60008360ff1660ff168152602001908152602001600020600001819055508080600101915050610227565b50505050611f43806102936000396000f300606060405260043610610154576000357c0100000000000000000000000000000000000000000000000000000000900463ffffffff16806305261aea146101b257806309904c00146101d557806319acf8771461022a5780631fd8088d14610257578063241849e4146102805780632aff12e8146102bb5780632b17b6a9146102e8578063355274ea1461033d5780633fecf385146103665780634042b66f1461039f57806341f19928146103c8578063439766ce146103eb57806348c54b9d146104005780634b94f50e14610415578063599270441461042a57806363b201171461047f57806368a85784146104a85780637e1055b6146104fd5780637ff9b596146105265780638da5cb5b1461054f578063b33712c5146105a4578063cf67d0b6146105b9578063d0febe4c146105f2578063f2fde38b14610616578063fe2f5bde1461064f578063ff186b2e1461067c575b600960009054906101000a900473ffffffffffffffffffffffffffffffffffffffff1673ffffffffffffffffffffffffffffffffffffffff163373ffffffffffffffffffffffffffffffffffffffff161415156101b057600080fd5b005b34156101bd57600080fd5b6101d360048080359060200190919050506106a5565b005b34156101e057600080fd5b6101e8610b1a565b604051808273ffffffffffffffffffffffffffffffffffffffff1673ffffffffffffffffffffffffffffffffffffffff16815260200191505060405180910390f35b341561023557600080fd5b61023d610b40565b604051808215151515815260200191505060405180910390f35b341561026257600080fd5b61026a610bb0565b6040518082815260200191505060405180910390f35b341561028b57600080fd5b6102b9600480803560ff1690602001909190803560ff16906020019091908035906020019091905050610bb6565b005b34156102c657600080fd5b6102ce610cdb565b604051808215151515815260200191505060405180910390f35b34156102f357600080fd5b6102fb610e87565b604051808273ffffffffffffffffffffffffffffffffffffffff1673ffffffffffffffffffffffffffffffffffffffff16815260200191505060405180910390f35b341561034857600080fd5b610350610ead565b6040518082815260200191505060405180910390f35b341561037157600080fd5b61039d600480803573ffffffffffffffffffffffffffffffffffffffff16906020019091905050610eb3565b005b34156103aa57600080fd5b6103b2610fa6565b6040518082815260200191505060405180910390f35b34156103d357600080fd5b6103e96004808035906020019091905050610fac565b005b34156103f657600080fd5b6103fe611011565b005b341561040b57600080fd5b610413611089565b005b341561042057600080fd5b61042861137f565b005b341561043557600080fd5b61043d6113a0565b604051808273ffffffffffffffffffffffffffffffffffffffff1673ffffffffffffffffffffffffffffffffffffffff16815260200191505060405180910390f35b341561048a57600080fd5b6104926113c6565b6040518082815260200191505060405180910390f35b34156104b357600080fd5b6104bb6113cc565b604051808273ffffffffffffffffffffffffffffffffffffffff1673ffffffffffffffffffffffffffffffffffffffff16815260200191505060405180910390f35b341561050857600080fd5b6105106113f2565b6040518082815260200191505060405180910390f35b341561053157600080fd5b6105396113f8565b6040518082815260200191505060405180910390f35b341561055a57600080fd5b6105626113fe565b604051808273ffffffffffffffffffffffffffffffffffffffff1673ffffffffffffffffffffffffffffffffffffffff16815260200191505060405180910390f35b34156105af57600080fd5b6105b7611424565b005b34156105c457600080fd5b6105f0600480803573ffffffffffffffffffffffffffffffffffffffff1690602001909190505061149c565b005b6105fa61158f565b604051808260ff1660ff16815260200191505060405180910390f35b341561062157600080fd5b61064d600480803573ffffffffffffffffffffffffffffffffffffffff16906020019091905050611acb565b005b341561065a57600080fd5b610662611c20565b604051808215151515815260200191505060405180910390f35b341561068757600080fd5b61068f611dc7565b6040518082815260200191505060405180910390f35b600a546006541015806106b9575060035442115b806106cb575060006106c9611dcd565b145b15156106d657600080fd5b6000809054906101000a900473ffffffffffffffffffffffffffffffffffffffff1673ffffffffffffffffffffffffffffffffffffffff163373ffffffffffffffffffffffffffffffffffffffff1614151561073157600080fd5b600e60009054906101000a900473ffffffffffffffffffffffffffffffffffffffff1673ffffffffffffffffffffffffffffffffffffffff1663aafc057f436040518263ffffffff167c010000000000000000000000000000000000000000000000000000000002815260040180828152602001915050600060405180830381600087803b15156107c157600080fd5b6102c65a03f115156107d257600080fd5b505050600d60009054906101000a900473ffffffffffffffffffffffffffffffffffffffff1673ffffffffffffffffffffffffffffffffffffffff166323b872dd600960009054906101000a900473ffffffffffffffffffffffffffffffffffffffff16600260009054906101000a900473ffffffffffffffffffffffffffffffffffffffff16610861611dcd565b6000604051602001526040518463ffffffff167c0100000000000000000000000000000000000000000000000000000000028152600401808473ffffffffffffffffffffffffffffffffffffffff1673ffffffffffffffffffffffffffffffffffffffff1681526020018373ffffffffffffffffffffffffffffffffffffffff1673ffffffffffffffffffffffffffffffffffffffff1681526020018281526020019350505050602060405180830381600087803b151561092157600080fd5b6102c65a03f1151561093257600080fd5b5050506040518051905050600d60009054906101000a900473ffffffffffffffffffffffffffffffffffffffff1673ffffffffffffffffffffffffffffffffffffffff166323b872dd600960009054906101000a900473ffffffffffffffffffffffffffffffffffffffff16600460009054906101000a900473ffffffffffffffffffffffffffffffffffffffff16846000604051602001526040518463ffffffff167c0100000000000000000000000000000000000000000000000000000000028152600401808473ffffffffffffffffffffffffffffffffffffffff1673ffffffffffffffffffffffffffffffffffffffff1681526020018373ffffffffffffffffffffffffffffffffffffffff1673ffffffffffffffffffffffffffffffffffffffff1681526020018281526020019350505050602060405180830381600087803b1515610a8257600080fd5b6102c65a03f11515610a9357600080fd5b5050506040518051905050600260009054906101000a900473ffffffffffffffffffffffffffffffffffffffff1673ffffffffffffffffffffffffffffffffffffffff166108fc3073ffffffffffffffffffffffffffffffffffffffff16319081150290604051600060405180830381858888f193505050501515610b1757600080fd5b50565b600260009054906101000a900473ffffffffffffffffffffffffffffffffffffffff1681565b600060016002811115610b4f57fe5b600c60003373ffffffffffffffffffffffffffffffffffffffff1673ffffffffffffffffffffffffffffffffffffffff16815260200190815260200160002060020160009054906101000a900460ff166002811115610baa57fe5b14905090565b60085481565b60008060009054906101000a900473ffffffffffffffffffffffffffffffffffffffff1673ffffffffffffffffffffffffffffffffffffffff163373ffffffffffffffffffffffffffffffffffffffff16141515610c1357600080fd5b600f60008560ff1660ff168152602001908152602001600020905060011515600b60019054906101000a900460ff161515141515610c5057600080fd5b8260ff168460ff16111515610c6457600080fd5b610c7f81600201548260000154611e8a90919063ffffffff16565b8211151515610c8d57600080fd5b610ca4828260000154611e8a90919063ffffffff16565b50610cd482600f60008660ff1660ff16815260200190815260200160002060000154611ea390919063ffffffff16565b5050505050565b6000806000801515600b60019054906101000a900460ff161515141515610d0157600080fd5b600a54600654101580610d15575060035442115b80610d2757506000610d25611dcd565b145b1515610d3257600080fd5b600c60003373ffffffffffffffffffffffffffffffffffffffff1673ffffffffffffffffffffffffffffffffffffffff1681526020019081526020016000209150600854600654101515610db85760016002811115610d8d57fe5b8260020160009054906101000a900460ff166002811115610daa57fe5b14151515610db757600080fd5b5b8160000154905060008260000181905550600082600101819055503373ffffffffffffffffffffffffffffffffffffffff166108fc829081150290604051600060405180830381858888f193505050501515610e1357600080fd5b7fb4214c8c54fc7442f36d3682f59aebaf09358a4431835b30efb29d52cf9e1e913382604051808373ffffffffffffffffffffffffffffffffffffffff1673ffffffffffffffffffffffffffffffffffffffff1681526020018281526020019250505060405180910390a160019250505090565b600d60009054906101000a900473ffffffffffffffffffffffffffffffffffffffff1681565b600a5481565b6000809054906101000a900473ffffffffffffffffffffffffffffffffffffffff1673ffffffffffffffffffffffffffffffffffffffff163373ffffffffffffffffffffffffffffffffffffffff16141515610f0e57600080fd5b600a54600654101580610f22575060035442115b80610f3457506000610f32611dcd565b145b1515610f3f57600080fd5b6002600c60008373ffffffffffffffffffffffffffffffffffffffff1673ffffffffffffffffffffffffffffffffffffffff16815260200190815260200160002060020160006101000a81548160ff02191690836002811115610f9e57fe5b021790555050565b60065481565b6000809054906101000a900473ffffffffffffffffffffffffffffffffffffffff1673ffffffffffffffffffffffffffffffffffffffff163373ffffffffffffffffffffffffffffffffffffffff1614151561100757600080fd5b8060078190555050565b6000809054906101000a900473ffffffffffffffffffffffffffffffffffffffff1673ffffffffffffffffffffffffffffffffffffffff163373ffffffffffffffffffffffffffffffffffffffff1614151561106c57600080fd5b6001600b60016101000a81548160ff021916908315150217905550565b60008060001515600b60019054906101000a900460ff1615151415156110ae57600080fd5b600a546006541015806110c2575060035442115b806110d4575060006110d2611dcd565b145b15156110df57600080fd5b600c60003373ffffffffffffffffffffffffffffffffffffffff1673ffffffffffffffffffffffffffffffffffffffff16815260200190815260200160002091506001600281111561112d57fe5b8260020160009054906101000a900460ff16600281111561114a57fe5b14151561115657600080fd5b600082600101541415151561116a57600080fd5b81600101549050600082600101819055507f5e33aa51243f63fa9ddbcb5ad83c855f19c432c18cd480ee396279eb771505c7600960009054906101000a900473ffffffffffffffffffffffffffffffffffffffff163383604051808473ffffffffffffffffffffffffffffffffffffffff1673ffffffffffffffffffffffffffffffffffffffff1681526020018373ffffffffffffffffffffffffffffffffffffffff1673ffffffffffffffffffffffffffffffffffffffff168152602001828152602001935050505060405180910390a1600d60009054906101000a900473ffffffffffffffffffffffffffffffffffffffff1673ffffffffffffffffffffffffffffffffffffffff166323b872dd600960009054906101000a900473ffffffffffffffffffffffffffffffffffffffff1633846000604051602001526040518463ffffffff167c0100000000000000000000000000000000000000000000000000000000028152600401808473ffffffffffffffffffffffffffffffffffffffff1673ffffffffffffffffffffffffffffffffffffffff1681526020018373ffffffffffffffffffffffffffffffffffffffff1673ffffffffffffffffffffffffffffffffffffffff1681526020018281526020019350505050602060405180830381600087803b151561135f57600080fd5b6102c65a03f1151561137057600080fd5b50505060405180519050505050565b600b60009054906101000a900460ff1660080260280160ff16600581905550565b600460009054906101000a900473ffffffffffffffffffffffffffffffffffffffff1681565b60015481565b600e60009054906101000a900473ffffffffffffffffffffffffffffffffffffffff1681565b60035481565b60055481565b600960009054906101000a900473ffffffffffffffffffffffffffffffffffffffff1681565b6000809054906101000a900473ffffffffffffffffffffffffffffffffffffffff1673ffffffffffffffffffffffffffffffffffffffff163373ffffffffffffffffffffffffffffffffffffffff1614151561147f57600080fd5b6000600b60016101000a81548160ff021916908315150217905550565b6000809054906101000a900473ffffffffffffffffffffffffffffffffffffffff1673ffffffffffffffffffffffffffffffffffffffff163373ffffffffffffffffffffffffffffffffffffffff161415156114f757600080fd5b600a5460065410158061150b575060035442115b8061151d5750600061151b611dcd565b145b151561152857600080fd5b6001600c60008373ffffffffffffffffffffffffffffffffffffffff1673ffffffffffffffffffffffffffffffffffffffff16815260200190815260200160002060020160006101000a81548160ff0219169083600281111561158757fe5b021790555050565b6000806000806000806000806000600a546006541080156115b1575060035442105b80156115c4575060006115c2611dcd565b115b15156115cf57600080fd5b60001515600b60019054906101000a900460ff1615151415156115f157600080fd5b6000803690501480611607575060046000369050145b151561161257600080fd5b600c60003373ffffffffffffffffffffffffffffffffffffffff1673ffffffffffffffffffffffffffffffffffffffff1681526020019081526020016000209750600960009054906101000a900473ffffffffffffffffffffffffffffffffffffffff1673ffffffffffffffffffffffffffffffffffffffff163373ffffffffffffffffffffffffffffffffffffffff16141515156116b057600080fd5b6000600754141515156116c257600080fd5b6002808111156116ce57fe5b8860020160009054906101000a900460ff1660028111156116eb57fe5b141515156116f857600080fd5b67016345785d8a0000611718896003015434611ea390919063ffffffff16565b1015151561172557600080fd5b61173c886003015434611ea390919063ffffffff16565b9650600088600301819055506117a36007546117956103e8611787600b60009054906101000a900460ff1660080260280160ff16670de0b6b3a7640000611ec190919063ffffffff16565b611efc90919063ffffffff16565b611efc90919063ffffffff16565b94505b8487101580156117cc5750600560ff16600b60009054906101000a900460ff1660ff1614155b1561197657600f6000600b60009054906101000a900460ff1660ff1660ff16815260200190815260200160002091506118566007546118486103e861183a600b60009054906101000a900460ff1660080260280160ff16670de0b6b3a7640000611ec190919063ffffffff16565b611efc90919063ffffffff16565b611efc90919063ffffffff16565b94506118826402540be400611874878a611efc90919063ffffffff16565b611ec190919063ffffffff16565b925061189f82600201548360000154611e8a90919063ffffffff16565b9350838310151561192b57838303925083826002016000828254019250508190555083860195506118f06402540be4006118e28787611ec190919063ffffffff16565b611efc90919063ffffffff16565b87039650600b600081819054906101000a900460ff168092919060010191906101000a81548160ff021916908360ff16021790555050611971565b828260020160008282540192505081905550828601955061196c6402540be40061195e8786611ec190919063ffffffff16565b611efc90919063ffffffff16565b870396505b6117a6565b6119898734611e8a90919063ffffffff16565b905080600660008282540192505081905550600260009054906101000a900473ffffffffffffffffffffffffffffffffffffffff1673ffffffffffffffffffffffffffffffffffffffff166108fc829081150290604051600060405180830381858888f1935050505015156119fd57600080fd5b868860030160008282540192505081905550808860000160008282540192505081905550858860010160008282540192505081905550856001600082825401925050819055507f6387c93d20b3ff07ec699718ca35c71c5a2a744b6cf874e48db2d3ce8c74db103387604051808373ffffffffffffffffffffffffffffffffffffffff1673ffffffffffffffffffffffffffffffffffffffff1681526020018281526020019250505060405180910390a1600b60009054906101000a900460ff169850505050505050505090565b6000809054906101000a900473ffffffffffffffffffffffffffffffffffffffff1673ffffffffffffffffffffffffffffffffffffffff163373ffffffffffffffffffffffffffffffffffffffff16141515611b2657600080fd5b600073ffffffffffffffffffffffffffffffffffffffff168173ffffffffffffffffffffffffffffffffffffffff1614151515611b6257600080fd5b8073ffffffffffffffffffffffffffffffffffffffff166000809054906101000a900473ffffffffffffffffffffffffffffffffffffffff1673ffffffffffffffffffffffffffffffffffffffff167f8be0079c531659141344cd1fd0a4f28419497f9722a3daafe3b4186f6b6457e060405160405180910390a3806000806101000a81548173ffffffffffffffffffffffffffffffffffffffff021916908373ffffffffffffffffffffffffffffffffffffffff16021790555050565b6000806000801515600b60019054906101000a900460ff161515141515611c4657600080fd5b600a54600654101580611c5a575060035442115b80611c6c57506000611c6a611dcd565b145b1515611c7757600080fd5b600c60003373ffffffffffffffffffffffffffffffffffffffff1673ffffffffffffffffffffffffffffffffffffffff168152602001908152602001600020915060016002811115611cc557fe5b8260020160009054906101000a900460ff166002811115611ce257fe5b141515611cee57600080fd5b6000826003015414151515611d0257600080fd5b81600301549050600082600301819055507fb4214c8c54fc7442f36d3682f59aebaf09358a4431835b30efb29d52cf9e1e913382604051808373ffffffffffffffffffffffffffffffffffffffff1673ffffffffffffffffffffffffffffffffffffffff1681526020018281526020019250505060405180910390a13373ffffffffffffffffffffffffffffffffffffffff166108fc829081150290604051600060405180830381858888f193505050501515611dbe57600080fd5b60019250505090565b60075481565b60008060008090505b600560ff168160ff161015611e8257600f60008260ff1660ff16815260200190815260200160002060000154600f60008360ff1660ff168152602001908152602001600020600201541015611e7557611e70600f60008360ff1660ff16815260200190815260200160002060020154600f60008460ff1660ff16815260200190815260200160002060000154611e8a90919063ffffffff16565b820191505b8080600101915050611dd6565b819250505090565b6000828211151515611e9857fe5b818303905092915050565b6000808284019050838110151515611eb757fe5b8091505092915050565b6000806000841415611ed65760009150611ef5565b8284029050828482811515611ee757fe5b04141515611ef157fe5b8091505b5092915050565b6000808284811515611f0a57fe5b04905080915050929150505600a165627a7a723058200a286939fedfe8fa0d33210682934f30219810e11dea0e69d7c9d9d585ac5d120029",
  "source": "pragma solidity 0.4.18;\r\n\r\nimport './CBNBToken.sol';\r\nimport './CBNBTeamWallet.sol';\r\nimport 'zeppelin-solidity/contracts/ownership/Ownable.sol';\r\nimport 'zeppelin-solidity/contracts/math/SafeMath.sol';\r\n\r\ncontract CBNBCrowdSale is Ownable{\r\n  using SafeMath for uint256;\r\n\r\n  uint256 constant internal MIN_CONTRIBUTION = 0.1 ether;\r\n  uint256 constant internal TOKEN_DECIMALS = 10**10;\r\n  uint256 constant internal ETH_DECIMALS = 10**18;\r\n  uint8 constant internal TIER_COUNT = 5;\r\n\r\n  uint256 public totalTokensSold;\r\n  address public depositWallet;\r\n  uint256 public icoEndTime;\r\n  address public teamWallet;\r\n  uint256 public tokenPrice;\r\n  uint256 public weiRaised;\r\n  uint256 public ethPrice;\r\n  uint256 public minLimit;\r\n  address public owner;\r\n  uint256 public cap;\r\n  uint8 private tier;\r\n  bool private paused;\r\n\r\n  enum Status {\r\n    New, Approved, Denied\r\n  }\r\n\r\n  struct Participant {\r\n    uint256 contrAmount; //amount in wei\r\n    uint256 qtyTokens;\r\n    Status whitelistStatus;\r\n    uint256 remainingWei;\r\n  }\r\n\r\n  mapping(address => Participant) participants;\r\n\r\n  //The CryptoBnB token contract\r\n  CBNBToken public bnbToken;\r\n  CBNBTeamWallet public bnbTeamWallet; \r\n\r\n  /// @dev Sale tiers for Institution-ICO, public Pre-ICO, and ICO\r\n  /// @dev Sets the time of start and finish, it will be time of pushing\r\n  /// @dev to the mainnet plus days/hours etc.\r\n  struct SaleTier {      \r\n    uint256 tokensToBeSold;  //amount of tokens to be sold in this SaleTier\r\n    uint256 price;           //amount of tokens per wei\r\n    uint256 tokensSold;      //amount of tokens sold in each SaleTier     \r\n  }\r\n   \r\n  mapping(uint8 => SaleTier) saleTier;\r\n\r\n  event LogTokensTransferedFrom(address _owner, address _msgsender, uint256 _qtyOfTokensRequested);\r\n  event LogTokensReserved(address _buyer, uint256 _amount);\r\n  event LogWithdrawal(address _investor, uint256 _amount); \r\n \r\n  modifier isValidPayload() {\r\n    require(msg.data.length == 0 || msg.data.length == 4); // double check this one\r\n    _;\r\n  }\r\n\r\n  modifier icoIsActive() {\r\n    require(weiRaised < cap && now < icoEndTime && calculateUnsoldICOTokens() > 0);\r\n    _;\r\n  }\r\n\r\n  modifier icoHasEnded() {\r\n    require(weiRaised >= cap || now > icoEndTime || calculateUnsoldICOTokens() == 0);\r\n    _;\r\n  }\r\n\r\n  modifier unpausedContract(){\r\n    require(paused == false);\r\n    _;\r\n  }\r\n\r\n  /// @dev confirm price thresholds and amounts\r\n  ///  depositWallet for holding ether\r\n  ///  bnbToken token address pushed to mainnet first\r\n  function CBNBCrowdSale(address _depositWallet, address _bnbToken, address _teamWallet) \r\n    public \r\n  {\r\n    require(_depositWallet != 0x0);\r\n    require(_bnbToken != 0x0);\r\n    require(_teamWallet != 0x0);     \r\n\r\n    totalTokensSold;\r\n    depositWallet = _depositWallet;\r\n    icoEndTime = now + 90 days; //pick a block number to end on\r\n    bnbTeamWallet = CBNBTeamWallet(_teamWallet);\r\n    tokenPrice;\r\n    weiRaised;\r\n    bnbToken = CBNBToken(_bnbToken);    \r\n    minLimit = 1500 ether;\r\n    owner = msg.sender;\r\n    cap = 15000 ether;\r\n\r\n   for(uint8 i=0; i<TIER_COUNT; i++){ \r\n    saleTier[i].tokensToBeSold = (100000000-(i*20000000))*TOKEN_DECIMALS;\r\n   }\r\n }\r\n\r\n  /// @dev Fallback function.\r\n  /// @dev Reject random ethereum being sent to the contract.\r\n  /// @notice allows for owner to send ethereum to the contract in the event\r\n  /// of a refund\r\n  function()\r\n    public\r\n    payable\r\n  {\r\n    require(msg.sender == owner);\r\n  }\r\n\r\n  ///@notice feels risky\r\n  ///param ethereum price will exclude decimals\r\n  function getEtherPrice(uint256 _price)\r\n    external\r\n    onlyOwner\r\n  {\r\n    ethPrice = _price;\r\n  }\r\n\r\n  function getTokenPrice()\r\n    external\r\n  {\r\n    tokenPrice = 40+(8*tier);\r\n  }\r\n\r\n  /// @notice buyer calls this function to order to get on the list for approval\r\n  /// buyers must send the ethereum with their whitelist application\r\n   /// @notice buyer calls this function to order to get on the list for approval\r\n  /// buyers must send the ether with their whitelist application\r\n  function buyTokens()\r\n    external\r\n    payable\r\n    icoIsActive\r\n    unpausedContract\r\n    isValidPayload\r\n    \r\n    returns (uint8)\r\n  {\r\n    \r\n    Participant storage participant = participants[msg.sender];\r\n\r\n    require(msg.sender != owner);\r\n    require(ethPrice != 0);\r\n    require(participant.whitelistStatus != Status.Denied);\r\n    require(msg.value.add(participant.remainingWei) >= MIN_CONTRIBUTION);\r\n\r\n    uint256 remainingWei = msg.value.add(participant.remainingWei);\r\n    participant.remainingWei = 0;\r\n    uint256 totalTokensRequested;\r\n    uint256 price = (ETH_DECIMALS.mul(uint256(40+(8*tier))).div(1000)).div(ethPrice);\r\n    uint256 tierRemainingTokens;\r\n    uint256 tknsRequested;\r\n  \r\n    while(remainingWei >= price && tier != TIER_COUNT) {\r\n\r\n      SaleTier storage tiers = saleTier[tier];\r\n      price = (ETH_DECIMALS.mul(uint256(40+(8*tier))).div(1000)).div(ethPrice);\r\n      tknsRequested = (remainingWei.div(price)).mul(TOKEN_DECIMALS);\r\n      tierRemainingTokens = tiers.tokensToBeSold.sub(tiers.tokensSold);\r\n      if(tknsRequested >= tierRemainingTokens){\r\n        tknsRequested -= tierRemainingTokens;\r\n        tiers.tokensSold += tierRemainingTokens;\r\n        totalTokensRequested += tierRemainingTokens;\r\n        remainingWei -= ((tierRemainingTokens.mul(price)).div(TOKEN_DECIMALS));\r\n        tier++;\r\n      } else{\r\n        tiers.tokensSold += tknsRequested;\r\n        totalTokensRequested += tknsRequested;\r\n        remainingWei -= ((tknsRequested.mul(price)).div(TOKEN_DECIMALS));\r\n      }  \r\n    }\r\n\r\n    uint256 amount = msg.value.sub(remainingWei);\r\n    weiRaised += amount;\r\n    depositWallet.transfer(amount);\r\n\r\n    participant.remainingWei += remainingWei;\r\n    participant.contrAmount += amount;\r\n    participant.qtyTokens += totalTokensRequested;\r\n    totalTokensSold += totalTokensRequested;\r\n    LogTokensReserved(msg.sender, totalTokensRequested);\r\n    \r\n    return tier;\r\n  }\r\n \r\n ///@notice interface for founders to whitelist participants\r\n  function approveAddressForWhitelist(address _address) \r\n    public \r\n    onlyOwner\r\n    icoHasEnded \r\n  {\r\n    participants[_address].whitelistStatus = Status.Approved;\r\n  }\r\n\r\n  ///@notice interface for founders to whitelist participants\r\n  function denyAddressForWhitelist(address _address) \r\n    public \r\n    onlyOwner\r\n    icoHasEnded \r\n  {\r\n    participants[_address].whitelistStatus = Status.Denied;\r\n  }\r\n\r\n  /// @notice used to move tokens from the later tiers into the earlier tiers\r\n  /// contract must be paused to do the move\r\n  /// param tier from later tier to subtract the tokens from\r\n  /// param tier to add the tokens to\r\n  /// param how many tokens to take\r\n  function moveTokensForSale(uint8 _tierFrom, uint8 _tierTo, uint256 _tokens) \r\n    view\r\n    public\r\n    onlyOwner\r\n  {\r\n    SaleTier storage tiers = saleTier[_tierFrom];\r\n    require(paused == true);\r\n    require(_tierFrom > _tierTo);\r\n    require(_tokens <= ((tiers.tokensToBeSold).sub(tiers.tokensSold)));\r\n\r\n    tiers.tokensToBeSold.sub(_tokens);\r\n    saleTier[_tierTo].tokensToBeSold.add(_tokens);\r\n  }\r\n\r\n  /// @notice pause specific funtions of the contract\r\n  function pauseContract() public onlyOwner {\r\n    paused = true;\r\n  }\r\n\r\n  /// @notice to unpause functions\r\n  function unpauseContract() public onlyOwner {\r\n    paused = false;\r\n  }\r\n\r\n  function checkWhitelistStatus()\r\n    view\r\n    public\r\n    returns (bool whitelisted)\r\n  {\r\n    return (participants[msg.sender].whitelistStatus == Status.Approved);\r\n  }       \r\n\r\n  /// @notice users can withdraw the wei etheum sent\r\n  /// used for refund process incase not enough funds raised\r\n  /// or denied in the approval process\r\n  /// @notice no ethereum will be held in the crowdsale contract\r\n  /// when refunds become available the amount of Ethererum needed will\r\n  /// be manually transfered back to the crowdsale to be refunded\r\n  function refundWithdrawal()\r\n    external\r\n    unpausedContract\r\n    icoHasEnded\r\n    returns (bool success)\r\n  {\r\n    Participant storage participant = participants[msg.sender];\r\n    if(weiRaised >= minLimit){\r\n      require(participant.whitelistStatus != Status.Approved);\r\n    }\r\n\r\n    uint256 sendValue = participant.contrAmount;\r\n    participant.contrAmount = 0;\r\n    participant.qtyTokens = 0;\r\n    msg.sender.transfer(sendValue);\r\n  \r\n    LogWithdrawal(msg.sender, sendValue);\r\n    return true;\r\n  }\r\n\r\n  /// @dev freeze unsold tokens for use at a later time\r\n  /// and transfer team, owner and other internally promised tokens\r\n  /// param total number of tokens being transfered to the freeze wallet\r\n  function finalize(uint256 _internalTokens)\r\n    public\r\n    icoHasEnded\r\n    onlyOwner\r\n  {\r\n\r\n    bnbTeamWallet.setFreezeTime(block.number);\r\n    bnbToken.transferFrom(owner, depositWallet, calculateUnsoldICOTokens());\r\n    bnbToken.transferFrom(owner, teamWallet, _internalTokens);\r\n    depositWallet.transfer(this.balance);   \r\n  }\r\n\r\n  /// @notice calculate unsold tokens for transfer to depositWallet to be used at a later date\r\n  function calculateUnsoldICOTokens()\r\n    view\r\n    internal\r\n    returns (uint256)\r\n  {\r\n    uint256 remainingTokens;\r\n    for(uint8 i = 0; i < TIER_COUNT; i++){\r\n      if(saleTier[i].tokensSold < saleTier[i].tokensToBeSold){\r\n        remainingTokens += saleTier[i].tokensToBeSold.sub(saleTier[i].tokensSold);\r\n      }\r\n    }\r\n    return remainingTokens;\r\n  }\r\n\r\n  /// notice sends requested tokens to the whitelist person\r\n  function claimTokens() \r\n    external\r\n    unpausedContract\r\n    icoHasEnded\r\n  {\r\n    Participant storage participant = participants[msg.sender];\r\n    require(participant.whitelistStatus == Status.Approved);\r\n    require(participant.qtyTokens != 0);\r\n    uint256 tkns = participant.qtyTokens;\r\n    participant.qtyTokens = 0;\r\n    LogTokensTransferedFrom(owner, msg.sender, tkns);\r\n    bnbToken.transferFrom(owner, msg.sender, tkns);\r\n  }\r\n\r\n  /// @notice no ethereum will be held in the crowdsale contract\r\n  /// when refunds become available the amount of Ethererum needed will\r\n  /// be manually transfered back to the crowdsale to be refunded\r\n  /// @notice only the last person that buys tokens if they deposited enought to buy more \r\n  /// tokens than what is available will be able to use this function\r\n  function claimRemainingWei()\r\n    external\r\n    unpausedContract\r\n    icoHasEnded\r\n    returns (bool success)\r\n  {\r\n    Participant storage participant = participants[msg.sender];\r\n    require(participant.whitelistStatus == Status.Approved);\r\n    require(participant.remainingWei != 0);\r\n    uint256 sendValue = participant.remainingWei;\r\n    participant.remainingWei = 0;\r\n    LogWithdrawal(msg.sender, sendValue);\r\n    msg.sender.transfer(sendValue);\r\n    return true;\r\n  }\r\n}",
  "sourcePath": "D:\\Projects\\CryptoBNB\\contracts\\CBNBCrowdSale.sol",
  "compiler": {
    "name": "solc",
    "version": "0.4.18+commit.9cf6e910.Emscripten.clang"
  },
  "schemaVersion": "1.0.1",
  "updatedAt": "2018-01-25T23:43:23.147Z"
}